{"contracts/LiquidityPool.sol":{"LiquidityPool":{"abi":[{"inputs":[{"internalType":"address","name":"_token0","type":"address"},{"internalType":"address","name":"_token1","type":"address"},{"internalType":"uint256","name":"_feeRate","type":"uint256"}],"stateMutability":"nonpayable","type":"constructor"},{"anonymous":false,"inputs":[{"indexed":true,"internalType":"address","name":"owner","type":"address"},{"indexed":true,"internalType":"address","name":"approved","type":"address"},{"indexed":true,"internalType":"uint256","name":"tokenId","type":"uint256"}],"name":"Approval","type":"event"},{"anonymous":false,"inputs":[{"indexed":true,"internalType":"address","name":"owner","type":"address"},{"indexed":true,"internalType":"address","name":"operator","type":"address"},{"indexed":false,"internalType":"bool","name":"approved","type":"bool"}],"name":"ApprovalForAll","type":"event"},{"anonymous":false,"inputs":[{"indexed":true,"internalType":"uint256","name":"tokenId","type":"uint256"},{"indexed":false,"internalType":"uint256","name":"amount0","type":"uint256"},{"indexed":false,"internalType":"uint256","name":"amount1","type":"uint256"}],"name":"LiquidityAdded","type":"event"},{"anonymous":false,"inputs":[{"indexed":true,"internalType":"uint256","name":"tokenId","type":"uint256"},{"indexed":false,"internalType":"uint256","name":"amount0","type":"uint256"},{"indexed":false,"internalType":"uint256","name":"amount1","type":"uint256"}],"name":"LiquidityRemoved","type":"event"},{"anonymous":false,"inputs":[{"indexed":true,"internalType":"address","name":"user","type":"address"},{"indexed":false,"internalType":"address","name":"tokenIn","type":"address"},{"indexed":false,"internalType":"address","name":"tokenOut","type":"address"},{"indexed":false,"internalType":"uint256","name":"amountIn","type":"uint256"},{"indexed":false,"internalType":"uint256","name":"amountOut","type":"uint256"}],"name":"Swap","type":"event"},{"anonymous":false,"inputs":[{"indexed":true,"internalType":"address","name":"from","type":"address"},{"indexed":true,"internalType":"address","name":"to","type":"address"},{"indexed":true,"internalType":"uint256","name":"tokenId","type":"uint256"}],"name":"Transfer","type":"event"},{"inputs":[{"internalType":"uint256","name":"amount0","type":"uint256"},{"internalType":"uint256","name":"amount1","type":"uint256"},{"internalType":"uint256","name":"lowerSqrtPrice","type":"uint256"},{"internalType":"uint256","name":"upperSqrtPrice","type":"uint256"}],"name":"addLiquidity","outputs":[],"stateMutability":"nonpayable","type":"function"},{"inputs":[{"internalType":"address","name":"to","type":"address"},{"internalType":"uint256","name":"tokenId","type":"uint256"}],"name":"approve","outputs":[],"stateMutability":"nonpayable","type":"function"},{"inputs":[{"internalType":"address","name":"owner","type":"address"}],"name":"balanceOf","outputs":[{"internalType":"uint256","name":"","type":"uint256"}],"stateMutability":"view","type":"function"},{"inputs":[],"name":"feeRate","outputs":[{"internalType":"uint256","name":"","type":"uint256"}],"stateMutability":"view","type":"function"},{"inputs":[{"internalType":"uint256","name":"tokenId","type":"uint256"}],"name":"getApproved","outputs":[{"internalType":"address","name":"","type":"address"}],"stateMutability":"view","type":"function"},{"inputs":[{"internalType":"uint256","name":"tokenId","type":"uint256"}],"name":"getPosition","outputs":[{"components":[{"internalType":"uint256","name":"lowerSqrtPrice","type":"uint256"},{"internalType":"uint256","name":"upperSqrtPrice","type":"uint256"},{"internalType":"uint256","name":"liquidity0","type":"uint256"},{"internalType":"uint256","name":"liquidity1","type":"uint256"},{"internalType":"uint256","name":"collectedFee0","type":"uint256"},{"internalType":"uint256","name":"collectedFee1","type":"uint256"},{"internalType":"address","name":"owner","type":"address"}],"internalType":"struct LiquidityPool.Position","name":"","type":"tuple"}],"stateMutability":"view","type":"function"},{"inputs":[],"name":"getReserves","outputs":[{"internalType":"uint256","name":"","type":"uint256"},{"internalType":"uint256","name":"","type":"uint256"}],"stateMutability":"view","type":"function"},{"inputs":[{"internalType":"address","name":"owner","type":"address"},{"internalType":"address","name":"operator","type":"address"}],"name":"isApprovedForAll","outputs":[{"internalType":"bool","name":"","type":"bool"}],"stateMutability":"view","type":"function"},{"inputs":[],"name":"name","outputs":[{"internalType":"string","name":"","type":"string"}],"stateMutability":"view","type":"function"},{"inputs":[{"internalType":"uint256","name":"tokenId","type":"uint256"}],"name":"ownerOf","outputs":[{"internalType":"address","name":"","type":"address"}],"stateMutability":"view","type":"function"},{"inputs":[{"internalType":"uint256","name":"","type":"uint256"}],"name":"positions","outputs":[{"internalType":"uint256","name":"lowerSqrtPrice","type":"uint256"},{"internalType":"uint256","name":"upperSqrtPrice","type":"uint256"},{"internalType":"uint256","name":"liquidity0","type":"uint256"},{"internalType":"uint256","name":"liquidity1","type":"uint256"},{"internalType":"uint256","name":"collectedFee0","type":"uint256"},{"internalType":"uint256","name":"collectedFee1","type":"uint256"},{"internalType":"address","name":"owner","type":"address"}],"stateMutability":"view","type":"function"},{"inputs":[{"internalType":"uint256","name":"tokenId","type":"uint256"}],"name":"removeLiquidity","outputs":[],"stateMutability":"nonpayable","type":"function"},{"inputs":[],"name":"reserve0","outputs":[{"internalType":"uint256","name":"","type":"uint256"}],"stateMutability":"view","type":"function"},{"inputs":[],"name":"reserve1","outputs":[{"internalType":"uint256","name":"","type":"uint256"}],"stateMutability":"view","type":"function"},{"inputs":[{"internalType":"address","name":"from","type":"address"},{"internalType":"address","name":"to","type":"address"},{"internalType":"uint256","name":"tokenId","type":"uint256"}],"name":"safeTransferFrom","outputs":[],"stateMutability":"nonpayable","type":"function"},{"inputs":[{"internalType":"address","name":"from","type":"address"},{"internalType":"address","name":"to","type":"address"},{"internalType":"uint256","name":"tokenId","type":"uint256"},{"internalType":"bytes","name":"data","type":"bytes"}],"name":"safeTransferFrom","outputs":[],"stateMutability":"nonpayable","type":"function"},{"inputs":[{"internalType":"address","name":"operator","type":"address"},{"internalType":"bool","name":"approved","type":"bool"}],"name":"setApprovalForAll","outputs":[],"stateMutability":"nonpayable","type":"function"},{"inputs":[{"internalType":"bytes4","name":"interfaceId","type":"bytes4"}],"name":"supportsInterface","outputs":[{"internalType":"bool","name":"","type":"bool"}],"stateMutability":"view","type":"function"},{"inputs":[{"internalType":"address","name":"tokenIn","type":"address"},{"internalType":"uint256","name":"amountIn","type":"uint256"}],"name":"swap","outputs":[],"stateMutability":"nonpayable","type":"function"},{"inputs":[],"name":"symbol","outputs":[{"internalType":"string","name":"","type":"string"}],"stateMutability":"view","type":"function"},{"inputs":[],"name":"token0","outputs":[{"internalType":"address","name":"","type":"address"}],"stateMutability":"view","type":"function"},{"inputs":[],"name":"token1","outputs":[{"internalType":"address","name":"","type":"address"}],"stateMutability":"view","type":"function"},{"inputs":[{"internalType":"uint256","name":"index","type":"uint256"}],"name":"tokenByIndex","outputs":[{"internalType":"uint256","name":"","type":"uint256"}],"stateMutability":"view","type":"function"},{"inputs":[{"internalType":"address","name":"owner","type":"address"},{"internalType":"uint256","name":"index","type":"uint256"}],"name":"tokenOfOwnerByIndex","outputs":[{"internalType":"uint256","name":"","type":"uint256"}],"stateMutability":"view","type":"function"},{"inputs":[{"internalType":"uint256","name":"tokenId","type":"uint256"}],"name":"tokenURI","outputs":[{"internalType":"string","name":"","type":"string"}],"stateMutability":"view","type":"function"},{"inputs":[],"name":"totalSupply","outputs":[{"internalType":"uint256","name":"","type":"uint256"}],"stateMutability":"view","type":"function"},{"inputs":[{"internalType":"address","name":"from","type":"address"},{"internalType":"address","name":"to","type":"address"},{"internalType":"uint256","name":"tokenId","type":"uint256"}],"name":"transferFrom","outputs":[],"stateMutability":"nonpayable","type":"function"}],"evm":{"bytecode":{"linkReferences":{},"object":"60e06040523480156200001157600080fd5b5060405162004dd438038062004dd48339818101604052810190620000379190620001e7565b6040518060400160405280600781526020017f4c50546f6b656e000000000000000000000000000000000000000000000000008152506040518060400160405280600681526020017f4c502d4e465400000000000000000000000000000000000000000000000000008152508160009081620000b49190620004b3565b508060019081620000c69190620004b3565b5050508273ffffffffffffffffffffffffffffffffffffffff1660808173ffffffffffffffffffffffffffffffffffffffff16815250508173ffffffffffffffffffffffffffffffffffffffff1660a08173ffffffffffffffffffffffffffffffffffffffff16815250508060c081815250505050506200059a565b600080fd5b600073ffffffffffffffffffffffffffffffffffffffff82169050919050565b6000620001748262000147565b9050919050565b620001868162000167565b81146200019257600080fd5b50565b600081519050620001a6816200017b565b92915050565b6000819050919050565b620001c181620001ac565b8114620001cd57600080fd5b50565b600081519050620001e181620001b6565b92915050565b60008060006060848603121562000203576200020262000142565b5b6000620002138682870162000195565b9350506020620002268682870162000195565b92505060406200023986828701620001d0565b9150509250925092565b600081519050919050565b7f4e487b7100000000000000000000000000000000000000000000000000000000600052604160045260246000fd5b7f4e487b7100000000000000000000000000000000000000000000000000000000600052602260045260246000fd5b60006002820490506001821680620002c557607f821691505b602082108103620002db57620002da6200027d565b5b50919050565b60008190508160005260206000209050919050565b60006020601f8301049050919050565b600082821b905092915050565b600060088302620003457fffffffffffffffffffffffffffffffffffffffffffffffffffffffffffffffff8262000306565b62000351868362000306565b95508019841693508086168417925050509392505050565b6000819050919050565b6000620003946200038e6200038884620001ac565b62000369565b620001ac565b9050919050565b6000819050919050565b620003b08362000373565b620003c8620003bf826200039b565b84845462000313565b825550505050565b600090565b620003df620003d0565b620003ec818484620003a5565b505050565b5b81811015620004145762000408600082620003d5565b600181019050620003f2565b5050565b601f82111562000463576200042d81620002e1565b6200043884620002f6565b8101602085101562000448578190505b620004606200045785620002f6565b830182620003f1565b50505b505050565b600082821c905092915050565b6000620004886000198460080262000468565b1980831691505092915050565b6000620004a3838362000475565b9150826002028217905092915050565b620004be8262000243565b67ffffffffffffffff811115620004da57620004d96200024e565b5b620004e68254620002ac565b620004f382828562000418565b600060209050601f8311600181146200052b576000841562000516578287015190505b62000522858262000495565b86555062000592565b601f1984166200053b86620002e1565b60005b8281101562000565578489015182556001820191506020850194506020810190506200053e565b8683101562000585578489015162000581601f89168262000475565b8355505b6001600288020188555050505b505050505050565b60805160a05160c0516147af620006256000396000610ba1015260008181610d8301528181610f120152818161120b015281816113c6015281816114970152818161161e01526116800152600081816107ff01528181610d2501528181610ec5015281816111b6015281816112dd015281816114760152818161156e015261163f01526147af6000f3fe608060405234801561001057600080fd5b50600436106101a95760003560e01c80636352211e116100f9578063aebf3e4111610097578063d004f0f711610071578063d004f0f7146104e9578063d21220a714610505578063e985e9c514610523578063eb02c30114610553576101a9565b8063aebf3e4114610481578063b88d4fde1461049d578063c87b56dd146104b9576101a9565b8063978bbdb9116100d3578063978bbdb9146103f557806399fbab88146104135780639c8f9f2314610449578063a22cb46514610465576101a9565b80636352211e1461037757806370a08231146103a757806395d89b41146103d7576101a9565b806318160ddd1161016657806342842e0e1161014057806342842e0e146102ef578063443cb4bc1461030b5780634f6ccce7146103295780635a76f25e14610359576101a9565b806318160ddd1461028557806323b872dd146102a35780632f745c59146102bf576101a9565b806301ffc9a7146101ae57806306fdde03146101de578063081812fc146101fc5780630902f1ac1461022c578063095ea7b31461024b5780630dfe168114610267575b600080fd5b6101c860048036038101906101c3919061302d565b610583565b6040516101d59190613075565b60405180910390f35b6101e66105fd565b6040516101f39190613120565b60405180910390f35b61021660048036038101906102119190613178565b61068f565b60405161022391906131e6565b60405180910390f35b6102346106d5565b604051610242929190613210565b60405180910390f35b61026560048036038101906102609190613265565b6106e6565b005b61026f6107fd565b60405161027c91906131e6565b60405180910390f35b61028d610821565b60405161029a91906132a5565b60405180910390f35b6102bd60048036038101906102b891906132c0565b61082e565b005b6102d960048036038101906102d49190613265565b61088e565b6040516102e691906132a5565b60405180910390f35b610309600480360381019061030491906132c0565b610933565b005b610313610953565b60405161032091906132a5565b60405180910390f35b610343600480360381019061033e9190613178565b610959565b60405161035091906132a5565b60405180910390f35b6103616109ca565b60405161036e91906132a5565b60405180910390f35b610391600480360381019061038c9190613178565b6109d0565b60405161039e91906131e6565b60405180910390f35b6103c160048036038101906103bc9190613313565b610a56565b6040516103ce91906132a5565b60405180910390f35b6103df610b0d565b6040516103ec9190613120565b60405180910390f35b6103fd610b9f565b60405161040a91906132a5565b60405180910390f35b61042d60048036038101906104289190613178565b610bc3565b6040516104409796959493929190613340565b60405180910390f35b610463600480360381019061045e9190613178565b610c35565b005b61047f600480360381019061047a91906133db565b610e16565b005b61049b6004803603810190610496919061341b565b610e2c565b005b6104b760048036038101906104b291906135b7565b6110ea565b005b6104d360048036038101906104ce9190613178565b61114c565b6040516104e09190613120565b60405180910390f35b61050360048036038101906104fe9190613265565b6111b4565b005b61050d61167e565b60405161051a91906131e6565b60405180910390f35b61053d6004803603810190610538919061363a565b6116a2565b60405161054a9190613075565b60405180910390f35b61056d60048036038101906105689190613178565b611736565b60405161057a9190613726565b60405180910390f35b60007f780e9d63000000000000000000000000000000000000000000000000000000007bffffffffffffffffffffffffffffffffffffffffffffffffffffffff1916827bffffffffffffffffffffffffffffffffffffffffffffffffffffffff191614806105f657506105f582611804565b5b9050919050565b60606000805461060c90613770565b80601f016020809104026020016040519081016040528092919081815260200182805461063890613770565b80156106855780601f1061065a57610100808354040283529160200191610685565b820191906000526020600020905b81548152906001019060200180831161066857829003601f168201915b5050505050905090565b600061069a826118e6565b6004600083815260200190815260200160002060009054906101000a900473ffffffffffffffffffffffffffffffffffffffff169050919050565b600080600a54600b54915091509091565b60006106f1826109d0565b90508073ffffffffffffffffffffffffffffffffffffffff168373ffffffffffffffffffffffffffffffffffffffff1603610761576040517f08c379a000000000000000000000000000000000000000000000000000000000815260040161075890613813565b60405180910390fd5b8073ffffffffffffffffffffffffffffffffffffffff16610780611931565b73ffffffffffffffffffffffffffffffffffffffff1614806107af57506107ae816107a9611931565b6116a2565b5b6107ee576040517f08c379a00000000000000000000000000000000000000000000000000000000081526004016107e5906138a5565b60405180910390fd5b6107f88383611939565b505050565b7f000000000000000000000000000000000000000000000000000000000000000081565b6000600880549050905090565b61083f610839611931565b826119f2565b61087e576040517f08c379a000000000000000000000000000000000000000000000000000000000815260040161087590613937565b60405180910390fd5b610889838383611a87565b505050565b600061089983610a56565b82106108da576040517f08c379a00000000000000000000000000000000000000000000000000000000081526004016108d1906139c9565b60405180910390fd5b600660008473ffffffffffffffffffffffffffffffffffffffff1673ffffffffffffffffffffffffffffffffffffffff168152602001908152602001600020600083815260200190815260200160002054905092915050565b61094e838383604051806020016040528060008152506110ea565b505050565b600a5481565b6000610963610821565b82106109a4576040517f08c379a000000000000000000000000000000000000000000000000000000000815260040161099b90613a5b565b60405180910390fd5b600882815481106109b8576109b7613a7b565b5b90600052602060002001549050919050565b600b5481565b6000806109dc83611d80565b9050600073ffffffffffffffffffffffffffffffffffffffff168173ffffffffffffffffffffffffffffffffffffffff1603610a4d576040517f08c379a0000000000000000000000000000000000000000000000000000000008152600401610a4490613af6565b60405180910390fd5b80915050919050565b60008073ffffffffffffffffffffffffffffffffffffffff168273ffffffffffffffffffffffffffffffffffffffff1603610ac6576040517f08c379a0000000000000000000000000000000000000000000000000000000008152600401610abd90613b88565b60405180910390fd5b600360008373ffffffffffffffffffffffffffffffffffffffff1673ffffffffffffffffffffffffffffffffffffffff168152602001908152602001600020549050919050565b606060018054610b1c90613770565b80601f0160208091040260200160405190810160405280929190818152602001828054610b4890613770565b8015610b955780601f10610b6a57610100808354040283529160200191610b95565b820191906000526020600020905b815481529060010190602001808311610b7857829003601f168201915b5050505050905090565b7f000000000000000000000000000000000000000000000000000000000000000081565b600c8181548110610bd357600080fd5b90600052602060002090600702016000915090508060000154908060010154908060020154908060030154908060040154908060050154908060060160009054906101000a900473ffffffffffffffffffffffffffffffffffffffff16905087565b3373ffffffffffffffffffffffffffffffffffffffff16610c55826109d0565b73ffffffffffffffffffffffffffffffffffffffff1614610cab576040517f08c379a0000000000000000000000000000000000000000000000000000000008152600401610ca290613bf4565b60405180910390fd5b6000600c8281548110610cc157610cc0613a7b565b5b906000526020600020906007020190508060020154600a6000828254610ce79190613c43565b925050819055508060030154600b6000828254610d049190613c43565b92505081905550610d693382600401548360020154610d239190613c77565b7f000000000000000000000000000000000000000000000000000000000000000073ffffffffffffffffffffffffffffffffffffffff16611dbd9092919063ffffffff16565b610dc73382600501548360030154610d819190613c77565b7f000000000000000000000000000000000000000000000000000000000000000073ffffffffffffffffffffffffffffffffffffffff16611dbd9092919063ffffffff16565b610dd082611e43565b817f0bb89aa54ed6940a7e7167bd262b2400d63945045ceff1a52a05f2601ed215f182600201548360030154604051610e0a929190613210565b60405180910390a25050565b610e28610e21611931565b8383611f91565b5050565b600084118015610e3c5750600083115b610e7b576040517f08c379a0000000000000000000000000000000000000000000000000000000008152600401610e7290613cf7565b60405180910390fd5b808210610ebd576040517f08c379a0000000000000000000000000000000000000000000000000000000008152600401610eb490613d63565b60405180910390fd5b610f0a3330867f000000000000000000000000000000000000000000000000000000000000000073ffffffffffffffffffffffffffffffffffffffff166120fd909392919063ffffffff16565b610f573330857f000000000000000000000000000000000000000000000000000000000000000073ffffffffffffffffffffffffffffffffffffffff166120fd909392919063ffffffff16565b83600a6000828254610f699190613c77565b9250508190555082600b6000828254610f829190613c77565b925050819055506000600d6000815480929190610f9e90613d83565b919050559050600c6040518060e0016040528085815260200184815260200187815260200186815260200160008152602001600081526020013373ffffffffffffffffffffffffffffffffffffffff168152509080600181540180825580915050600190039060005260206000209060070201600090919091909150600082015181600001556020820151816001015560408201518160020155606082015181600301556080820151816004015560a0820151816005015560c08201518160060160006101000a81548173ffffffffffffffffffffffffffffffffffffffff021916908373ffffffffffffffffffffffffffffffffffffffff16021790555050506110a93382612186565b807fd7f28048575eead8851d024ead087913957dfb4fd1a02b4d1573f5352a5a2be386866040516110db929190613210565b60405180910390a25050505050565b6110fb6110f5611931565b836119f2565b61113a576040517f08c379a000000000000000000000000000000000000000000000000000000000815260040161113190613937565b60405180910390fd5b611146848484846123a3565b50505050565b6060611157826118e6565b60006111616123ff565b9050600081511161118157604051806020016040528060008152506111ac565b8061118b84612416565b60405160200161119c929190613e07565b6040516020818303038152906040525b915050919050565b7f000000000000000000000000000000000000000000000000000000000000000073ffffffffffffffffffffffffffffffffffffffff168273ffffffffffffffffffffffffffffffffffffffff16148061125957507f000000000000000000000000000000000000000000000000000000000000000073ffffffffffffffffffffffffffffffffffffffff168273ffffffffffffffffffffffffffffffffffffffff16145b611298576040517f08c379a000000000000000000000000000000000000000000000000000000000815260040161128f90613e77565b60405180910390fd5b600081116112db576040517f08c379a00000000000000000000000000000000000000000000000000000000081526004016112d290613ee3565b60405180910390fd5b7f000000000000000000000000000000000000000000000000000000000000000073ffffffffffffffffffffffffffffffffffffffff168273ffffffffffffffffffffffffffffffffffffffff16036114d6576000600a54600b54836113419190613f03565b61134b9190613f74565b905080600b541015611392576040517f08c379a000000000000000000000000000000000000000000000000000000000815260040161138990613ff1565b60405180910390fd5b6113bf3330848673ffffffffffffffffffffffffffffffffffffffff166120fd909392919063ffffffff16565b61140a33827f000000000000000000000000000000000000000000000000000000000000000073ffffffffffffffffffffffffffffffffffffffff16611dbd9092919063ffffffff16565b81600a600082825461141c9190613c77565b9250508190555080600b60008282546114359190613c43565b925050819055503373ffffffffffffffffffffffffffffffffffffffff167fcd3829a3813dc3cdd188fd3d01dcf3268c16be2fdd2dd21d0665418816e460627f00000000000000000000000000000000000000000000000000000000000000007f000000000000000000000000000000000000000000000000000000000000000085856040516114c89493929190614011565b60405180910390a25061167a565b6000600b54600a54836114e99190613f03565b6114f39190613f74565b905080600a54101561153a576040517f08c379a000000000000000000000000000000000000000000000000000000000815260040161153190613ff1565b60405180910390fd5b6115673330848673ffffffffffffffffffffffffffffffffffffffff166120fd909392919063ffffffff16565b6115b233827f000000000000000000000000000000000000000000000000000000000000000073ffffffffffffffffffffffffffffffffffffffff16611dbd9092919063ffffffff16565b81600b60008282546115c49190613c77565b9250508190555080600a60008282546115dd9190613c43565b925050819055503373ffffffffffffffffffffffffffffffffffffffff167fcd3829a3813dc3cdd188fd3d01dcf3268c16be2fdd2dd21d0665418816e460627f00000000000000000000000000000000000000000000000000000000000000007f000000000000000000000000000000000000000000000000000000000000000085856040516116709493929190614011565b60405180910390a2505b5050565b7f000000000000000000000000000000000000000000000000000000000000000081565b6000600560008473ffffffffffffffffffffffffffffffffffffffff1673ffffffffffffffffffffffffffffffffffffffff16815260200190815260200160002060008373ffffffffffffffffffffffffffffffffffffffff1673ffffffffffffffffffffffffffffffffffffffff16815260200190815260200160002060009054906101000a900460ff16905092915050565b61173e612f6e565b600c828154811061175257611751613a7b565b5b90600052602060002090600702016040518060e00160405290816000820154815260200160018201548152602001600282015481526020016003820154815260200160048201548152602001600582015481526020016006820160009054906101000a900473ffffffffffffffffffffffffffffffffffffffff1673ffffffffffffffffffffffffffffffffffffffff1673ffffffffffffffffffffffffffffffffffffffff16815250509050919050565b60007f80ac58cd000000000000000000000000000000000000000000000000000000007bffffffffffffffffffffffffffffffffffffffffffffffffffffffff1916827bffffffffffffffffffffffffffffffffffffffffffffffffffffffff191614806118cf57507f5b5e139f000000000000000000000000000000000000000000000000000000007bffffffffffffffffffffffffffffffffffffffffffffffffffffffff1916827bffffffffffffffffffffffffffffffffffffffffffffffffffffffff1916145b806118df57506118de826124e4565b5b9050919050565b6118ef8161254e565b61192e576040517f08c379a000000000000000000000000000000000000000000000000000000000815260040161192590613af6565b60405180910390fd5b50565b600033905090565b816004600083815260200190815260200160002060006101000a81548173ffffffffffffffffffffffffffffffffffffffff021916908373ffffffffffffffffffffffffffffffffffffffff160217905550808273ffffffffffffffffffffffffffffffffffffffff166119ac836109d0565b73ffffffffffffffffffffffffffffffffffffffff167f8c5be1e5ebec7d5bd14f71427d1e84f3dd0314c0f7b2291e5b200ac8c7c3b92560405160405180910390a45050565b6000806119fe836109d0565b90508073ffffffffffffffffffffffffffffffffffffffff168473ffffffffffffffffffffffffffffffffffffffff161480611a405750611a3f81856116a2565b5b80611a7e57508373ffffffffffffffffffffffffffffffffffffffff16611a668461068f565b73ffffffffffffffffffffffffffffffffffffffff16145b91505092915050565b8273ffffffffffffffffffffffffffffffffffffffff16611aa7826109d0565b73ffffffffffffffffffffffffffffffffffffffff1614611afd576040517f08c379a0000000000000000000000000000000000000000000000000000000008152600401611af4906140c8565b60405180910390fd5b600073ffffffffffffffffffffffffffffffffffffffff168273ffffffffffffffffffffffffffffffffffffffff1603611b6c576040517f08c379a0000000000000000000000000000000000000000000000000000000008152600401611b639061415a565b60405180910390fd5b611b79838383600161258f565b8273ffffffffffffffffffffffffffffffffffffffff16611b99826109d0565b73ffffffffffffffffffffffffffffffffffffffff1614611bef576040517f08c379a0000000000000000000000000000000000000000000000000000000008152600401611be6906140c8565b60405180910390fd5b6004600082815260200190815260200160002060006101000a81549073ffffffffffffffffffffffffffffffffffffffff02191690556001600360008573ffffffffffffffffffffffffffffffffffffffff1673ffffffffffffffffffffffffffffffffffffffff168152602001908152602001600020600082825403925050819055506001600360008473ffffffffffffffffffffffffffffffffffffffff1673ffffffffffffffffffffffffffffffffffffffff16815260200190815260200160002060008282540192505081905550816002600083815260200190815260200160002060006101000a81548173ffffffffffffffffffffffffffffffffffffffff021916908373ffffffffffffffffffffffffffffffffffffffff160217905550808273ffffffffffffffffffffffffffffffffffffffff168473ffffffffffffffffffffffffffffffffffffffff167fddf252ad1be2c89b69c2b068fc378daa952ba7f163c4a11628f55a4df523b3ef60405160405180910390a4611d7b83838360016126ed565b505050565b60006002600083815260200190815260200160002060009054906101000a900473ffffffffffffffffffffffffffffffffffffffff169050919050565b611e3e8363a9059cbb60e01b8484604051602401611ddc92919061417a565b604051602081830303815290604052907bffffffffffffffffffffffffffffffffffffffffffffffffffffffff19166020820180517bffffffffffffffffffffffffffffffffffffffffffffffffffffffff83818316178352505050506126f3565b505050565b6000611e4e826109d0565b9050611e5e81600084600161258f565b611e67826109d0565b90506004600083815260200190815260200160002060006101000a81549073ffffffffffffffffffffffffffffffffffffffff02191690556001600360008373ffffffffffffffffffffffffffffffffffffffff1673ffffffffffffffffffffffffffffffffffffffff168152602001908152602001600020600082825403925050819055506002600083815260200190815260200160002060006101000a81549073ffffffffffffffffffffffffffffffffffffffff021916905581600073ffffffffffffffffffffffffffffffffffffffff168273ffffffffffffffffffffffffffffffffffffffff167fddf252ad1be2c89b69c2b068fc378daa952ba7f163c4a11628f55a4df523b3ef60405160405180910390a4611f8d8160008460016126ed565b5050565b8173ffffffffffffffffffffffffffffffffffffffff168373ffffffffffffffffffffffffffffffffffffffff1603611fff576040517f08c379a0000000000000000000000000000000000000000000000000000000008152600401611ff6906141ef565b60405180910390fd5b80600560008573ffffffffffffffffffffffffffffffffffffffff1673ffffffffffffffffffffffffffffffffffffffff16815260200190815260200160002060008473ffffffffffffffffffffffffffffffffffffffff1673ffffffffffffffffffffffffffffffffffffffff16815260200190815260200160002060006101000a81548160ff0219169083151502179055508173ffffffffffffffffffffffffffffffffffffffff168373ffffffffffffffffffffffffffffffffffffffff167f17307eab39ab6107e8899845ad3d59bd9653f200f220920489ca2b5937696c31836040516120f09190613075565b60405180910390a3505050565b612180846323b872dd60e01b85858560405160240161211e9392919061420f565b604051602081830303815290604052907bffffffffffffffffffffffffffffffffffffffffffffffffffffffff19166020820180517bffffffffffffffffffffffffffffffffffffffffffffffffffffffff83818316178352505050506126f3565b50505050565b600073ffffffffffffffffffffffffffffffffffffffff168273ffffffffffffffffffffffffffffffffffffffff16036121f5576040517f08c379a00000000000000000000000000000000000000000000000000000000081526004016121ec90614292565b60405180910390fd5b6121fe8161254e565b1561223e576040517f08c379a0000000000000000000000000000000000000000000000000000000008152600401612235906142fe565b60405180910390fd5b61224c60008383600161258f565b6122558161254e565b15612295576040517f08c379a000000000000000000000000000000000000000000000000000000000815260040161228c906142fe565b60405180910390fd5b6001600360008473ffffffffffffffffffffffffffffffffffffffff1673ffffffffffffffffffffffffffffffffffffffff16815260200190815260200160002060008282540192505081905550816002600083815260200190815260200160002060006101000a81548173ffffffffffffffffffffffffffffffffffffffff021916908373ffffffffffffffffffffffffffffffffffffffff160217905550808273ffffffffffffffffffffffffffffffffffffffff16600073ffffffffffffffffffffffffffffffffffffffff167fddf252ad1be2c89b69c2b068fc378daa952ba7f163c4a11628f55a4df523b3ef60405160405180910390a461239f6000838360016126ed565b5050565b6123ae848484611a87565b6123ba848484846127bb565b6123f9576040517f08c379a00000000000000000000000000000000000000000000000000000000081526004016123f090614390565b60405180910390fd5b50505050565b606060405180602001604052806000815250905090565b60606000600161242584612942565b01905060008167ffffffffffffffff8111156124445761244361348c565b5b6040519080825280601f01601f1916602001820160405280156124765781602001600182028036833780820191505090505b509050600082602001820190505b6001156124d9578080600190039150507f3031323334353637383961626364656600000000000000000000000000000000600a86061a8153600a85816124cd576124cc613f45565b5b04945060008503612484575b819350505050919050565b60007f01ffc9a7000000000000000000000000000000000000000000000000000000007bffffffffffffffffffffffffffffffffffffffffffffffffffffffff1916827bffffffffffffffffffffffffffffffffffffffffffffffffffffffff1916149050919050565b60008073ffffffffffffffffffffffffffffffffffffffff1661257083611d80565b73ffffffffffffffffffffffffffffffffffffffff1614159050919050565b61259b84848484612a95565b60018111156125df576040517f08c379a00000000000000000000000000000000000000000000000000000000081526004016125d690614422565b60405180910390fd5b6000829050600073ffffffffffffffffffffffffffffffffffffffff168573ffffffffffffffffffffffffffffffffffffffff16036126265761262181612a9b565b612665565b8373ffffffffffffffffffffffffffffffffffffffff168573ffffffffffffffffffffffffffffffffffffffff1614612664576126638582612ae4565b5b5b600073ffffffffffffffffffffffffffffffffffffffff168473ffffffffffffffffffffffffffffffffffffffff16036126a7576126a281612c51565b6126e6565b8473ffffffffffffffffffffffffffffffffffffffff168473ffffffffffffffffffffffffffffffffffffffff16146126e5576126e48482612d22565b5b5b5050505050565b50505050565b6000612755826040518060400160405280602081526020017f5361666545524332303a206c6f772d6c6576656c2063616c6c206661696c65648152508573ffffffffffffffffffffffffffffffffffffffff16612da19092919063ffffffff16565b90506000815114806127775750808060200190518101906127769190614457565b5b6127b6576040517f08c379a00000000000000000000000000000000000000000000000000000000081526004016127ad906144f6565b60405180910390fd5b505050565b60006127dc8473ffffffffffffffffffffffffffffffffffffffff16612db9565b15612935578373ffffffffffffffffffffffffffffffffffffffff1663150b7a02612805611931565b8786866040518563ffffffff1660e01b8152600401612827949392919061456b565b6020604051808303816000875af192505050801561286357506040513d601f19601f8201168201806040525081019061286091906145cc565b60015b6128e5573d8060008114612893576040519150601f19603f3d011682016040523d82523d6000602084013e612898565b606091505b5060008151036128dd576040517f08c379a00000000000000000000000000000000000000000000000000000000081526004016128d490614390565b60405180910390fd5b805181602001fd5b63150b7a0260e01b7bffffffffffffffffffffffffffffffffffffffffffffffffffffffff1916817bffffffffffffffffffffffffffffffffffffffffffffffffffffffff19161491505061293a565b600190505b949350505050565b600080600090507a184f03e93ff9f4daa797ed6e38ed64bf6a1f01000000000000000083106129a0577a184f03e93ff9f4daa797ed6e38ed64bf6a1f010000000000000000838161299657612995613f45565b5b0492506040810190505b6d04ee2d6d415b85acef810000000083106129dd576d04ee2d6d415b85acef810000000083816129d3576129d2613f45565b5b0492506020810190505b662386f26fc100008310612a0c57662386f26fc100008381612a0257612a01613f45565b5b0492506010810190505b6305f5e1008310612a35576305f5e1008381612a2b57612a2a613f45565b5b0492506008810190505b6127108310612a5a576127108381612a5057612a4f613f45565b5b0492506004810190505b60648310612a7d5760648381612a7357612a72613f45565b5b0492506002810190505b600a8310612a8c576001810190505b80915050919050565b50505050565b6008805490506009600083815260200190815260200160002081905550600881908060018154018082558091505060019003906000526020600020016000909190919091505550565b60006001612af184610a56565b612afb9190613c43565b9050600060076000848152602001908152602001600020549050818114612be0576000600660008673ffffffffffffffffffffffffffffffffffffffff1673ffffffffffffffffffffffffffffffffffffffff168152602001908152602001600020600084815260200190815260200160002054905080600660008773ffffffffffffffffffffffffffffffffffffffff1673ffffffffffffffffffffffffffffffffffffffff168152602001908152602001600020600084815260200190815260200160002081905550816007600083815260200190815260200160002081905550505b6007600084815260200190815260200160002060009055600660008573ffffffffffffffffffffffffffffffffffffffff1673ffffffffffffffffffffffffffffffffffffffff16815260200190815260200160002060008381526020019081526020016000206000905550505050565b60006001600880549050612c659190613c43565b9050600060096000848152602001908152602001600020549050600060088381548110612c9557612c94613a7b565b5b906000526020600020015490508060088381548110612cb757612cb6613a7b565b5b906000526020600020018190555081600960008381526020019081526020016000208190555060096000858152602001908152602001600020600090556008805480612d0657612d056145f9565b5b6001900381819060005260206000200160009055905550505050565b6000612d2d83610a56565b905081600660008573ffffffffffffffffffffffffffffffffffffffff1673ffffffffffffffffffffffffffffffffffffffff168152602001908152602001600020600083815260200190815260200160002081905550806007600084815260200190815260200160002081905550505050565b6060612db08484600085612ddc565b90509392505050565b6000808273ffffffffffffffffffffffffffffffffffffffff163b119050919050565b606082471015612e21576040517f08c379a0000000000000000000000000000000000000000000000000000000008152600401612e189061469a565b60405180910390fd5b6000808673ffffffffffffffffffffffffffffffffffffffff168587604051612e4a91906146f6565b60006040518083038185875af1925050503d8060008114612e87576040519150601f19603f3d011682016040523d82523d6000602084013e612e8c565b606091505b5091509150612e9d87838387612ea9565b92505050949350505050565b60608315612f0b576000835103612f0357612ec385612db9565b612f02576040517f08c379a0000000000000000000000000000000000000000000000000000000008152600401612ef990614759565b60405180910390fd5b5b829050612f16565b612f158383612f1e565b5b949350505050565b600082511115612f315781518083602001fd5b806040517f08c379a0000000000000000000000000000000000000000000000000000000008152600401612f659190613120565b60405180910390fd5b6040518060e00160405280600081526020016000815260200160008152602001600081526020016000815260200160008152602001600073ffffffffffffffffffffffffffffffffffffffff1681525090565b6000604051905090565b600080fd5b600080fd5b60007fffffffff0000000000000000000000000000000000000000000000000000000082169050919050565b61300a81612fd5565b811461301557600080fd5b50565b60008135905061302781613001565b92915050565b60006020828403121561304357613042612fcb565b5b600061305184828501613018565b91505092915050565b60008115159050919050565b61306f8161305a565b82525050565b600060208201905061308a6000830184613066565b92915050565b600081519050919050565b600082825260208201905092915050565b60005b838110156130ca5780820151818401526020810190506130af565b60008484015250505050565b6000601f19601f8301169050919050565b60006130f282613090565b6130fc818561309b565b935061310c8185602086016130ac565b613115816130d6565b840191505092915050565b6000602082019050818103600083015261313a81846130e7565b905092915050565b6000819050919050565b61315581613142565b811461316057600080fd5b50565b6000813590506131728161314c565b92915050565b60006020828403121561318e5761318d612fcb565b5b600061319c84828501613163565b91505092915050565b600073ffffffffffffffffffffffffffffffffffffffff82169050919050565b60006131d0826131a5565b9050919050565b6131e0816131c5565b82525050565b60006020820190506131fb60008301846131d7565b92915050565b61320a81613142565b82525050565b60006040820190506132256000830185613201565b6132326020830184613201565b9392505050565b613242816131c5565b811461324d57600080fd5b50565b60008135905061325f81613239565b92915050565b6000806040838503121561327c5761327b612fcb565b5b600061328a85828601613250565b925050602061329b85828601613163565b9150509250929050565b60006020820190506132ba6000830184613201565b92915050565b6000806000606084860312156132d9576132d8612fcb565b5b60006132e786828701613250565b93505060206132f886828701613250565b925050604061330986828701613163565b9150509250925092565b60006020828403121561332957613328612fcb565b5b600061333784828501613250565b91505092915050565b600060e082019050613355600083018a613201565b6133626020830189613201565b61336f6040830188613201565b61337c6060830187613201565b6133896080830186613201565b61339660a0830185613201565b6133a360c08301846131d7565b98975050505050505050565b6133b88161305a565b81146133c357600080fd5b50565b6000813590506133d5816133af565b92915050565b600080604083850312156133f2576133f1612fcb565b5b600061340085828601613250565b9250506020613411858286016133c6565b9150509250929050565b6000806000806080858703121561343557613434612fcb565b5b600061344387828801613163565b945050602061345487828801613163565b935050604061346587828801613163565b925050606061347687828801613163565b91505092959194509250565b600080fd5b600080fd5b7f4e487b7100000000000000000000000000000000000000000000000000000000600052604160045260246000fd5b6134c4826130d6565b810181811067ffffffffffffffff821117156134e3576134e261348c565b5b80604052505050565b60006134f6612fc1565b905061350282826134bb565b919050565b600067ffffffffffffffff8211156135225761352161348c565b5b61352b826130d6565b9050602081019050919050565b82818337600083830152505050565b600061355a61355584613507565b6134ec565b90508281526020810184848401111561357657613575613487565b5b613581848285613538565b509392505050565b600082601f83011261359e5761359d613482565b5b81356135ae848260208601613547565b91505092915050565b600080600080608085870312156135d1576135d0612fcb565b5b60006135df87828801613250565b94505060206135f087828801613250565b935050604061360187828801613163565b925050606085013567ffffffffffffffff81111561362257613621612fd0565b5b61362e87828801613589565b91505092959194509250565b6000806040838503121561365157613650612fcb565b5b600061365f85828601613250565b925050602061367085828601613250565b9150509250929050565b61368381613142565b82525050565b613692816131c5565b82525050565b60e0820160008201516136ae600085018261367a565b5060208201516136c1602085018261367a565b5060408201516136d4604085018261367a565b5060608201516136e7606085018261367a565b5060808201516136fa608085018261367a565b5060a082015161370d60a085018261367a565b5060c082015161372060c0850182613689565b50505050565b600060e08201905061373b6000830184613698565b92915050565b7f4e487b7100000000000000000000000000000000000000000000000000000000600052602260045260246000fd5b6000600282049050600182168061378857607f821691505b60208210810361379b5761379a613741565b5b50919050565b7f4552433732313a20617070726f76616c20746f2063757272656e74206f776e6560008201527f7200000000000000000000000000000000000000000000000000000000000000602082015250565b60006137fd60218361309b565b9150613808826137a1565b604082019050919050565b6000602082019050818103600083015261382c816137f0565b9050919050565b7f4552433732313a20617070726f76652063616c6c6572206973206e6f7420746f60008201527f6b656e206f776e6572206f7220617070726f76656420666f7220616c6c000000602082015250565b600061388f603d8361309b565b915061389a82613833565b604082019050919050565b600060208201905081810360008301526138be81613882565b9050919050565b7f4552433732313a2063616c6c6572206973206e6f7420746f6b656e206f776e6560008201527f72206f7220617070726f76656400000000000000000000000000000000000000602082015250565b6000613921602d8361309b565b915061392c826138c5565b604082019050919050565b6000602082019050818103600083015261395081613914565b9050919050565b7f455243373231456e756d657261626c653a206f776e657220696e646578206f7560008201527f74206f6620626f756e6473000000000000000000000000000000000000000000602082015250565b60006139b3602b8361309b565b91506139be82613957565b604082019050919050565b600060208201905081810360008301526139e2816139a6565b9050919050565b7f455243373231456e756d657261626c653a20676c6f62616c20696e646578206f60008201527f7574206f6620626f756e64730000000000000000000000000000000000000000602082015250565b6000613a45602c8361309b565b9150613a50826139e9565b604082019050919050565b60006020820190508181036000830152613a7481613a38565b9050919050565b7f4e487b7100000000000000000000000000000000000000000000000000000000600052603260045260246000fd5b7f4552433732313a20696e76616c696420746f6b656e2049440000000000000000600082015250565b6000613ae060188361309b565b9150613aeb82613aaa565b602082019050919050565b60006020820190508181036000830152613b0f81613ad3565b9050919050565b7f4552433732313a2061646472657373207a65726f206973206e6f74206120766160008201527f6c6964206f776e65720000000000000000000000000000000000000000000000602082015250565b6000613b7260298361309b565b9150613b7d82613b16565b604082019050919050565b60006020820190508181036000830152613ba181613b65565b9050919050565b7f4f6e6c79206f776e65722063616e2072656d6f7665206c697175696469747900600082015250565b6000613bde601f8361309b565b9150613be982613ba8565b602082019050919050565b60006020820190508181036000830152613c0d81613bd1565b9050919050565b7f4e487b7100000000000000000000000000000000000000000000000000000000600052601160045260246000fd5b6000613c4e82613142565b9150613c5983613142565b9250828203905081811115613c7157613c70613c14565b5b92915050565b6000613c8282613142565b9150613c8d83613142565b9250828201905080821115613ca557613ca4613c14565b5b92915050565b7f416d6f756e7473206d757374206265203e203000000000000000000000000000600082015250565b6000613ce160138361309b565b9150613cec82613cab565b602082019050919050565b60006020820190508181036000830152613d1081613cd4565b9050919050565b7f496e76616c69642070726963652072616e676500000000000000000000000000600082015250565b6000613d4d60138361309b565b9150613d5882613d17565b602082019050919050565b60006020820190508181036000830152613d7c81613d40565b9050919050565b6000613d8e82613142565b91507fffffffffffffffffffffffffffffffffffffffffffffffffffffffffffffffff8203613dc057613dbf613c14565b5b600182019050919050565b600081905092915050565b6000613de182613090565b613deb8185613dcb565b9350613dfb8185602086016130ac565b80840191505092915050565b6000613e138285613dd6565b9150613e1f8284613dd6565b91508190509392505050565b7f496e76616c696420746f6b656e00000000000000000000000000000000000000600082015250565b6000613e61600d8361309b565b9150613e6c82613e2b565b602082019050919050565b60006020820190508181036000830152613e9081613e54565b9050919050565b7f416d6f756e74206d757374206265203e20300000000000000000000000000000600082015250565b6000613ecd60128361309b565b9150613ed882613e97565b602082019050919050565b60006020820190508181036000830152613efc81613ec0565b9050919050565b6000613f0e82613142565b9150613f1983613142565b9250828202613f2781613142565b91508282048414831517613f3e57613f3d613c14565b5b5092915050565b7f4e487b7100000000000000000000000000000000000000000000000000000000600052601260045260246000fd5b6000613f7f82613142565b9150613f8a83613142565b925082613f9a57613f99613f45565b5b828204905092915050565b7f496e73756666696369656e74206c697175696469747900000000000000000000600082015250565b6000613fdb60168361309b565b9150613fe682613fa5565b602082019050919050565b6000602082019050818103600083015261400a81613fce565b9050919050565b600060808201905061402660008301876131d7565b61403360208301866131d7565b6140406040830185613201565b61404d6060830184613201565b95945050505050565b7f4552433732313a207472616e736665722066726f6d20696e636f72726563742060008201527f6f776e6572000000000000000000000000000000000000000000000000000000602082015250565b60006140b260258361309b565b91506140bd82614056565b604082019050919050565b600060208201905081810360008301526140e1816140a5565b9050919050565b7f4552433732313a207472616e7366657220746f20746865207a65726f2061646460008201527f7265737300000000000000000000000000000000000000000000000000000000602082015250565b600061414460248361309b565b915061414f826140e8565b604082019050919050565b6000602082019050818103600083015261417381614137565b9050919050565b600060408201905061418f60008301856131d7565b61419c6020830184613201565b9392505050565b7f4552433732313a20617070726f766520746f2063616c6c657200000000000000600082015250565b60006141d960198361309b565b91506141e4826141a3565b602082019050919050565b60006020820190508181036000830152614208816141cc565b9050919050565b600060608201905061422460008301866131d7565b61423160208301856131d7565b61423e6040830184613201565b949350505050565b7f4552433732313a206d696e7420746f20746865207a65726f2061646472657373600082015250565b600061427c60208361309b565b915061428782614246565b602082019050919050565b600060208201905081810360008301526142ab8161426f565b9050919050565b7f4552433732313a20746f6b656e20616c7265616479206d696e74656400000000600082015250565b60006142e8601c8361309b565b91506142f3826142b2565b602082019050919050565b60006020820190508181036000830152614317816142db565b9050919050565b7f4552433732313a207472616e7366657220746f206e6f6e20455243373231526560008201527f63656976657220696d706c656d656e7465720000000000000000000000000000602082015250565b600061437a60328361309b565b91506143858261431e565b604082019050919050565b600060208201905081810360008301526143a98161436d565b9050919050565b7f455243373231456e756d657261626c653a20636f6e736563757469766520747260008201527f616e7366657273206e6f7420737570706f727465640000000000000000000000602082015250565b600061440c60358361309b565b9150614417826143b0565b604082019050919050565b6000602082019050818103600083015261443b816143ff565b9050919050565b600081519050614451816133af565b92915050565b60006020828403121561446d5761446c612fcb565b5b600061447b84828501614442565b91505092915050565b7f5361666545524332303a204552433230206f7065726174696f6e20646964206e60008201527f6f74207375636365656400000000000000000000000000000000000000000000602082015250565b60006144e0602a8361309b565b91506144eb82614484565b604082019050919050565b6000602082019050818103600083015261450f816144d3565b9050919050565b600081519050919050565b600082825260208201905092915050565b600061453d82614516565b6145478185614521565b93506145578185602086016130ac565b614560816130d6565b840191505092915050565b600060808201905061458060008301876131d7565b61458d60208301866131d7565b61459a6040830185613201565b81810360608301526145ac8184614532565b905095945050505050565b6000815190506145c681613001565b92915050565b6000602082840312156145e2576145e1612fcb565b5b60006145f0848285016145b7565b91505092915050565b7f4e487b7100000000000000000000000000000000000000000000000000000000600052603160045260246000fd5b7f416464726573733a20696e73756666696369656e742062616c616e636520666f60008201527f722063616c6c0000000000000000000000000000000000000000000000000000602082015250565b600061468460268361309b565b915061468f82614628565b604082019050919050565b600060208201905081810360008301526146b381614677565b9050919050565b600081905092915050565b60006146d082614516565b6146da81856146ba565b93506146ea8185602086016130ac565b80840191505092915050565b600061470282846146c5565b915081905092915050565b7f416464726573733a2063616c6c20746f206e6f6e2d636f6e7472616374000000600082015250565b6000614743601d8361309b565b915061474e8261470d565b602082019050919050565b6000602082019050818103600083015261477281614736565b905091905056fea264697066735822122091591b4a1c0ac8cb2a48d1e688b4cf803a7331b9a1daa6873733248816eafa0364736f6c63430008110033","opcodes":"PUSH1 0xE0 PUSH1 0x40 MSTORE CALLVALUE DUP1 ISZERO PUSH3 0x11 JUMPI PUSH1 0x0 DUP1 REVERT JUMPDEST POP PUSH1 0x40 MLOAD PUSH3 0x4DD4 CODESIZE SUB DUP1 PUSH3 0x4DD4 DUP4 CODECOPY DUP2 DUP2 ADD PUSH1 0x40 MSTORE DUP2 ADD SWAP1 PUSH3 0x37 SWAP2 SWAP1 PUSH3 0x1E7 JUMP JUMPDEST PUSH1 0x40 MLOAD DUP1 PUSH1 0x40 ADD PUSH1 0x40 MSTORE DUP1 PUSH1 0x7 DUP2 MSTORE PUSH1 0x20 ADD PUSH32 0x4C50546F6B656E00000000000000000000000000000000000000000000000000 DUP2 MSTORE POP PUSH1 0x40 MLOAD DUP1 PUSH1 0x40 ADD PUSH1 0x40 MSTORE DUP1 PUSH1 0x6 DUP2 MSTORE PUSH1 0x20 ADD PUSH32 0x4C502D4E46540000000000000000000000000000000000000000000000000000 DUP2 MSTORE POP DUP2 PUSH1 0x0 SWAP1 DUP2 PUSH3 0xB4 SWAP2 SWAP1 PUSH3 0x4B3 JUMP JUMPDEST POP DUP1 PUSH1 0x1 SWAP1 DUP2 PUSH3 0xC6 SWAP2 SWAP1 PUSH3 0x4B3 JUMP JUMPDEST POP POP POP DUP3 PUSH20 0xFFFFFFFFFFFFFFFFFFFFFFFFFFFFFFFFFFFFFFFF AND PUSH1 0x80 DUP2 PUSH20 0xFFFFFFFFFFFFFFFFFFFFFFFFFFFFFFFFFFFFFFFF AND DUP2 MSTORE POP POP DUP2 PUSH20 0xFFFFFFFFFFFFFFFFFFFFFFFFFFFFFFFFFFFFFFFF AND PUSH1 0xA0 DUP2 PUSH20 0xFFFFFFFFFFFFFFFFFFFFFFFFFFFFFFFFFFFFFFFF AND DUP2 MSTORE POP POP DUP1 PUSH1 0xC0 DUP2 DUP2 MSTORE POP POP POP POP POP PUSH3 0x59A JUMP JUMPDEST PUSH1 0x0 DUP1 REVERT JUMPDEST PUSH1 0x0 PUSH20 0xFFFFFFFFFFFFFFFFFFFFFFFFFFFFFFFFFFFFFFFF DUP3 AND SWAP1 POP SWAP2 SWAP1 POP JUMP JUMPDEST PUSH1 0x0 PUSH3 0x174 DUP3 PUSH3 0x147 JUMP JUMPDEST SWAP1 POP SWAP2 SWAP1 POP JUMP JUMPDEST PUSH3 0x186 DUP2 PUSH3 0x167 JUMP JUMPDEST DUP2 EQ PUSH3 0x192 JUMPI PUSH1 0x0 DUP1 REVERT JUMPDEST POP JUMP JUMPDEST PUSH1 0x0 DUP2 MLOAD SWAP1 POP PUSH3 0x1A6 DUP2 PUSH3 0x17B JUMP JUMPDEST SWAP3 SWAP2 POP POP JUMP JUMPDEST PUSH1 0x0 DUP2 SWAP1 POP SWAP2 SWAP1 POP JUMP JUMPDEST PUSH3 0x1C1 DUP2 PUSH3 0x1AC JUMP JUMPDEST DUP2 EQ PUSH3 0x1CD JUMPI PUSH1 0x0 DUP1 REVERT JUMPDEST POP JUMP JUMPDEST PUSH1 0x0 DUP2 MLOAD SWAP1 POP PUSH3 0x1E1 DUP2 PUSH3 0x1B6 JUMP JUMPDEST SWAP3 SWAP2 POP POP JUMP JUMPDEST PUSH1 0x0 DUP1 PUSH1 0x0 PUSH1 0x60 DUP5 DUP7 SUB SLT ISZERO PUSH3 0x203 JUMPI PUSH3 0x202 PUSH3 0x142 JUMP JUMPDEST JUMPDEST PUSH1 0x0 PUSH3 0x213 DUP7 DUP3 DUP8 ADD PUSH3 0x195 JUMP JUMPDEST SWAP4 POP POP PUSH1 0x20 PUSH3 0x226 DUP7 DUP3 DUP8 ADD PUSH3 0x195 JUMP JUMPDEST SWAP3 POP POP PUSH1 0x40 PUSH3 0x239 DUP7 DUP3 DUP8 ADD PUSH3 0x1D0 JUMP JUMPDEST SWAP2 POP POP SWAP3 POP SWAP3 POP SWAP3 JUMP JUMPDEST PUSH1 0x0 DUP2 MLOAD SWAP1 POP SWAP2 SWAP1 POP JUMP JUMPDEST PUSH32 0x4E487B7100000000000000000000000000000000000000000000000000000000 PUSH1 0x0 MSTORE PUSH1 0x41 PUSH1 0x4 MSTORE PUSH1 0x24 PUSH1 0x0 REVERT JUMPDEST PUSH32 0x4E487B7100000000000000000000000000000000000000000000000000000000 PUSH1 0x0 MSTORE PUSH1 0x22 PUSH1 0x4 MSTORE PUSH1 0x24 PUSH1 0x0 REVERT JUMPDEST PUSH1 0x0 PUSH1 0x2 DUP3 DIV SWAP1 POP PUSH1 0x1 DUP3 AND DUP1 PUSH3 0x2C5 JUMPI PUSH1 0x7F DUP3 AND SWAP2 POP JUMPDEST PUSH1 0x20 DUP3 LT DUP2 SUB PUSH3 0x2DB JUMPI PUSH3 0x2DA PUSH3 0x27D JUMP JUMPDEST JUMPDEST POP SWAP2 SWAP1 POP JUMP JUMPDEST PUSH1 0x0 DUP2 SWAP1 POP DUP2 PUSH1 0x0 MSTORE PUSH1 0x20 PUSH1 0x0 KECCAK256 SWAP1 POP SWAP2 SWAP1 POP JUMP JUMPDEST PUSH1 0x0 PUSH1 0x20 PUSH1 0x1F DUP4 ADD DIV SWAP1 POP SWAP2 SWAP1 POP JUMP JUMPDEST PUSH1 0x0 DUP3 DUP3 SHL SWAP1 POP SWAP3 SWAP2 POP POP JUMP JUMPDEST PUSH1 0x0 PUSH1 0x8 DUP4 MUL PUSH3 0x345 PUSH32 0xFFFFFFFFFFFFFFFFFFFFFFFFFFFFFFFFFFFFFFFFFFFFFFFFFFFFFFFFFFFFFFFF DUP3 PUSH3 0x306 JUMP JUMPDEST PUSH3 0x351 DUP7 DUP4 PUSH3 0x306 JUMP JUMPDEST SWAP6 POP DUP1 NOT DUP5 AND SWAP4 POP DUP1 DUP7 AND DUP5 OR SWAP3 POP POP POP SWAP4 SWAP3 POP POP POP JUMP JUMPDEST PUSH1 0x0 DUP2 SWAP1 POP SWAP2 SWAP1 POP JUMP JUMPDEST PUSH1 0x0 PUSH3 0x394 PUSH3 0x38E PUSH3 0x388 DUP5 PUSH3 0x1AC JUMP JUMPDEST PUSH3 0x369 JUMP JUMPDEST PUSH3 0x1AC JUMP JUMPDEST SWAP1 POP SWAP2 SWAP1 POP JUMP JUMPDEST PUSH1 0x0 DUP2 SWAP1 POP SWAP2 SWAP1 POP JUMP JUMPDEST PUSH3 0x3B0 DUP4 PUSH3 0x373 JUMP JUMPDEST PUSH3 0x3C8 PUSH3 0x3BF DUP3 PUSH3 0x39B JUMP JUMPDEST DUP5 DUP5 SLOAD PUSH3 0x313 JUMP JUMPDEST DUP3 SSTORE POP POP POP POP JUMP JUMPDEST PUSH1 0x0 SWAP1 JUMP JUMPDEST PUSH3 0x3DF PUSH3 0x3D0 JUMP JUMPDEST PUSH3 0x3EC DUP2 DUP5 DUP5 PUSH3 0x3A5 JUMP JUMPDEST POP POP POP JUMP JUMPDEST JUMPDEST DUP2 DUP2 LT ISZERO PUSH3 0x414 JUMPI PUSH3 0x408 PUSH1 0x0 DUP3 PUSH3 0x3D5 JUMP JUMPDEST PUSH1 0x1 DUP2 ADD SWAP1 POP PUSH3 0x3F2 JUMP JUMPDEST POP POP JUMP JUMPDEST PUSH1 0x1F DUP3 GT ISZERO PUSH3 0x463 JUMPI PUSH3 0x42D DUP2 PUSH3 0x2E1 JUMP JUMPDEST PUSH3 0x438 DUP5 PUSH3 0x2F6 JUMP JUMPDEST DUP2 ADD PUSH1 0x20 DUP6 LT ISZERO PUSH3 0x448 JUMPI DUP2 SWAP1 POP JUMPDEST PUSH3 0x460 PUSH3 0x457 DUP6 PUSH3 0x2F6 JUMP JUMPDEST DUP4 ADD DUP3 PUSH3 0x3F1 JUMP JUMPDEST POP POP JUMPDEST POP POP POP JUMP JUMPDEST PUSH1 0x0 DUP3 DUP3 SHR SWAP1 POP SWAP3 SWAP2 POP POP JUMP JUMPDEST PUSH1 0x0 PUSH3 0x488 PUSH1 0x0 NOT DUP5 PUSH1 0x8 MUL PUSH3 0x468 JUMP JUMPDEST NOT DUP1 DUP4 AND SWAP2 POP POP SWAP3 SWAP2 POP POP JUMP JUMPDEST PUSH1 0x0 PUSH3 0x4A3 DUP4 DUP4 PUSH3 0x475 JUMP JUMPDEST SWAP2 POP DUP3 PUSH1 0x2 MUL DUP3 OR SWAP1 POP SWAP3 SWAP2 POP POP JUMP JUMPDEST PUSH3 0x4BE DUP3 PUSH3 0x243 JUMP JUMPDEST PUSH8 0xFFFFFFFFFFFFFFFF DUP2 GT ISZERO PUSH3 0x4DA JUMPI PUSH3 0x4D9 PUSH3 0x24E JUMP JUMPDEST JUMPDEST PUSH3 0x4E6 DUP3 SLOAD PUSH3 0x2AC JUMP JUMPDEST PUSH3 0x4F3 DUP3 DUP3 DUP6 PUSH3 0x418 JUMP JUMPDEST PUSH1 0x0 PUSH1 0x20 SWAP1 POP PUSH1 0x1F DUP4 GT PUSH1 0x1 DUP2 EQ PUSH3 0x52B JUMPI PUSH1 0x0 DUP5 ISZERO PUSH3 0x516 JUMPI DUP3 DUP8 ADD MLOAD SWAP1 POP JUMPDEST PUSH3 0x522 DUP6 DUP3 PUSH3 0x495 JUMP JUMPDEST DUP7 SSTORE POP PUSH3 0x592 JUMP JUMPDEST PUSH1 0x1F NOT DUP5 AND PUSH3 0x53B DUP7 PUSH3 0x2E1 JUMP JUMPDEST PUSH1 0x0 JUMPDEST DUP3 DUP2 LT ISZERO PUSH3 0x565 JUMPI DUP5 DUP10 ADD MLOAD DUP3 SSTORE PUSH1 0x1 DUP3 ADD SWAP2 POP PUSH1 0x20 DUP6 ADD SWAP5 POP PUSH1 0x20 DUP2 ADD SWAP1 POP PUSH3 0x53E JUMP JUMPDEST DUP7 DUP4 LT ISZERO PUSH3 0x585 JUMPI DUP5 DUP10 ADD MLOAD PUSH3 0x581 PUSH1 0x1F DUP10 AND DUP3 PUSH3 0x475 JUMP JUMPDEST DUP4 SSTORE POP JUMPDEST PUSH1 0x1 PUSH1 0x2 DUP9 MUL ADD DUP9 SSTORE POP POP POP JUMPDEST POP POP POP POP POP POP JUMP JUMPDEST PUSH1 0x80 MLOAD PUSH1 0xA0 MLOAD PUSH1 0xC0 MLOAD PUSH2 0x47AF PUSH3 0x625 PUSH1 0x0 CODECOPY PUSH1 0x0 PUSH2 0xBA1 ADD MSTORE PUSH1 0x0 DUP2 DUP2 PUSH2 0xD83 ADD MSTORE DUP2 DUP2 PUSH2 0xF12 ADD MSTORE DUP2 DUP2 PUSH2 0x120B ADD MSTORE DUP2 DUP2 PUSH2 0x13C6 ADD MSTORE DUP2 DUP2 PUSH2 0x1497 ADD MSTORE DUP2 DUP2 PUSH2 0x161E ADD MSTORE PUSH2 0x1680 ADD MSTORE PUSH1 0x0 DUP2 DUP2 PUSH2 0x7FF ADD MSTORE DUP2 DUP2 PUSH2 0xD25 ADD MSTORE DUP2 DUP2 PUSH2 0xEC5 ADD MSTORE DUP2 DUP2 PUSH2 0x11B6 ADD MSTORE DUP2 DUP2 PUSH2 0x12DD ADD MSTORE DUP2 DUP2 PUSH2 0x1476 ADD MSTORE DUP2 DUP2 PUSH2 0x156E ADD MSTORE PUSH2 0x163F ADD MSTORE PUSH2 0x47AF PUSH1 0x0 RETURN INVALID PUSH1 0x80 PUSH1 0x40 MSTORE CALLVALUE DUP1 ISZERO PUSH2 0x10 JUMPI PUSH1 0x0 DUP1 REVERT JUMPDEST POP PUSH1 0x4 CALLDATASIZE LT PUSH2 0x1A9 JUMPI PUSH1 0x0 CALLDATALOAD PUSH1 0xE0 SHR DUP1 PUSH4 0x6352211E GT PUSH2 0xF9 JUMPI DUP1 PUSH4 0xAEBF3E41 GT PUSH2 0x97 JUMPI DUP1 PUSH4 0xD004F0F7 GT PUSH2 0x71 JUMPI DUP1 PUSH4 0xD004F0F7 EQ PUSH2 0x4E9 JUMPI DUP1 PUSH4 0xD21220A7 EQ PUSH2 0x505 JUMPI DUP1 PUSH4 0xE985E9C5 EQ PUSH2 0x523 JUMPI DUP1 PUSH4 0xEB02C301 EQ PUSH2 0x553 JUMPI PUSH2 0x1A9 JUMP JUMPDEST DUP1 PUSH4 0xAEBF3E41 EQ PUSH2 0x481 JUMPI DUP1 PUSH4 0xB88D4FDE EQ PUSH2 0x49D JUMPI DUP1 PUSH4 0xC87B56DD EQ PUSH2 0x4B9 JUMPI PUSH2 0x1A9 JUMP JUMPDEST DUP1 PUSH4 0x978BBDB9 GT PUSH2 0xD3 JUMPI DUP1 PUSH4 0x978BBDB9 EQ PUSH2 0x3F5 JUMPI DUP1 PUSH4 0x99FBAB88 EQ PUSH2 0x413 JUMPI DUP1 PUSH4 0x9C8F9F23 EQ PUSH2 0x449 JUMPI DUP1 PUSH4 0xA22CB465 EQ PUSH2 0x465 JUMPI PUSH2 0x1A9 JUMP JUMPDEST DUP1 PUSH4 0x6352211E EQ PUSH2 0x377 JUMPI DUP1 PUSH4 0x70A08231 EQ PUSH2 0x3A7 JUMPI DUP1 PUSH4 0x95D89B41 EQ PUSH2 0x3D7 JUMPI PUSH2 0x1A9 JUMP JUMPDEST DUP1 PUSH4 0x18160DDD GT PUSH2 0x166 JUMPI DUP1 PUSH4 0x42842E0E GT PUSH2 0x140 JUMPI DUP1 PUSH4 0x42842E0E EQ PUSH2 0x2EF JUMPI DUP1 PUSH4 0x443CB4BC EQ PUSH2 0x30B JUMPI DUP1 PUSH4 0x4F6CCCE7 EQ PUSH2 0x329 JUMPI DUP1 PUSH4 0x5A76F25E EQ PUSH2 0x359 JUMPI PUSH2 0x1A9 JUMP JUMPDEST DUP1 PUSH4 0x18160DDD EQ PUSH2 0x285 JUMPI DUP1 PUSH4 0x23B872DD EQ PUSH2 0x2A3 JUMPI DUP1 PUSH4 0x2F745C59 EQ PUSH2 0x2BF JUMPI PUSH2 0x1A9 JUMP JUMPDEST DUP1 PUSH4 0x1FFC9A7 EQ PUSH2 0x1AE JUMPI DUP1 PUSH4 0x6FDDE03 EQ PUSH2 0x1DE JUMPI DUP1 PUSH4 0x81812FC EQ PUSH2 0x1FC JUMPI DUP1 PUSH4 0x902F1AC EQ PUSH2 0x22C JUMPI DUP1 PUSH4 0x95EA7B3 EQ PUSH2 0x24B JUMPI DUP1 PUSH4 0xDFE1681 EQ PUSH2 0x267 JUMPI JUMPDEST PUSH1 0x0 DUP1 REVERT JUMPDEST PUSH2 0x1C8 PUSH1 0x4 DUP1 CALLDATASIZE SUB DUP2 ADD SWAP1 PUSH2 0x1C3 SWAP2 SWAP1 PUSH2 0x302D JUMP JUMPDEST PUSH2 0x583 JUMP JUMPDEST PUSH1 0x40 MLOAD PUSH2 0x1D5 SWAP2 SWAP1 PUSH2 0x3075 JUMP JUMPDEST PUSH1 0x40 MLOAD DUP1 SWAP2 SUB SWAP1 RETURN JUMPDEST PUSH2 0x1E6 PUSH2 0x5FD JUMP JUMPDEST PUSH1 0x40 MLOAD PUSH2 0x1F3 SWAP2 SWAP1 PUSH2 0x3120 JUMP JUMPDEST PUSH1 0x40 MLOAD DUP1 SWAP2 SUB SWAP1 RETURN JUMPDEST PUSH2 0x216 PUSH1 0x4 DUP1 CALLDATASIZE SUB DUP2 ADD SWAP1 PUSH2 0x211 SWAP2 SWAP1 PUSH2 0x3178 JUMP JUMPDEST PUSH2 0x68F JUMP JUMPDEST PUSH1 0x40 MLOAD PUSH2 0x223 SWAP2 SWAP1 PUSH2 0x31E6 JUMP JUMPDEST PUSH1 0x40 MLOAD DUP1 SWAP2 SUB SWAP1 RETURN JUMPDEST PUSH2 0x234 PUSH2 0x6D5 JUMP JUMPDEST PUSH1 0x40 MLOAD PUSH2 0x242 SWAP3 SWAP2 SWAP1 PUSH2 0x3210 JUMP JUMPDEST PUSH1 0x40 MLOAD DUP1 SWAP2 SUB SWAP1 RETURN JUMPDEST PUSH2 0x265 PUSH1 0x4 DUP1 CALLDATASIZE SUB DUP2 ADD SWAP1 PUSH2 0x260 SWAP2 SWAP1 PUSH2 0x3265 JUMP JUMPDEST PUSH2 0x6E6 JUMP JUMPDEST STOP JUMPDEST PUSH2 0x26F PUSH2 0x7FD JUMP JUMPDEST PUSH1 0x40 MLOAD PUSH2 0x27C SWAP2 SWAP1 PUSH2 0x31E6 JUMP JUMPDEST PUSH1 0x40 MLOAD DUP1 SWAP2 SUB SWAP1 RETURN JUMPDEST PUSH2 0x28D PUSH2 0x821 JUMP JUMPDEST PUSH1 0x40 MLOAD PUSH2 0x29A SWAP2 SWAP1 PUSH2 0x32A5 JUMP JUMPDEST PUSH1 0x40 MLOAD DUP1 SWAP2 SUB SWAP1 RETURN JUMPDEST PUSH2 0x2BD PUSH1 0x4 DUP1 CALLDATASIZE SUB DUP2 ADD SWAP1 PUSH2 0x2B8 SWAP2 SWAP1 PUSH2 0x32C0 JUMP JUMPDEST PUSH2 0x82E JUMP JUMPDEST STOP JUMPDEST PUSH2 0x2D9 PUSH1 0x4 DUP1 CALLDATASIZE SUB DUP2 ADD SWAP1 PUSH2 0x2D4 SWAP2 SWAP1 PUSH2 0x3265 JUMP JUMPDEST PUSH2 0x88E JUMP JUMPDEST PUSH1 0x40 MLOAD PUSH2 0x2E6 SWAP2 SWAP1 PUSH2 0x32A5 JUMP JUMPDEST PUSH1 0x40 MLOAD DUP1 SWAP2 SUB SWAP1 RETURN JUMPDEST PUSH2 0x309 PUSH1 0x4 DUP1 CALLDATASIZE SUB DUP2 ADD SWAP1 PUSH2 0x304 SWAP2 SWAP1 PUSH2 0x32C0 JUMP JUMPDEST PUSH2 0x933 JUMP JUMPDEST STOP JUMPDEST PUSH2 0x313 PUSH2 0x953 JUMP JUMPDEST PUSH1 0x40 MLOAD PUSH2 0x320 SWAP2 SWAP1 PUSH2 0x32A5 JUMP JUMPDEST PUSH1 0x40 MLOAD DUP1 SWAP2 SUB SWAP1 RETURN JUMPDEST PUSH2 0x343 PUSH1 0x4 DUP1 CALLDATASIZE SUB DUP2 ADD SWAP1 PUSH2 0x33E SWAP2 SWAP1 PUSH2 0x3178 JUMP JUMPDEST PUSH2 0x959 JUMP JUMPDEST PUSH1 0x40 MLOAD PUSH2 0x350 SWAP2 SWAP1 PUSH2 0x32A5 JUMP JUMPDEST PUSH1 0x40 MLOAD DUP1 SWAP2 SUB SWAP1 RETURN JUMPDEST PUSH2 0x361 PUSH2 0x9CA JUMP JUMPDEST PUSH1 0x40 MLOAD PUSH2 0x36E SWAP2 SWAP1 PUSH2 0x32A5 JUMP JUMPDEST PUSH1 0x40 MLOAD DUP1 SWAP2 SUB SWAP1 RETURN JUMPDEST PUSH2 0x391 PUSH1 0x4 DUP1 CALLDATASIZE SUB DUP2 ADD SWAP1 PUSH2 0x38C SWAP2 SWAP1 PUSH2 0x3178 JUMP JUMPDEST PUSH2 0x9D0 JUMP JUMPDEST PUSH1 0x40 MLOAD PUSH2 0x39E SWAP2 SWAP1 PUSH2 0x31E6 JUMP JUMPDEST PUSH1 0x40 MLOAD DUP1 SWAP2 SUB SWAP1 RETURN JUMPDEST PUSH2 0x3C1 PUSH1 0x4 DUP1 CALLDATASIZE SUB DUP2 ADD SWAP1 PUSH2 0x3BC SWAP2 SWAP1 PUSH2 0x3313 JUMP JUMPDEST PUSH2 0xA56 JUMP JUMPDEST PUSH1 0x40 MLOAD PUSH2 0x3CE SWAP2 SWAP1 PUSH2 0x32A5 JUMP JUMPDEST PUSH1 0x40 MLOAD DUP1 SWAP2 SUB SWAP1 RETURN JUMPDEST PUSH2 0x3DF PUSH2 0xB0D JUMP JUMPDEST PUSH1 0x40 MLOAD PUSH2 0x3EC SWAP2 SWAP1 PUSH2 0x3120 JUMP JUMPDEST PUSH1 0x40 MLOAD DUP1 SWAP2 SUB SWAP1 RETURN JUMPDEST PUSH2 0x3FD PUSH2 0xB9F JUMP JUMPDEST PUSH1 0x40 MLOAD PUSH2 0x40A SWAP2 SWAP1 PUSH2 0x32A5 JUMP JUMPDEST PUSH1 0x40 MLOAD DUP1 SWAP2 SUB SWAP1 RETURN JUMPDEST PUSH2 0x42D PUSH1 0x4 DUP1 CALLDATASIZE SUB DUP2 ADD SWAP1 PUSH2 0x428 SWAP2 SWAP1 PUSH2 0x3178 JUMP JUMPDEST PUSH2 0xBC3 JUMP JUMPDEST PUSH1 0x40 MLOAD PUSH2 0x440 SWAP8 SWAP7 SWAP6 SWAP5 SWAP4 SWAP3 SWAP2 SWAP1 PUSH2 0x3340 JUMP JUMPDEST PUSH1 0x40 MLOAD DUP1 SWAP2 SUB SWAP1 RETURN JUMPDEST PUSH2 0x463 PUSH1 0x4 DUP1 CALLDATASIZE SUB DUP2 ADD SWAP1 PUSH2 0x45E SWAP2 SWAP1 PUSH2 0x3178 JUMP JUMPDEST PUSH2 0xC35 JUMP JUMPDEST STOP JUMPDEST PUSH2 0x47F PUSH1 0x4 DUP1 CALLDATASIZE SUB DUP2 ADD SWAP1 PUSH2 0x47A SWAP2 SWAP1 PUSH2 0x33DB JUMP JUMPDEST PUSH2 0xE16 JUMP JUMPDEST STOP JUMPDEST PUSH2 0x49B PUSH1 0x4 DUP1 CALLDATASIZE SUB DUP2 ADD SWAP1 PUSH2 0x496 SWAP2 SWAP1 PUSH2 0x341B JUMP JUMPDEST PUSH2 0xE2C JUMP JUMPDEST STOP JUMPDEST PUSH2 0x4B7 PUSH1 0x4 DUP1 CALLDATASIZE SUB DUP2 ADD SWAP1 PUSH2 0x4B2 SWAP2 SWAP1 PUSH2 0x35B7 JUMP JUMPDEST PUSH2 0x10EA JUMP JUMPDEST STOP JUMPDEST PUSH2 0x4D3 PUSH1 0x4 DUP1 CALLDATASIZE SUB DUP2 ADD SWAP1 PUSH2 0x4CE SWAP2 SWAP1 PUSH2 0x3178 JUMP JUMPDEST PUSH2 0x114C JUMP JUMPDEST PUSH1 0x40 MLOAD PUSH2 0x4E0 SWAP2 SWAP1 PUSH2 0x3120 JUMP JUMPDEST PUSH1 0x40 MLOAD DUP1 SWAP2 SUB SWAP1 RETURN JUMPDEST PUSH2 0x503 PUSH1 0x4 DUP1 CALLDATASIZE SUB DUP2 ADD SWAP1 PUSH2 0x4FE SWAP2 SWAP1 PUSH2 0x3265 JUMP JUMPDEST PUSH2 0x11B4 JUMP JUMPDEST STOP JUMPDEST PUSH2 0x50D PUSH2 0x167E JUMP JUMPDEST PUSH1 0x40 MLOAD PUSH2 0x51A SWAP2 SWAP1 PUSH2 0x31E6 JUMP JUMPDEST PUSH1 0x40 MLOAD DUP1 SWAP2 SUB SWAP1 RETURN JUMPDEST PUSH2 0x53D PUSH1 0x4 DUP1 CALLDATASIZE SUB DUP2 ADD SWAP1 PUSH2 0x538 SWAP2 SWAP1 PUSH2 0x363A JUMP JUMPDEST PUSH2 0x16A2 JUMP JUMPDEST PUSH1 0x40 MLOAD PUSH2 0x54A SWAP2 SWAP1 PUSH2 0x3075 JUMP JUMPDEST PUSH1 0x40 MLOAD DUP1 SWAP2 SUB SWAP1 RETURN JUMPDEST PUSH2 0x56D PUSH1 0x4 DUP1 CALLDATASIZE SUB DUP2 ADD SWAP1 PUSH2 0x568 SWAP2 SWAP1 PUSH2 0x3178 JUMP JUMPDEST PUSH2 0x1736 JUMP JUMPDEST PUSH1 0x40 MLOAD PUSH2 0x57A SWAP2 SWAP1 PUSH2 0x3726 JUMP JUMPDEST PUSH1 0x40 MLOAD DUP1 SWAP2 SUB SWAP1 RETURN JUMPDEST PUSH1 0x0 PUSH32 0x780E9D6300000000000000000000000000000000000000000000000000000000 PUSH28 0xFFFFFFFFFFFFFFFFFFFFFFFFFFFFFFFFFFFFFFFFFFFFFFFFFFFFFFFF NOT AND DUP3 PUSH28 0xFFFFFFFFFFFFFFFFFFFFFFFFFFFFFFFFFFFFFFFFFFFFFFFFFFFFFFFF NOT AND EQ DUP1 PUSH2 0x5F6 JUMPI POP PUSH2 0x5F5 DUP3 PUSH2 0x1804 JUMP JUMPDEST JUMPDEST SWAP1 POP SWAP2 SWAP1 POP JUMP JUMPDEST PUSH1 0x60 PUSH1 0x0 DUP1 SLOAD PUSH2 0x60C SWAP1 PUSH2 0x3770 JUMP JUMPDEST DUP1 PUSH1 0x1F ADD PUSH1 0x20 DUP1 SWAP2 DIV MUL PUSH1 0x20 ADD PUSH1 0x40 MLOAD SWAP1 DUP2 ADD PUSH1 0x40 MSTORE DUP1 SWAP3 SWAP2 SWAP1 DUP2 DUP2 MSTORE PUSH1 0x20 ADD DUP3 DUP1 SLOAD PUSH2 0x638 SWAP1 PUSH2 0x3770 JUMP JUMPDEST DUP1 ISZERO PUSH2 0x685 JUMPI DUP1 PUSH1 0x1F LT PUSH2 0x65A JUMPI PUSH2 0x100 DUP1 DUP4 SLOAD DIV MUL DUP4 MSTORE SWAP2 PUSH1 0x20 ADD SWAP2 PUSH2 0x685 JUMP JUMPDEST DUP3 ADD SWAP2 SWAP1 PUSH1 0x0 MSTORE PUSH1 0x20 PUSH1 0x0 KECCAK256 SWAP1 JUMPDEST DUP2 SLOAD DUP2 MSTORE SWAP1 PUSH1 0x1 ADD SWAP1 PUSH1 0x20 ADD DUP1 DUP4 GT PUSH2 0x668 JUMPI DUP3 SWAP1 SUB PUSH1 0x1F AND DUP3 ADD SWAP2 JUMPDEST POP POP POP POP POP SWAP1 POP SWAP1 JUMP JUMPDEST PUSH1 0x0 PUSH2 0x69A DUP3 PUSH2 0x18E6 JUMP JUMPDEST PUSH1 0x4 PUSH1 0x0 DUP4 DUP2 MSTORE PUSH1 0x20 ADD SWAP1 DUP2 MSTORE PUSH1 0x20 ADD PUSH1 0x0 KECCAK256 PUSH1 0x0 SWAP1 SLOAD SWAP1 PUSH2 0x100 EXP SWAP1 DIV PUSH20 0xFFFFFFFFFFFFFFFFFFFFFFFFFFFFFFFFFFFFFFFF AND SWAP1 POP SWAP2 SWAP1 POP JUMP JUMPDEST PUSH1 0x0 DUP1 PUSH1 0xA SLOAD PUSH1 0xB SLOAD SWAP2 POP SWAP2 POP SWAP1 SWAP2 JUMP JUMPDEST PUSH1 0x0 PUSH2 0x6F1 DUP3 PUSH2 0x9D0 JUMP JUMPDEST SWAP1 POP DUP1 PUSH20 0xFFFFFFFFFFFFFFFFFFFFFFFFFFFFFFFFFFFFFFFF AND DUP4 PUSH20 0xFFFFFFFFFFFFFFFFFFFFFFFFFFFFFFFFFFFFFFFF AND SUB PUSH2 0x761 JUMPI PUSH1 0x40 MLOAD PUSH32 0x8C379A000000000000000000000000000000000000000000000000000000000 DUP2 MSTORE PUSH1 0x4 ADD PUSH2 0x758 SWAP1 PUSH2 0x3813 JUMP JUMPDEST PUSH1 0x40 MLOAD DUP1 SWAP2 SUB SWAP1 REVERT JUMPDEST DUP1 PUSH20 0xFFFFFFFFFFFFFFFFFFFFFFFFFFFFFFFFFFFFFFFF AND PUSH2 0x780 PUSH2 0x1931 JUMP JUMPDEST PUSH20 0xFFFFFFFFFFFFFFFFFFFFFFFFFFFFFFFFFFFFFFFF AND EQ DUP1 PUSH2 0x7AF JUMPI POP PUSH2 0x7AE DUP2 PUSH2 0x7A9 PUSH2 0x1931 JUMP JUMPDEST PUSH2 0x16A2 JUMP JUMPDEST JUMPDEST PUSH2 0x7EE JUMPI PUSH1 0x40 MLOAD PUSH32 0x8C379A000000000000000000000000000000000000000000000000000000000 DUP2 MSTORE PUSH1 0x4 ADD PUSH2 0x7E5 SWAP1 PUSH2 0x38A5 JUMP JUMPDEST PUSH1 0x40 MLOAD DUP1 SWAP2 SUB SWAP1 REVERT JUMPDEST PUSH2 0x7F8 DUP4 DUP4 PUSH2 0x1939 JUMP JUMPDEST POP POP POP JUMP JUMPDEST PUSH32 0x0 DUP2 JUMP JUMPDEST PUSH1 0x0 PUSH1 0x8 DUP1 SLOAD SWAP1 POP SWAP1 POP SWAP1 JUMP JUMPDEST PUSH2 0x83F PUSH2 0x839 PUSH2 0x1931 JUMP JUMPDEST DUP3 PUSH2 0x19F2 JUMP JUMPDEST PUSH2 0x87E JUMPI PUSH1 0x40 MLOAD PUSH32 0x8C379A000000000000000000000000000000000000000000000000000000000 DUP2 MSTORE PUSH1 0x4 ADD PUSH2 0x875 SWAP1 PUSH2 0x3937 JUMP JUMPDEST PUSH1 0x40 MLOAD DUP1 SWAP2 SUB SWAP1 REVERT JUMPDEST PUSH2 0x889 DUP4 DUP4 DUP4 PUSH2 0x1A87 JUMP JUMPDEST POP POP POP JUMP JUMPDEST PUSH1 0x0 PUSH2 0x899 DUP4 PUSH2 0xA56 JUMP JUMPDEST DUP3 LT PUSH2 0x8DA JUMPI PUSH1 0x40 MLOAD PUSH32 0x8C379A000000000000000000000000000000000000000000000000000000000 DUP2 MSTORE PUSH1 0x4 ADD PUSH2 0x8D1 SWAP1 PUSH2 0x39C9 JUMP JUMPDEST PUSH1 0x40 MLOAD DUP1 SWAP2 SUB SWAP1 REVERT JUMPDEST PUSH1 0x6 PUSH1 0x0 DUP5 PUSH20 0xFFFFFFFFFFFFFFFFFFFFFFFFFFFFFFFFFFFFFFFF AND PUSH20 0xFFFFFFFFFFFFFFFFFFFFFFFFFFFFFFFFFFFFFFFF AND DUP2 MSTORE PUSH1 0x20 ADD SWAP1 DUP2 MSTORE PUSH1 0x20 ADD PUSH1 0x0 KECCAK256 PUSH1 0x0 DUP4 DUP2 MSTORE PUSH1 0x20 ADD SWAP1 DUP2 MSTORE PUSH1 0x20 ADD PUSH1 0x0 KECCAK256 SLOAD SWAP1 POP SWAP3 SWAP2 POP POP JUMP JUMPDEST PUSH2 0x94E DUP4 DUP4 DUP4 PUSH1 0x40 MLOAD DUP1 PUSH1 0x20 ADD PUSH1 0x40 MSTORE DUP1 PUSH1 0x0 DUP2 MSTORE POP PUSH2 0x10EA JUMP JUMPDEST POP POP POP JUMP JUMPDEST PUSH1 0xA SLOAD DUP2 JUMP JUMPDEST PUSH1 0x0 PUSH2 0x963 PUSH2 0x821 JUMP JUMPDEST DUP3 LT PUSH2 0x9A4 JUMPI PUSH1 0x40 MLOAD PUSH32 0x8C379A000000000000000000000000000000000000000000000000000000000 DUP2 MSTORE PUSH1 0x4 ADD PUSH2 0x99B SWAP1 PUSH2 0x3A5B JUMP JUMPDEST PUSH1 0x40 MLOAD DUP1 SWAP2 SUB SWAP1 REVERT JUMPDEST PUSH1 0x8 DUP3 DUP2 SLOAD DUP2 LT PUSH2 0x9B8 JUMPI PUSH2 0x9B7 PUSH2 0x3A7B JUMP JUMPDEST JUMPDEST SWAP1 PUSH1 0x0 MSTORE PUSH1 0x20 PUSH1 0x0 KECCAK256 ADD SLOAD SWAP1 POP SWAP2 SWAP1 POP JUMP JUMPDEST PUSH1 0xB SLOAD DUP2 JUMP JUMPDEST PUSH1 0x0 DUP1 PUSH2 0x9DC DUP4 PUSH2 0x1D80 JUMP JUMPDEST SWAP1 POP PUSH1 0x0 PUSH20 0xFFFFFFFFFFFFFFFFFFFFFFFFFFFFFFFFFFFFFFFF AND DUP2 PUSH20 0xFFFFFFFFFFFFFFFFFFFFFFFFFFFFFFFFFFFFFFFF AND SUB PUSH2 0xA4D JUMPI PUSH1 0x40 MLOAD PUSH32 0x8C379A000000000000000000000000000000000000000000000000000000000 DUP2 MSTORE PUSH1 0x4 ADD PUSH2 0xA44 SWAP1 PUSH2 0x3AF6 JUMP JUMPDEST PUSH1 0x40 MLOAD DUP1 SWAP2 SUB SWAP1 REVERT JUMPDEST DUP1 SWAP2 POP POP SWAP2 SWAP1 POP JUMP JUMPDEST PUSH1 0x0 DUP1 PUSH20 0xFFFFFFFFFFFFFFFFFFFFFFFFFFFFFFFFFFFFFFFF AND DUP3 PUSH20 0xFFFFFFFFFFFFFFFFFFFFFFFFFFFFFFFFFFFFFFFF AND SUB PUSH2 0xAC6 JUMPI PUSH1 0x40 MLOAD PUSH32 0x8C379A000000000000000000000000000000000000000000000000000000000 DUP2 MSTORE PUSH1 0x4 ADD PUSH2 0xABD SWAP1 PUSH2 0x3B88 JUMP JUMPDEST PUSH1 0x40 MLOAD DUP1 SWAP2 SUB SWAP1 REVERT JUMPDEST PUSH1 0x3 PUSH1 0x0 DUP4 PUSH20 0xFFFFFFFFFFFFFFFFFFFFFFFFFFFFFFFFFFFFFFFF AND PUSH20 0xFFFFFFFFFFFFFFFFFFFFFFFFFFFFFFFFFFFFFFFF AND DUP2 MSTORE PUSH1 0x20 ADD SWAP1 DUP2 MSTORE PUSH1 0x20 ADD PUSH1 0x0 KECCAK256 SLOAD SWAP1 POP SWAP2 SWAP1 POP JUMP JUMPDEST PUSH1 0x60 PUSH1 0x1 DUP1 SLOAD PUSH2 0xB1C SWAP1 PUSH2 0x3770 JUMP JUMPDEST DUP1 PUSH1 0x1F ADD PUSH1 0x20 DUP1 SWAP2 DIV MUL PUSH1 0x20 ADD PUSH1 0x40 MLOAD SWAP1 DUP2 ADD PUSH1 0x40 MSTORE DUP1 SWAP3 SWAP2 SWAP1 DUP2 DUP2 MSTORE PUSH1 0x20 ADD DUP3 DUP1 SLOAD PUSH2 0xB48 SWAP1 PUSH2 0x3770 JUMP JUMPDEST DUP1 ISZERO PUSH2 0xB95 JUMPI DUP1 PUSH1 0x1F LT PUSH2 0xB6A JUMPI PUSH2 0x100 DUP1 DUP4 SLOAD DIV MUL DUP4 MSTORE SWAP2 PUSH1 0x20 ADD SWAP2 PUSH2 0xB95 JUMP JUMPDEST DUP3 ADD SWAP2 SWAP1 PUSH1 0x0 MSTORE PUSH1 0x20 PUSH1 0x0 KECCAK256 SWAP1 JUMPDEST DUP2 SLOAD DUP2 MSTORE SWAP1 PUSH1 0x1 ADD SWAP1 PUSH1 0x20 ADD DUP1 DUP4 GT PUSH2 0xB78 JUMPI DUP3 SWAP1 SUB PUSH1 0x1F AND DUP3 ADD SWAP2 JUMPDEST POP POP POP POP POP SWAP1 POP SWAP1 JUMP JUMPDEST PUSH32 0x0 DUP2 JUMP JUMPDEST PUSH1 0xC DUP2 DUP2 SLOAD DUP2 LT PUSH2 0xBD3 JUMPI PUSH1 0x0 DUP1 REVERT JUMPDEST SWAP1 PUSH1 0x0 MSTORE PUSH1 0x20 PUSH1 0x0 KECCAK256 SWAP1 PUSH1 0x7 MUL ADD PUSH1 0x0 SWAP2 POP SWAP1 POP DUP1 PUSH1 0x0 ADD SLOAD SWAP1 DUP1 PUSH1 0x1 ADD SLOAD SWAP1 DUP1 PUSH1 0x2 ADD SLOAD SWAP1 DUP1 PUSH1 0x3 ADD SLOAD SWAP1 DUP1 PUSH1 0x4 ADD SLOAD SWAP1 DUP1 PUSH1 0x5 ADD SLOAD SWAP1 DUP1 PUSH1 0x6 ADD PUSH1 0x0 SWAP1 SLOAD SWAP1 PUSH2 0x100 EXP SWAP1 DIV PUSH20 0xFFFFFFFFFFFFFFFFFFFFFFFFFFFFFFFFFFFFFFFF AND SWAP1 POP DUP8 JUMP JUMPDEST CALLER PUSH20 0xFFFFFFFFFFFFFFFFFFFFFFFFFFFFFFFFFFFFFFFF AND PUSH2 0xC55 DUP3 PUSH2 0x9D0 JUMP JUMPDEST PUSH20 0xFFFFFFFFFFFFFFFFFFFFFFFFFFFFFFFFFFFFFFFF AND EQ PUSH2 0xCAB JUMPI PUSH1 0x40 MLOAD PUSH32 0x8C379A000000000000000000000000000000000000000000000000000000000 DUP2 MSTORE PUSH1 0x4 ADD PUSH2 0xCA2 SWAP1 PUSH2 0x3BF4 JUMP JUMPDEST PUSH1 0x40 MLOAD DUP1 SWAP2 SUB SWAP1 REVERT JUMPDEST PUSH1 0x0 PUSH1 0xC DUP3 DUP2 SLOAD DUP2 LT PUSH2 0xCC1 JUMPI PUSH2 0xCC0 PUSH2 0x3A7B JUMP JUMPDEST JUMPDEST SWAP1 PUSH1 0x0 MSTORE PUSH1 0x20 PUSH1 0x0 KECCAK256 SWAP1 PUSH1 0x7 MUL ADD SWAP1 POP DUP1 PUSH1 0x2 ADD SLOAD PUSH1 0xA PUSH1 0x0 DUP3 DUP3 SLOAD PUSH2 0xCE7 SWAP2 SWAP1 PUSH2 0x3C43 JUMP JUMPDEST SWAP3 POP POP DUP2 SWAP1 SSTORE POP DUP1 PUSH1 0x3 ADD SLOAD PUSH1 0xB PUSH1 0x0 DUP3 DUP3 SLOAD PUSH2 0xD04 SWAP2 SWAP1 PUSH2 0x3C43 JUMP JUMPDEST SWAP3 POP POP DUP2 SWAP1 SSTORE POP PUSH2 0xD69 CALLER DUP3 PUSH1 0x4 ADD SLOAD DUP4 PUSH1 0x2 ADD SLOAD PUSH2 0xD23 SWAP2 SWAP1 PUSH2 0x3C77 JUMP JUMPDEST PUSH32 0x0 PUSH20 0xFFFFFFFFFFFFFFFFFFFFFFFFFFFFFFFFFFFFFFFF AND PUSH2 0x1DBD SWAP1 SWAP3 SWAP2 SWAP1 PUSH4 0xFFFFFFFF AND JUMP JUMPDEST PUSH2 0xDC7 CALLER DUP3 PUSH1 0x5 ADD SLOAD DUP4 PUSH1 0x3 ADD SLOAD PUSH2 0xD81 SWAP2 SWAP1 PUSH2 0x3C77 JUMP JUMPDEST PUSH32 0x0 PUSH20 0xFFFFFFFFFFFFFFFFFFFFFFFFFFFFFFFFFFFFFFFF AND PUSH2 0x1DBD SWAP1 SWAP3 SWAP2 SWAP1 PUSH4 0xFFFFFFFF AND JUMP JUMPDEST PUSH2 0xDD0 DUP3 PUSH2 0x1E43 JUMP JUMPDEST DUP2 PUSH32 0xBB89AA54ED6940A7E7167BD262B2400D63945045CEFF1A52A05F2601ED215F1 DUP3 PUSH1 0x2 ADD SLOAD DUP4 PUSH1 0x3 ADD SLOAD PUSH1 0x40 MLOAD PUSH2 0xE0A SWAP3 SWAP2 SWAP1 PUSH2 0x3210 JUMP JUMPDEST PUSH1 0x40 MLOAD DUP1 SWAP2 SUB SWAP1 LOG2 POP POP JUMP JUMPDEST PUSH2 0xE28 PUSH2 0xE21 PUSH2 0x1931 JUMP JUMPDEST DUP4 DUP4 PUSH2 0x1F91 JUMP JUMPDEST POP POP JUMP JUMPDEST PUSH1 0x0 DUP5 GT DUP1 ISZERO PUSH2 0xE3C JUMPI POP PUSH1 0x0 DUP4 GT JUMPDEST PUSH2 0xE7B JUMPI PUSH1 0x40 MLOAD PUSH32 0x8C379A000000000000000000000000000000000000000000000000000000000 DUP2 MSTORE PUSH1 0x4 ADD PUSH2 0xE72 SWAP1 PUSH2 0x3CF7 JUMP JUMPDEST PUSH1 0x40 MLOAD DUP1 SWAP2 SUB SWAP1 REVERT JUMPDEST DUP1 DUP3 LT PUSH2 0xEBD JUMPI PUSH1 0x40 MLOAD PUSH32 0x8C379A000000000000000000000000000000000000000000000000000000000 DUP2 MSTORE PUSH1 0x4 ADD PUSH2 0xEB4 SWAP1 PUSH2 0x3D63 JUMP JUMPDEST PUSH1 0x40 MLOAD DUP1 SWAP2 SUB SWAP1 REVERT JUMPDEST PUSH2 0xF0A CALLER ADDRESS DUP7 PUSH32 0x0 PUSH20 0xFFFFFFFFFFFFFFFFFFFFFFFFFFFFFFFFFFFFFFFF AND PUSH2 0x20FD SWAP1 SWAP4 SWAP3 SWAP2 SWAP1 PUSH4 0xFFFFFFFF AND JUMP JUMPDEST PUSH2 0xF57 CALLER ADDRESS DUP6 PUSH32 0x0 PUSH20 0xFFFFFFFFFFFFFFFFFFFFFFFFFFFFFFFFFFFFFFFF AND PUSH2 0x20FD SWAP1 SWAP4 SWAP3 SWAP2 SWAP1 PUSH4 0xFFFFFFFF AND JUMP JUMPDEST DUP4 PUSH1 0xA PUSH1 0x0 DUP3 DUP3 SLOAD PUSH2 0xF69 SWAP2 SWAP1 PUSH2 0x3C77 JUMP JUMPDEST SWAP3 POP POP DUP2 SWAP1 SSTORE POP DUP3 PUSH1 0xB PUSH1 0x0 DUP3 DUP3 SLOAD PUSH2 0xF82 SWAP2 SWAP1 PUSH2 0x3C77 JUMP JUMPDEST SWAP3 POP POP DUP2 SWAP1 SSTORE POP PUSH1 0x0 PUSH1 0xD PUSH1 0x0 DUP2 SLOAD DUP1 SWAP3 SWAP2 SWAP1 PUSH2 0xF9E SWAP1 PUSH2 0x3D83 JUMP JUMPDEST SWAP2 SWAP1 POP SSTORE SWAP1 POP PUSH1 0xC PUSH1 0x40 MLOAD DUP1 PUSH1 0xE0 ADD PUSH1 0x40 MSTORE DUP1 DUP6 DUP2 MSTORE PUSH1 0x20 ADD DUP5 DUP2 MSTORE PUSH1 0x20 ADD DUP8 DUP2 MSTORE PUSH1 0x20 ADD DUP7 DUP2 MSTORE PUSH1 0x20 ADD PUSH1 0x0 DUP2 MSTORE PUSH1 0x20 ADD PUSH1 0x0 DUP2 MSTORE PUSH1 0x20 ADD CALLER PUSH20 0xFFFFFFFFFFFFFFFFFFFFFFFFFFFFFFFFFFFFFFFF AND DUP2 MSTORE POP SWAP1 DUP1 PUSH1 0x1 DUP2 SLOAD ADD DUP1 DUP3 SSTORE DUP1 SWAP2 POP POP PUSH1 0x1 SWAP1 SUB SWAP1 PUSH1 0x0 MSTORE PUSH1 0x20 PUSH1 0x0 KECCAK256 SWAP1 PUSH1 0x7 MUL ADD PUSH1 0x0 SWAP1 SWAP2 SWAP1 SWAP2 SWAP1 SWAP2 POP PUSH1 0x0 DUP3 ADD MLOAD DUP2 PUSH1 0x0 ADD SSTORE PUSH1 0x20 DUP3 ADD MLOAD DUP2 PUSH1 0x1 ADD SSTORE PUSH1 0x40 DUP3 ADD MLOAD DUP2 PUSH1 0x2 ADD SSTORE PUSH1 0x60 DUP3 ADD MLOAD DUP2 PUSH1 0x3 ADD SSTORE PUSH1 0x80 DUP3 ADD MLOAD DUP2 PUSH1 0x4 ADD SSTORE PUSH1 0xA0 DUP3 ADD MLOAD DUP2 PUSH1 0x5 ADD SSTORE PUSH1 0xC0 DUP3 ADD MLOAD DUP2 PUSH1 0x6 ADD PUSH1 0x0 PUSH2 0x100 EXP DUP2 SLOAD DUP2 PUSH20 0xFFFFFFFFFFFFFFFFFFFFFFFFFFFFFFFFFFFFFFFF MUL NOT AND SWAP1 DUP4 PUSH20 0xFFFFFFFFFFFFFFFFFFFFFFFFFFFFFFFFFFFFFFFF AND MUL OR SWAP1 SSTORE POP POP POP PUSH2 0x10A9 CALLER DUP3 PUSH2 0x2186 JUMP JUMPDEST DUP1 PUSH32 0xD7F28048575EEAD8851D024EAD087913957DFB4FD1A02B4D1573F5352A5A2BE3 DUP7 DUP7 PUSH1 0x40 MLOAD PUSH2 0x10DB SWAP3 SWAP2 SWAP1 PUSH2 0x3210 JUMP JUMPDEST PUSH1 0x40 MLOAD DUP1 SWAP2 SUB SWAP1 LOG2 POP POP POP POP POP JUMP JUMPDEST PUSH2 0x10FB PUSH2 0x10F5 PUSH2 0x1931 JUMP JUMPDEST DUP4 PUSH2 0x19F2 JUMP JUMPDEST PUSH2 0x113A JUMPI PUSH1 0x40 MLOAD PUSH32 0x8C379A000000000000000000000000000000000000000000000000000000000 DUP2 MSTORE PUSH1 0x4 ADD PUSH2 0x1131 SWAP1 PUSH2 0x3937 JUMP JUMPDEST PUSH1 0x40 MLOAD DUP1 SWAP2 SUB SWAP1 REVERT JUMPDEST PUSH2 0x1146 DUP5 DUP5 DUP5 DUP5 PUSH2 0x23A3 JUMP JUMPDEST POP POP POP POP JUMP JUMPDEST PUSH1 0x60 PUSH2 0x1157 DUP3 PUSH2 0x18E6 JUMP JUMPDEST PUSH1 0x0 PUSH2 0x1161 PUSH2 0x23FF JUMP JUMPDEST SWAP1 POP PUSH1 0x0 DUP2 MLOAD GT PUSH2 0x1181 JUMPI PUSH1 0x40 MLOAD DUP1 PUSH1 0x20 ADD PUSH1 0x40 MSTORE DUP1 PUSH1 0x0 DUP2 MSTORE POP PUSH2 0x11AC JUMP JUMPDEST DUP1 PUSH2 0x118B DUP5 PUSH2 0x2416 JUMP JUMPDEST PUSH1 0x40 MLOAD PUSH1 0x20 ADD PUSH2 0x119C SWAP3 SWAP2 SWAP1 PUSH2 0x3E07 JUMP JUMPDEST PUSH1 0x40 MLOAD PUSH1 0x20 DUP2 DUP4 SUB SUB DUP2 MSTORE SWAP1 PUSH1 0x40 MSTORE JUMPDEST SWAP2 POP POP SWAP2 SWAP1 POP JUMP JUMPDEST PUSH32 0x0 PUSH20 0xFFFFFFFFFFFFFFFFFFFFFFFFFFFFFFFFFFFFFFFF AND DUP3 PUSH20 0xFFFFFFFFFFFFFFFFFFFFFFFFFFFFFFFFFFFFFFFF AND EQ DUP1 PUSH2 0x1259 JUMPI POP PUSH32 0x0 PUSH20 0xFFFFFFFFFFFFFFFFFFFFFFFFFFFFFFFFFFFFFFFF AND DUP3 PUSH20 0xFFFFFFFFFFFFFFFFFFFFFFFFFFFFFFFFFFFFFFFF AND EQ JUMPDEST PUSH2 0x1298 JUMPI PUSH1 0x40 MLOAD PUSH32 0x8C379A000000000000000000000000000000000000000000000000000000000 DUP2 MSTORE PUSH1 0x4 ADD PUSH2 0x128F SWAP1 PUSH2 0x3E77 JUMP JUMPDEST PUSH1 0x40 MLOAD DUP1 SWAP2 SUB SWAP1 REVERT JUMPDEST PUSH1 0x0 DUP2 GT PUSH2 0x12DB JUMPI PUSH1 0x40 MLOAD PUSH32 0x8C379A000000000000000000000000000000000000000000000000000000000 DUP2 MSTORE PUSH1 0x4 ADD PUSH2 0x12D2 SWAP1 PUSH2 0x3EE3 JUMP JUMPDEST PUSH1 0x40 MLOAD DUP1 SWAP2 SUB SWAP1 REVERT JUMPDEST PUSH32 0x0 PUSH20 0xFFFFFFFFFFFFFFFFFFFFFFFFFFFFFFFFFFFFFFFF AND DUP3 PUSH20 0xFFFFFFFFFFFFFFFFFFFFFFFFFFFFFFFFFFFFFFFF AND SUB PUSH2 0x14D6 JUMPI PUSH1 0x0 PUSH1 0xA SLOAD PUSH1 0xB SLOAD DUP4 PUSH2 0x1341 SWAP2 SWAP1 PUSH2 0x3F03 JUMP JUMPDEST PUSH2 0x134B SWAP2 SWAP1 PUSH2 0x3F74 JUMP JUMPDEST SWAP1 POP DUP1 PUSH1 0xB SLOAD LT ISZERO PUSH2 0x1392 JUMPI PUSH1 0x40 MLOAD PUSH32 0x8C379A000000000000000000000000000000000000000000000000000000000 DUP2 MSTORE PUSH1 0x4 ADD PUSH2 0x1389 SWAP1 PUSH2 0x3FF1 JUMP JUMPDEST PUSH1 0x40 MLOAD DUP1 SWAP2 SUB SWAP1 REVERT JUMPDEST PUSH2 0x13BF CALLER ADDRESS DUP5 DUP7 PUSH20 0xFFFFFFFFFFFFFFFFFFFFFFFFFFFFFFFFFFFFFFFF AND PUSH2 0x20FD SWAP1 SWAP4 SWAP3 SWAP2 SWAP1 PUSH4 0xFFFFFFFF AND JUMP JUMPDEST PUSH2 0x140A CALLER DUP3 PUSH32 0x0 PUSH20 0xFFFFFFFFFFFFFFFFFFFFFFFFFFFFFFFFFFFFFFFF AND PUSH2 0x1DBD SWAP1 SWAP3 SWAP2 SWAP1 PUSH4 0xFFFFFFFF AND JUMP JUMPDEST DUP2 PUSH1 0xA PUSH1 0x0 DUP3 DUP3 SLOAD PUSH2 0x141C SWAP2 SWAP1 PUSH2 0x3C77 JUMP JUMPDEST SWAP3 POP POP DUP2 SWAP1 SSTORE POP DUP1 PUSH1 0xB PUSH1 0x0 DUP3 DUP3 SLOAD PUSH2 0x1435 SWAP2 SWAP1 PUSH2 0x3C43 JUMP JUMPDEST SWAP3 POP POP DUP2 SWAP1 SSTORE POP CALLER PUSH20 0xFFFFFFFFFFFFFFFFFFFFFFFFFFFFFFFFFFFFFFFF AND PUSH32 0xCD3829A3813DC3CDD188FD3D01DCF3268C16BE2FDD2DD21D0665418816E46062 PUSH32 0x0 PUSH32 0x0 DUP6 DUP6 PUSH1 0x40 MLOAD PUSH2 0x14C8 SWAP5 SWAP4 SWAP3 SWAP2 SWAP1 PUSH2 0x4011 JUMP JUMPDEST PUSH1 0x40 MLOAD DUP1 SWAP2 SUB SWAP1 LOG2 POP PUSH2 0x167A JUMP JUMPDEST PUSH1 0x0 PUSH1 0xB SLOAD PUSH1 0xA SLOAD DUP4 PUSH2 0x14E9 SWAP2 SWAP1 PUSH2 0x3F03 JUMP JUMPDEST PUSH2 0x14F3 SWAP2 SWAP1 PUSH2 0x3F74 JUMP JUMPDEST SWAP1 POP DUP1 PUSH1 0xA SLOAD LT ISZERO PUSH2 0x153A JUMPI PUSH1 0x40 MLOAD PUSH32 0x8C379A000000000000000000000000000000000000000000000000000000000 DUP2 MSTORE PUSH1 0x4 ADD PUSH2 0x1531 SWAP1 PUSH2 0x3FF1 JUMP JUMPDEST PUSH1 0x40 MLOAD DUP1 SWAP2 SUB SWAP1 REVERT JUMPDEST PUSH2 0x1567 CALLER ADDRESS DUP5 DUP7 PUSH20 0xFFFFFFFFFFFFFFFFFFFFFFFFFFFFFFFFFFFFFFFF AND PUSH2 0x20FD SWAP1 SWAP4 SWAP3 SWAP2 SWAP1 PUSH4 0xFFFFFFFF AND JUMP JUMPDEST PUSH2 0x15B2 CALLER DUP3 PUSH32 0x0 PUSH20 0xFFFFFFFFFFFFFFFFFFFFFFFFFFFFFFFFFFFFFFFF AND PUSH2 0x1DBD SWAP1 SWAP3 SWAP2 SWAP1 PUSH4 0xFFFFFFFF AND JUMP JUMPDEST DUP2 PUSH1 0xB PUSH1 0x0 DUP3 DUP3 SLOAD PUSH2 0x15C4 SWAP2 SWAP1 PUSH2 0x3C77 JUMP JUMPDEST SWAP3 POP POP DUP2 SWAP1 SSTORE POP DUP1 PUSH1 0xA PUSH1 0x0 DUP3 DUP3 SLOAD PUSH2 0x15DD SWAP2 SWAP1 PUSH2 0x3C43 JUMP JUMPDEST SWAP3 POP POP DUP2 SWAP1 SSTORE POP CALLER PUSH20 0xFFFFFFFFFFFFFFFFFFFFFFFFFFFFFFFFFFFFFFFF AND PUSH32 0xCD3829A3813DC3CDD188FD3D01DCF3268C16BE2FDD2DD21D0665418816E46062 PUSH32 0x0 PUSH32 0x0 DUP6 DUP6 PUSH1 0x40 MLOAD PUSH2 0x1670 SWAP5 SWAP4 SWAP3 SWAP2 SWAP1 PUSH2 0x4011 JUMP JUMPDEST PUSH1 0x40 MLOAD DUP1 SWAP2 SUB SWAP1 LOG2 POP JUMPDEST POP POP JUMP JUMPDEST PUSH32 0x0 DUP2 JUMP JUMPDEST PUSH1 0x0 PUSH1 0x5 PUSH1 0x0 DUP5 PUSH20 0xFFFFFFFFFFFFFFFFFFFFFFFFFFFFFFFFFFFFFFFF AND PUSH20 0xFFFFFFFFFFFFFFFFFFFFFFFFFFFFFFFFFFFFFFFF AND DUP2 MSTORE PUSH1 0x20 ADD SWAP1 DUP2 MSTORE PUSH1 0x20 ADD PUSH1 0x0 KECCAK256 PUSH1 0x0 DUP4 PUSH20 0xFFFFFFFFFFFFFFFFFFFFFFFFFFFFFFFFFFFFFFFF AND PUSH20 0xFFFFFFFFFFFFFFFFFFFFFFFFFFFFFFFFFFFFFFFF AND DUP2 MSTORE PUSH1 0x20 ADD SWAP1 DUP2 MSTORE PUSH1 0x20 ADD PUSH1 0x0 KECCAK256 PUSH1 0x0 SWAP1 SLOAD SWAP1 PUSH2 0x100 EXP SWAP1 DIV PUSH1 0xFF AND SWAP1 POP SWAP3 SWAP2 POP POP JUMP JUMPDEST PUSH2 0x173E PUSH2 0x2F6E JUMP JUMPDEST PUSH1 0xC DUP3 DUP2 SLOAD DUP2 LT PUSH2 0x1752 JUMPI PUSH2 0x1751 PUSH2 0x3A7B JUMP JUMPDEST JUMPDEST SWAP1 PUSH1 0x0 MSTORE PUSH1 0x20 PUSH1 0x0 KECCAK256 SWAP1 PUSH1 0x7 MUL ADD PUSH1 0x40 MLOAD DUP1 PUSH1 0xE0 ADD PUSH1 0x40 MSTORE SWAP1 DUP2 PUSH1 0x0 DUP3 ADD SLOAD DUP2 MSTORE PUSH1 0x20 ADD PUSH1 0x1 DUP3 ADD SLOAD DUP2 MSTORE PUSH1 0x20 ADD PUSH1 0x2 DUP3 ADD SLOAD DUP2 MSTORE PUSH1 0x20 ADD PUSH1 0x3 DUP3 ADD SLOAD DUP2 MSTORE PUSH1 0x20 ADD PUSH1 0x4 DUP3 ADD SLOAD DUP2 MSTORE PUSH1 0x20 ADD PUSH1 0x5 DUP3 ADD SLOAD DUP2 MSTORE PUSH1 0x20 ADD PUSH1 0x6 DUP3 ADD PUSH1 0x0 SWAP1 SLOAD SWAP1 PUSH2 0x100 EXP SWAP1 DIV PUSH20 0xFFFFFFFFFFFFFFFFFFFFFFFFFFFFFFFFFFFFFFFF AND PUSH20 0xFFFFFFFFFFFFFFFFFFFFFFFFFFFFFFFFFFFFFFFF AND PUSH20 0xFFFFFFFFFFFFFFFFFFFFFFFFFFFFFFFFFFFFFFFF AND DUP2 MSTORE POP POP SWAP1 POP SWAP2 SWAP1 POP JUMP JUMPDEST PUSH1 0x0 PUSH32 0x80AC58CD00000000000000000000000000000000000000000000000000000000 PUSH28 0xFFFFFFFFFFFFFFFFFFFFFFFFFFFFFFFFFFFFFFFFFFFFFFFFFFFFFFFF NOT AND DUP3 PUSH28 0xFFFFFFFFFFFFFFFFFFFFFFFFFFFFFFFFFFFFFFFFFFFFFFFFFFFFFFFF NOT AND EQ DUP1 PUSH2 0x18CF JUMPI POP PUSH32 0x5B5E139F00000000000000000000000000000000000000000000000000000000 PUSH28 0xFFFFFFFFFFFFFFFFFFFFFFFFFFFFFFFFFFFFFFFFFFFFFFFFFFFFFFFF NOT AND DUP3 PUSH28 0xFFFFFFFFFFFFFFFFFFFFFFFFFFFFFFFFFFFFFFFFFFFFFFFFFFFFFFFF NOT AND EQ JUMPDEST DUP1 PUSH2 0x18DF JUMPI POP PUSH2 0x18DE DUP3 PUSH2 0x24E4 JUMP JUMPDEST JUMPDEST SWAP1 POP SWAP2 SWAP1 POP JUMP JUMPDEST PUSH2 0x18EF DUP2 PUSH2 0x254E JUMP JUMPDEST PUSH2 0x192E JUMPI PUSH1 0x40 MLOAD PUSH32 0x8C379A000000000000000000000000000000000000000000000000000000000 DUP2 MSTORE PUSH1 0x4 ADD PUSH2 0x1925 SWAP1 PUSH2 0x3AF6 JUMP JUMPDEST PUSH1 0x40 MLOAD DUP1 SWAP2 SUB SWAP1 REVERT JUMPDEST POP JUMP JUMPDEST PUSH1 0x0 CALLER SWAP1 POP SWAP1 JUMP JUMPDEST DUP2 PUSH1 0x4 PUSH1 0x0 DUP4 DUP2 MSTORE PUSH1 0x20 ADD SWAP1 DUP2 MSTORE PUSH1 0x20 ADD PUSH1 0x0 KECCAK256 PUSH1 0x0 PUSH2 0x100 EXP DUP2 SLOAD DUP2 PUSH20 0xFFFFFFFFFFFFFFFFFFFFFFFFFFFFFFFFFFFFFFFF MUL NOT AND SWAP1 DUP4 PUSH20 0xFFFFFFFFFFFFFFFFFFFFFFFFFFFFFFFFFFFFFFFF AND MUL OR SWAP1 SSTORE POP DUP1 DUP3 PUSH20 0xFFFFFFFFFFFFFFFFFFFFFFFFFFFFFFFFFFFFFFFF AND PUSH2 0x19AC DUP4 PUSH2 0x9D0 JUMP JUMPDEST PUSH20 0xFFFFFFFFFFFFFFFFFFFFFFFFFFFFFFFFFFFFFFFF AND PUSH32 0x8C5BE1E5EBEC7D5BD14F71427D1E84F3DD0314C0F7B2291E5B200AC8C7C3B925 PUSH1 0x40 MLOAD PUSH1 0x40 MLOAD DUP1 SWAP2 SUB SWAP1 LOG4 POP POP JUMP JUMPDEST PUSH1 0x0 DUP1 PUSH2 0x19FE DUP4 PUSH2 0x9D0 JUMP JUMPDEST SWAP1 POP DUP1 PUSH20 0xFFFFFFFFFFFFFFFFFFFFFFFFFFFFFFFFFFFFFFFF AND DUP5 PUSH20 0xFFFFFFFFFFFFFFFFFFFFFFFFFFFFFFFFFFFFFFFF AND EQ DUP1 PUSH2 0x1A40 JUMPI POP PUSH2 0x1A3F DUP2 DUP6 PUSH2 0x16A2 JUMP JUMPDEST JUMPDEST DUP1 PUSH2 0x1A7E JUMPI POP DUP4 PUSH20 0xFFFFFFFFFFFFFFFFFFFFFFFFFFFFFFFFFFFFFFFF AND PUSH2 0x1A66 DUP5 PUSH2 0x68F JUMP JUMPDEST PUSH20 0xFFFFFFFFFFFFFFFFFFFFFFFFFFFFFFFFFFFFFFFF AND EQ JUMPDEST SWAP2 POP POP SWAP3 SWAP2 POP POP JUMP JUMPDEST DUP3 PUSH20 0xFFFFFFFFFFFFFFFFFFFFFFFFFFFFFFFFFFFFFFFF AND PUSH2 0x1AA7 DUP3 PUSH2 0x9D0 JUMP JUMPDEST PUSH20 0xFFFFFFFFFFFFFFFFFFFFFFFFFFFFFFFFFFFFFFFF AND EQ PUSH2 0x1AFD JUMPI PUSH1 0x40 MLOAD PUSH32 0x8C379A000000000000000000000000000000000000000000000000000000000 DUP2 MSTORE PUSH1 0x4 ADD PUSH2 0x1AF4 SWAP1 PUSH2 0x40C8 JUMP JUMPDEST PUSH1 0x40 MLOAD DUP1 SWAP2 SUB SWAP1 REVERT JUMPDEST PUSH1 0x0 PUSH20 0xFFFFFFFFFFFFFFFFFFFFFFFFFFFFFFFFFFFFFFFF AND DUP3 PUSH20 0xFFFFFFFFFFFFFFFFFFFFFFFFFFFFFFFFFFFFFFFF AND SUB PUSH2 0x1B6C JUMPI PUSH1 0x40 MLOAD PUSH32 0x8C379A000000000000000000000000000000000000000000000000000000000 DUP2 MSTORE PUSH1 0x4 ADD PUSH2 0x1B63 SWAP1 PUSH2 0x415A JUMP JUMPDEST PUSH1 0x40 MLOAD DUP1 SWAP2 SUB SWAP1 REVERT JUMPDEST PUSH2 0x1B79 DUP4 DUP4 DUP4 PUSH1 0x1 PUSH2 0x258F JUMP JUMPDEST DUP3 PUSH20 0xFFFFFFFFFFFFFFFFFFFFFFFFFFFFFFFFFFFFFFFF AND PUSH2 0x1B99 DUP3 PUSH2 0x9D0 JUMP JUMPDEST PUSH20 0xFFFFFFFFFFFFFFFFFFFFFFFFFFFFFFFFFFFFFFFF AND EQ PUSH2 0x1BEF JUMPI PUSH1 0x40 MLOAD PUSH32 0x8C379A000000000000000000000000000000000000000000000000000000000 DUP2 MSTORE PUSH1 0x4 ADD PUSH2 0x1BE6 SWAP1 PUSH2 0x40C8 JUMP JUMPDEST PUSH1 0x40 MLOAD DUP1 SWAP2 SUB SWAP1 REVERT JUMPDEST PUSH1 0x4 PUSH1 0x0 DUP3 DUP2 MSTORE PUSH1 0x20 ADD SWAP1 DUP2 MSTORE PUSH1 0x20 ADD PUSH1 0x0 KECCAK256 PUSH1 0x0 PUSH2 0x100 EXP DUP2 SLOAD SWAP1 PUSH20 0xFFFFFFFFFFFFFFFFFFFFFFFFFFFFFFFFFFFFFFFF MUL NOT AND SWAP1 SSTORE PUSH1 0x1 PUSH1 0x3 PUSH1 0x0 DUP6 PUSH20 0xFFFFFFFFFFFFFFFFFFFFFFFFFFFFFFFFFFFFFFFF AND PUSH20 0xFFFFFFFFFFFFFFFFFFFFFFFFFFFFFFFFFFFFFFFF AND DUP2 MSTORE PUSH1 0x20 ADD SWAP1 DUP2 MSTORE PUSH1 0x20 ADD PUSH1 0x0 KECCAK256 PUSH1 0x0 DUP3 DUP3 SLOAD SUB SWAP3 POP POP DUP2 SWAP1 SSTORE POP PUSH1 0x1 PUSH1 0x3 PUSH1 0x0 DUP5 PUSH20 0xFFFFFFFFFFFFFFFFFFFFFFFFFFFFFFFFFFFFFFFF AND PUSH20 0xFFFFFFFFFFFFFFFFFFFFFFFFFFFFFFFFFFFFFFFF AND DUP2 MSTORE PUSH1 0x20 ADD SWAP1 DUP2 MSTORE PUSH1 0x20 ADD PUSH1 0x0 KECCAK256 PUSH1 0x0 DUP3 DUP3 SLOAD ADD SWAP3 POP POP DUP2 SWAP1 SSTORE POP DUP2 PUSH1 0x2 PUSH1 0x0 DUP4 DUP2 MSTORE PUSH1 0x20 ADD SWAP1 DUP2 MSTORE PUSH1 0x20 ADD PUSH1 0x0 KECCAK256 PUSH1 0x0 PUSH2 0x100 EXP DUP2 SLOAD DUP2 PUSH20 0xFFFFFFFFFFFFFFFFFFFFFFFFFFFFFFFFFFFFFFFF MUL NOT AND SWAP1 DUP4 PUSH20 0xFFFFFFFFFFFFFFFFFFFFFFFFFFFFFFFFFFFFFFFF AND MUL OR SWAP1 SSTORE POP DUP1 DUP3 PUSH20 0xFFFFFFFFFFFFFFFFFFFFFFFFFFFFFFFFFFFFFFFF AND DUP5 PUSH20 0xFFFFFFFFFFFFFFFFFFFFFFFFFFFFFFFFFFFFFFFF AND PUSH32 0xDDF252AD1BE2C89B69C2B068FC378DAA952BA7F163C4A11628F55A4DF523B3EF PUSH1 0x40 MLOAD PUSH1 0x40 MLOAD DUP1 SWAP2 SUB SWAP1 LOG4 PUSH2 0x1D7B DUP4 DUP4 DUP4 PUSH1 0x1 PUSH2 0x26ED JUMP JUMPDEST POP POP POP JUMP JUMPDEST PUSH1 0x0 PUSH1 0x2 PUSH1 0x0 DUP4 DUP2 MSTORE PUSH1 0x20 ADD SWAP1 DUP2 MSTORE PUSH1 0x20 ADD PUSH1 0x0 KECCAK256 PUSH1 0x0 SWAP1 SLOAD SWAP1 PUSH2 0x100 EXP SWAP1 DIV PUSH20 0xFFFFFFFFFFFFFFFFFFFFFFFFFFFFFFFFFFFFFFFF AND SWAP1 POP SWAP2 SWAP1 POP JUMP JUMPDEST PUSH2 0x1E3E DUP4 PUSH4 0xA9059CBB PUSH1 0xE0 SHL DUP5 DUP5 PUSH1 0x40 MLOAD PUSH1 0x24 ADD PUSH2 0x1DDC SWAP3 SWAP2 SWAP1 PUSH2 0x417A JUMP JUMPDEST PUSH1 0x40 MLOAD PUSH1 0x20 DUP2 DUP4 SUB SUB DUP2 MSTORE SWAP1 PUSH1 0x40 MSTORE SWAP1 PUSH28 0xFFFFFFFFFFFFFFFFFFFFFFFFFFFFFFFFFFFFFFFFFFFFFFFFFFFFFFFF NOT AND PUSH1 0x20 DUP3 ADD DUP1 MLOAD PUSH28 0xFFFFFFFFFFFFFFFFFFFFFFFFFFFFFFFFFFFFFFFFFFFFFFFFFFFFFFFF DUP4 DUP2 DUP4 AND OR DUP4 MSTORE POP POP POP POP PUSH2 0x26F3 JUMP JUMPDEST POP POP POP JUMP JUMPDEST PUSH1 0x0 PUSH2 0x1E4E DUP3 PUSH2 0x9D0 JUMP JUMPDEST SWAP1 POP PUSH2 0x1E5E DUP2 PUSH1 0x0 DUP5 PUSH1 0x1 PUSH2 0x258F JUMP JUMPDEST PUSH2 0x1E67 DUP3 PUSH2 0x9D0 JUMP JUMPDEST SWAP1 POP PUSH1 0x4 PUSH1 0x0 DUP4 DUP2 MSTORE PUSH1 0x20 ADD SWAP1 DUP2 MSTORE PUSH1 0x20 ADD PUSH1 0x0 KECCAK256 PUSH1 0x0 PUSH2 0x100 EXP DUP2 SLOAD SWAP1 PUSH20 0xFFFFFFFFFFFFFFFFFFFFFFFFFFFFFFFFFFFFFFFF MUL NOT AND SWAP1 SSTORE PUSH1 0x1 PUSH1 0x3 PUSH1 0x0 DUP4 PUSH20 0xFFFFFFFFFFFFFFFFFFFFFFFFFFFFFFFFFFFFFFFF AND PUSH20 0xFFFFFFFFFFFFFFFFFFFFFFFFFFFFFFFFFFFFFFFF AND DUP2 MSTORE PUSH1 0x20 ADD SWAP1 DUP2 MSTORE PUSH1 0x20 ADD PUSH1 0x0 KECCAK256 PUSH1 0x0 DUP3 DUP3 SLOAD SUB SWAP3 POP POP DUP2 SWAP1 SSTORE POP PUSH1 0x2 PUSH1 0x0 DUP4 DUP2 MSTORE PUSH1 0x20 ADD SWAP1 DUP2 MSTORE PUSH1 0x20 ADD PUSH1 0x0 KECCAK256 PUSH1 0x0 PUSH2 0x100 EXP DUP2 SLOAD SWAP1 PUSH20 0xFFFFFFFFFFFFFFFFFFFFFFFFFFFFFFFFFFFFFFFF MUL NOT AND SWAP1 SSTORE DUP2 PUSH1 0x0 PUSH20 0xFFFFFFFFFFFFFFFFFFFFFFFFFFFFFFFFFFFFFFFF AND DUP3 PUSH20 0xFFFFFFFFFFFFFFFFFFFFFFFFFFFFFFFFFFFFFFFF AND PUSH32 0xDDF252AD1BE2C89B69C2B068FC378DAA952BA7F163C4A11628F55A4DF523B3EF PUSH1 0x40 MLOAD PUSH1 0x40 MLOAD DUP1 SWAP2 SUB SWAP1 LOG4 PUSH2 0x1F8D DUP2 PUSH1 0x0 DUP5 PUSH1 0x1 PUSH2 0x26ED JUMP JUMPDEST POP POP JUMP JUMPDEST DUP2 PUSH20 0xFFFFFFFFFFFFFFFFFFFFFFFFFFFFFFFFFFFFFFFF AND DUP4 PUSH20 0xFFFFFFFFFFFFFFFFFFFFFFFFFFFFFFFFFFFFFFFF AND SUB PUSH2 0x1FFF JUMPI PUSH1 0x40 MLOAD PUSH32 0x8C379A000000000000000000000000000000000000000000000000000000000 DUP2 MSTORE PUSH1 0x4 ADD PUSH2 0x1FF6 SWAP1 PUSH2 0x41EF JUMP JUMPDEST PUSH1 0x40 MLOAD DUP1 SWAP2 SUB SWAP1 REVERT JUMPDEST DUP1 PUSH1 0x5 PUSH1 0x0 DUP6 PUSH20 0xFFFFFFFFFFFFFFFFFFFFFFFFFFFFFFFFFFFFFFFF AND PUSH20 0xFFFFFFFFFFFFFFFFFFFFFFFFFFFFFFFFFFFFFFFF AND DUP2 MSTORE PUSH1 0x20 ADD SWAP1 DUP2 MSTORE PUSH1 0x20 ADD PUSH1 0x0 KECCAK256 PUSH1 0x0 DUP5 PUSH20 0xFFFFFFFFFFFFFFFFFFFFFFFFFFFFFFFFFFFFFFFF AND PUSH20 0xFFFFFFFFFFFFFFFFFFFFFFFFFFFFFFFFFFFFFFFF AND DUP2 MSTORE PUSH1 0x20 ADD SWAP1 DUP2 MSTORE PUSH1 0x20 ADD PUSH1 0x0 KECCAK256 PUSH1 0x0 PUSH2 0x100 EXP DUP2 SLOAD DUP2 PUSH1 0xFF MUL NOT AND SWAP1 DUP4 ISZERO ISZERO MUL OR SWAP1 SSTORE POP DUP2 PUSH20 0xFFFFFFFFFFFFFFFFFFFFFFFFFFFFFFFFFFFFFFFF AND DUP4 PUSH20 0xFFFFFFFFFFFFFFFFFFFFFFFFFFFFFFFFFFFFFFFF AND PUSH32 0x17307EAB39AB6107E8899845AD3D59BD9653F200F220920489CA2B5937696C31 DUP4 PUSH1 0x40 MLOAD PUSH2 0x20F0 SWAP2 SWAP1 PUSH2 0x3075 JUMP JUMPDEST PUSH1 0x40 MLOAD DUP1 SWAP2 SUB SWAP1 LOG3 POP POP POP JUMP JUMPDEST PUSH2 0x2180 DUP5 PUSH4 0x23B872DD PUSH1 0xE0 SHL DUP6 DUP6 DUP6 PUSH1 0x40 MLOAD PUSH1 0x24 ADD PUSH2 0x211E SWAP4 SWAP3 SWAP2 SWAP1 PUSH2 0x420F JUMP JUMPDEST PUSH1 0x40 MLOAD PUSH1 0x20 DUP2 DUP4 SUB SUB DUP2 MSTORE SWAP1 PUSH1 0x40 MSTORE SWAP1 PUSH28 0xFFFFFFFFFFFFFFFFFFFFFFFFFFFFFFFFFFFFFFFFFFFFFFFFFFFFFFFF NOT AND PUSH1 0x20 DUP3 ADD DUP1 MLOAD PUSH28 0xFFFFFFFFFFFFFFFFFFFFFFFFFFFFFFFFFFFFFFFFFFFFFFFFFFFFFFFF DUP4 DUP2 DUP4 AND OR DUP4 MSTORE POP POP POP POP PUSH2 0x26F3 JUMP JUMPDEST POP POP POP POP JUMP JUMPDEST PUSH1 0x0 PUSH20 0xFFFFFFFFFFFFFFFFFFFFFFFFFFFFFFFFFFFFFFFF AND DUP3 PUSH20 0xFFFFFFFFFFFFFFFFFFFFFFFFFFFFFFFFFFFFFFFF AND SUB PUSH2 0x21F5 JUMPI PUSH1 0x40 MLOAD PUSH32 0x8C379A000000000000000000000000000000000000000000000000000000000 DUP2 MSTORE PUSH1 0x4 ADD PUSH2 0x21EC SWAP1 PUSH2 0x4292 JUMP JUMPDEST PUSH1 0x40 MLOAD DUP1 SWAP2 SUB SWAP1 REVERT JUMPDEST PUSH2 0x21FE DUP2 PUSH2 0x254E JUMP JUMPDEST ISZERO PUSH2 0x223E JUMPI PUSH1 0x40 MLOAD PUSH32 0x8C379A000000000000000000000000000000000000000000000000000000000 DUP2 MSTORE PUSH1 0x4 ADD PUSH2 0x2235 SWAP1 PUSH2 0x42FE JUMP JUMPDEST PUSH1 0x40 MLOAD DUP1 SWAP2 SUB SWAP1 REVERT JUMPDEST PUSH2 0x224C PUSH1 0x0 DUP4 DUP4 PUSH1 0x1 PUSH2 0x258F JUMP JUMPDEST PUSH2 0x2255 DUP2 PUSH2 0x254E JUMP JUMPDEST ISZERO PUSH2 0x2295 JUMPI PUSH1 0x40 MLOAD PUSH32 0x8C379A000000000000000000000000000000000000000000000000000000000 DUP2 MSTORE PUSH1 0x4 ADD PUSH2 0x228C SWAP1 PUSH2 0x42FE JUMP JUMPDEST PUSH1 0x40 MLOAD DUP1 SWAP2 SUB SWAP1 REVERT JUMPDEST PUSH1 0x1 PUSH1 0x3 PUSH1 0x0 DUP5 PUSH20 0xFFFFFFFFFFFFFFFFFFFFFFFFFFFFFFFFFFFFFFFF AND PUSH20 0xFFFFFFFFFFFFFFFFFFFFFFFFFFFFFFFFFFFFFFFF AND DUP2 MSTORE PUSH1 0x20 ADD SWAP1 DUP2 MSTORE PUSH1 0x20 ADD PUSH1 0x0 KECCAK256 PUSH1 0x0 DUP3 DUP3 SLOAD ADD SWAP3 POP POP DUP2 SWAP1 SSTORE POP DUP2 PUSH1 0x2 PUSH1 0x0 DUP4 DUP2 MSTORE PUSH1 0x20 ADD SWAP1 DUP2 MSTORE PUSH1 0x20 ADD PUSH1 0x0 KECCAK256 PUSH1 0x0 PUSH2 0x100 EXP DUP2 SLOAD DUP2 PUSH20 0xFFFFFFFFFFFFFFFFFFFFFFFFFFFFFFFFFFFFFFFF MUL NOT AND SWAP1 DUP4 PUSH20 0xFFFFFFFFFFFFFFFFFFFFFFFFFFFFFFFFFFFFFFFF AND MUL OR SWAP1 SSTORE POP DUP1 DUP3 PUSH20 0xFFFFFFFFFFFFFFFFFFFFFFFFFFFFFFFFFFFFFFFF AND PUSH1 0x0 PUSH20 0xFFFFFFFFFFFFFFFFFFFFFFFFFFFFFFFFFFFFFFFF AND PUSH32 0xDDF252AD1BE2C89B69C2B068FC378DAA952BA7F163C4A11628F55A4DF523B3EF PUSH1 0x40 MLOAD PUSH1 0x40 MLOAD DUP1 SWAP2 SUB SWAP1 LOG4 PUSH2 0x239F PUSH1 0x0 DUP4 DUP4 PUSH1 0x1 PUSH2 0x26ED JUMP JUMPDEST POP POP JUMP JUMPDEST PUSH2 0x23AE DUP5 DUP5 DUP5 PUSH2 0x1A87 JUMP JUMPDEST PUSH2 0x23BA DUP5 DUP5 DUP5 DUP5 PUSH2 0x27BB JUMP JUMPDEST PUSH2 0x23F9 JUMPI PUSH1 0x40 MLOAD PUSH32 0x8C379A000000000000000000000000000000000000000000000000000000000 DUP2 MSTORE PUSH1 0x4 ADD PUSH2 0x23F0 SWAP1 PUSH2 0x4390 JUMP JUMPDEST PUSH1 0x40 MLOAD DUP1 SWAP2 SUB SWAP1 REVERT JUMPDEST POP POP POP POP JUMP JUMPDEST PUSH1 0x60 PUSH1 0x40 MLOAD DUP1 PUSH1 0x20 ADD PUSH1 0x40 MSTORE DUP1 PUSH1 0x0 DUP2 MSTORE POP SWAP1 POP SWAP1 JUMP JUMPDEST PUSH1 0x60 PUSH1 0x0 PUSH1 0x1 PUSH2 0x2425 DUP5 PUSH2 0x2942 JUMP JUMPDEST ADD SWAP1 POP PUSH1 0x0 DUP2 PUSH8 0xFFFFFFFFFFFFFFFF DUP2 GT ISZERO PUSH2 0x2444 JUMPI PUSH2 0x2443 PUSH2 0x348C JUMP JUMPDEST JUMPDEST PUSH1 0x40 MLOAD SWAP1 DUP1 DUP3 MSTORE DUP1 PUSH1 0x1F ADD PUSH1 0x1F NOT AND PUSH1 0x20 ADD DUP3 ADD PUSH1 0x40 MSTORE DUP1 ISZERO PUSH2 0x2476 JUMPI DUP2 PUSH1 0x20 ADD PUSH1 0x1 DUP3 MUL DUP1 CALLDATASIZE DUP4 CALLDATACOPY DUP1 DUP3 ADD SWAP2 POP POP SWAP1 POP JUMPDEST POP SWAP1 POP PUSH1 0x0 DUP3 PUSH1 0x20 ADD DUP3 ADD SWAP1 POP JUMPDEST PUSH1 0x1 ISZERO PUSH2 0x24D9 JUMPI DUP1 DUP1 PUSH1 0x1 SWAP1 SUB SWAP2 POP POP PUSH32 0x3031323334353637383961626364656600000000000000000000000000000000 PUSH1 0xA DUP7 MOD BYTE DUP2 MSTORE8 PUSH1 0xA DUP6 DUP2 PUSH2 0x24CD JUMPI PUSH2 0x24CC PUSH2 0x3F45 JUMP JUMPDEST JUMPDEST DIV SWAP5 POP PUSH1 0x0 DUP6 SUB PUSH2 0x2484 JUMPI JUMPDEST DUP2 SWAP4 POP POP POP POP SWAP2 SWAP1 POP JUMP JUMPDEST PUSH1 0x0 PUSH32 0x1FFC9A700000000000000000000000000000000000000000000000000000000 PUSH28 0xFFFFFFFFFFFFFFFFFFFFFFFFFFFFFFFFFFFFFFFFFFFFFFFFFFFFFFFF NOT AND DUP3 PUSH28 0xFFFFFFFFFFFFFFFFFFFFFFFFFFFFFFFFFFFFFFFFFFFFFFFFFFFFFFFF NOT AND EQ SWAP1 POP SWAP2 SWAP1 POP JUMP JUMPDEST PUSH1 0x0 DUP1 PUSH20 0xFFFFFFFFFFFFFFFFFFFFFFFFFFFFFFFFFFFFFFFF AND PUSH2 0x2570 DUP4 PUSH2 0x1D80 JUMP JUMPDEST PUSH20 0xFFFFFFFFFFFFFFFFFFFFFFFFFFFFFFFFFFFFFFFF AND EQ ISZERO SWAP1 POP SWAP2 SWAP1 POP JUMP JUMPDEST PUSH2 0x259B DUP5 DUP5 DUP5 DUP5 PUSH2 0x2A95 JUMP JUMPDEST PUSH1 0x1 DUP2 GT ISZERO PUSH2 0x25DF JUMPI PUSH1 0x40 MLOAD PUSH32 0x8C379A000000000000000000000000000000000000000000000000000000000 DUP2 MSTORE PUSH1 0x4 ADD PUSH2 0x25D6 SWAP1 PUSH2 0x4422 JUMP JUMPDEST PUSH1 0x40 MLOAD DUP1 SWAP2 SUB SWAP1 REVERT JUMPDEST PUSH1 0x0 DUP3 SWAP1 POP PUSH1 0x0 PUSH20 0xFFFFFFFFFFFFFFFFFFFFFFFFFFFFFFFFFFFFFFFF AND DUP6 PUSH20 0xFFFFFFFFFFFFFFFFFFFFFFFFFFFFFFFFFFFFFFFF AND SUB PUSH2 0x2626 JUMPI PUSH2 0x2621 DUP2 PUSH2 0x2A9B JUMP JUMPDEST PUSH2 0x2665 JUMP JUMPDEST DUP4 PUSH20 0xFFFFFFFFFFFFFFFFFFFFFFFFFFFFFFFFFFFFFFFF AND DUP6 PUSH20 0xFFFFFFFFFFFFFFFFFFFFFFFFFFFFFFFFFFFFFFFF AND EQ PUSH2 0x2664 JUMPI PUSH2 0x2663 DUP6 DUP3 PUSH2 0x2AE4 JUMP JUMPDEST JUMPDEST JUMPDEST PUSH1 0x0 PUSH20 0xFFFFFFFFFFFFFFFFFFFFFFFFFFFFFFFFFFFFFFFF AND DUP5 PUSH20 0xFFFFFFFFFFFFFFFFFFFFFFFFFFFFFFFFFFFFFFFF AND SUB PUSH2 0x26A7 JUMPI PUSH2 0x26A2 DUP2 PUSH2 0x2C51 JUMP JUMPDEST PUSH2 0x26E6 JUMP JUMPDEST DUP5 PUSH20 0xFFFFFFFFFFFFFFFFFFFFFFFFFFFFFFFFFFFFFFFF AND DUP5 PUSH20 0xFFFFFFFFFFFFFFFFFFFFFFFFFFFFFFFFFFFFFFFF AND EQ PUSH2 0x26E5 JUMPI PUSH2 0x26E4 DUP5 DUP3 PUSH2 0x2D22 JUMP JUMPDEST JUMPDEST JUMPDEST POP POP POP POP POP JUMP JUMPDEST POP POP POP POP JUMP JUMPDEST PUSH1 0x0 PUSH2 0x2755 DUP3 PUSH1 0x40 MLOAD DUP1 PUSH1 0x40 ADD PUSH1 0x40 MSTORE DUP1 PUSH1 0x20 DUP2 MSTORE PUSH1 0x20 ADD PUSH32 0x5361666545524332303A206C6F772D6C6576656C2063616C6C206661696C6564 DUP2 MSTORE POP DUP6 PUSH20 0xFFFFFFFFFFFFFFFFFFFFFFFFFFFFFFFFFFFFFFFF AND PUSH2 0x2DA1 SWAP1 SWAP3 SWAP2 SWAP1 PUSH4 0xFFFFFFFF AND JUMP JUMPDEST SWAP1 POP PUSH1 0x0 DUP2 MLOAD EQ DUP1 PUSH2 0x2777 JUMPI POP DUP1 DUP1 PUSH1 0x20 ADD SWAP1 MLOAD DUP2 ADD SWAP1 PUSH2 0x2776 SWAP2 SWAP1 PUSH2 0x4457 JUMP JUMPDEST JUMPDEST PUSH2 0x27B6 JUMPI PUSH1 0x40 MLOAD PUSH32 0x8C379A000000000000000000000000000000000000000000000000000000000 DUP2 MSTORE PUSH1 0x4 ADD PUSH2 0x27AD SWAP1 PUSH2 0x44F6 JUMP JUMPDEST PUSH1 0x40 MLOAD DUP1 SWAP2 SUB SWAP1 REVERT JUMPDEST POP POP POP JUMP JUMPDEST PUSH1 0x0 PUSH2 0x27DC DUP5 PUSH20 0xFFFFFFFFFFFFFFFFFFFFFFFFFFFFFFFFFFFFFFFF AND PUSH2 0x2DB9 JUMP JUMPDEST ISZERO PUSH2 0x2935 JUMPI DUP4 PUSH20 0xFFFFFFFFFFFFFFFFFFFFFFFFFFFFFFFFFFFFFFFF AND PUSH4 0x150B7A02 PUSH2 0x2805 PUSH2 0x1931 JUMP JUMPDEST DUP8 DUP7 DUP7 PUSH1 0x40 MLOAD DUP6 PUSH4 0xFFFFFFFF AND PUSH1 0xE0 SHL DUP2 MSTORE PUSH1 0x4 ADD PUSH2 0x2827 SWAP5 SWAP4 SWAP3 SWAP2 SWAP1 PUSH2 0x456B JUMP JUMPDEST PUSH1 0x20 PUSH1 0x40 MLOAD DUP1 DUP4 SUB DUP2 PUSH1 0x0 DUP8 GAS CALL SWAP3 POP POP POP DUP1 ISZERO PUSH2 0x2863 JUMPI POP PUSH1 0x40 MLOAD RETURNDATASIZE PUSH1 0x1F NOT PUSH1 0x1F DUP3 ADD AND DUP3 ADD DUP1 PUSH1 0x40 MSTORE POP DUP2 ADD SWAP1 PUSH2 0x2860 SWAP2 SWAP1 PUSH2 0x45CC JUMP JUMPDEST PUSH1 0x1 JUMPDEST PUSH2 0x28E5 JUMPI RETURNDATASIZE DUP1 PUSH1 0x0 DUP2 EQ PUSH2 0x2893 JUMPI PUSH1 0x40 MLOAD SWAP2 POP PUSH1 0x1F NOT PUSH1 0x3F RETURNDATASIZE ADD AND DUP3 ADD PUSH1 0x40 MSTORE RETURNDATASIZE DUP3 MSTORE RETURNDATASIZE PUSH1 0x0 PUSH1 0x20 DUP5 ADD RETURNDATACOPY PUSH2 0x2898 JUMP JUMPDEST PUSH1 0x60 SWAP2 POP JUMPDEST POP PUSH1 0x0 DUP2 MLOAD SUB PUSH2 0x28DD JUMPI PUSH1 0x40 MLOAD PUSH32 0x8C379A000000000000000000000000000000000000000000000000000000000 DUP2 MSTORE PUSH1 0x4 ADD PUSH2 0x28D4 SWAP1 PUSH2 0x4390 JUMP JUMPDEST PUSH1 0x40 MLOAD DUP1 SWAP2 SUB SWAP1 REVERT JUMPDEST DUP1 MLOAD DUP2 PUSH1 0x20 ADD REVERT JUMPDEST PUSH4 0x150B7A02 PUSH1 0xE0 SHL PUSH28 0xFFFFFFFFFFFFFFFFFFFFFFFFFFFFFFFFFFFFFFFFFFFFFFFFFFFFFFFF NOT AND DUP2 PUSH28 0xFFFFFFFFFFFFFFFFFFFFFFFFFFFFFFFFFFFFFFFFFFFFFFFFFFFFFFFF NOT AND EQ SWAP2 POP POP PUSH2 0x293A JUMP JUMPDEST PUSH1 0x1 SWAP1 POP JUMPDEST SWAP5 SWAP4 POP POP POP POP JUMP JUMPDEST PUSH1 0x0 DUP1 PUSH1 0x0 SWAP1 POP PUSH27 0x184F03E93FF9F4DAA797ED6E38ED64BF6A1F010000000000000000 DUP4 LT PUSH2 0x29A0 JUMPI PUSH27 0x184F03E93FF9F4DAA797ED6E38ED64BF6A1F010000000000000000 DUP4 DUP2 PUSH2 0x2996 JUMPI PUSH2 0x2995 PUSH2 0x3F45 JUMP JUMPDEST JUMPDEST DIV SWAP3 POP PUSH1 0x40 DUP2 ADD SWAP1 POP JUMPDEST PUSH14 0x4EE2D6D415B85ACEF8100000000 DUP4 LT PUSH2 0x29DD JUMPI PUSH14 0x4EE2D6D415B85ACEF8100000000 DUP4 DUP2 PUSH2 0x29D3 JUMPI PUSH2 0x29D2 PUSH2 0x3F45 JUMP JUMPDEST JUMPDEST DIV SWAP3 POP PUSH1 0x20 DUP2 ADD SWAP1 POP JUMPDEST PUSH7 0x2386F26FC10000 DUP4 LT PUSH2 0x2A0C JUMPI PUSH7 0x2386F26FC10000 DUP4 DUP2 PUSH2 0x2A02 JUMPI PUSH2 0x2A01 PUSH2 0x3F45 JUMP JUMPDEST JUMPDEST DIV SWAP3 POP PUSH1 0x10 DUP2 ADD SWAP1 POP JUMPDEST PUSH4 0x5F5E100 DUP4 LT PUSH2 0x2A35 JUMPI PUSH4 0x5F5E100 DUP4 DUP2 PUSH2 0x2A2B JUMPI PUSH2 0x2A2A PUSH2 0x3F45 JUMP JUMPDEST JUMPDEST DIV SWAP3 POP PUSH1 0x8 DUP2 ADD SWAP1 POP JUMPDEST PUSH2 0x2710 DUP4 LT PUSH2 0x2A5A JUMPI PUSH2 0x2710 DUP4 DUP2 PUSH2 0x2A50 JUMPI PUSH2 0x2A4F PUSH2 0x3F45 JUMP JUMPDEST JUMPDEST DIV SWAP3 POP PUSH1 0x4 DUP2 ADD SWAP1 POP JUMPDEST PUSH1 0x64 DUP4 LT PUSH2 0x2A7D JUMPI PUSH1 0x64 DUP4 DUP2 PUSH2 0x2A73 JUMPI PUSH2 0x2A72 PUSH2 0x3F45 JUMP JUMPDEST JUMPDEST DIV SWAP3 POP PUSH1 0x2 DUP2 ADD SWAP1 POP JUMPDEST PUSH1 0xA DUP4 LT PUSH2 0x2A8C JUMPI PUSH1 0x1 DUP2 ADD SWAP1 POP JUMPDEST DUP1 SWAP2 POP POP SWAP2 SWAP1 POP JUMP JUMPDEST POP POP POP POP JUMP JUMPDEST PUSH1 0x8 DUP1 SLOAD SWAP1 POP PUSH1 0x9 PUSH1 0x0 DUP4 DUP2 MSTORE PUSH1 0x20 ADD SWAP1 DUP2 MSTORE PUSH1 0x20 ADD PUSH1 0x0 KECCAK256 DUP2 SWAP1 SSTORE POP PUSH1 0x8 DUP2 SWAP1 DUP1 PUSH1 0x1 DUP2 SLOAD ADD DUP1 DUP3 SSTORE DUP1 SWAP2 POP POP PUSH1 0x1 SWAP1 SUB SWAP1 PUSH1 0x0 MSTORE PUSH1 0x20 PUSH1 0x0 KECCAK256 ADD PUSH1 0x0 SWAP1 SWAP2 SWAP1 SWAP2 SWAP1 SWAP2 POP SSTORE POP JUMP JUMPDEST PUSH1 0x0 PUSH1 0x1 PUSH2 0x2AF1 DUP5 PUSH2 0xA56 JUMP JUMPDEST PUSH2 0x2AFB SWAP2 SWAP1 PUSH2 0x3C43 JUMP JUMPDEST SWAP1 POP PUSH1 0x0 PUSH1 0x7 PUSH1 0x0 DUP5 DUP2 MSTORE PUSH1 0x20 ADD SWAP1 DUP2 MSTORE PUSH1 0x20 ADD PUSH1 0x0 KECCAK256 SLOAD SWAP1 POP DUP2 DUP2 EQ PUSH2 0x2BE0 JUMPI PUSH1 0x0 PUSH1 0x6 PUSH1 0x0 DUP7 PUSH20 0xFFFFFFFFFFFFFFFFFFFFFFFFFFFFFFFFFFFFFFFF AND PUSH20 0xFFFFFFFFFFFFFFFFFFFFFFFFFFFFFFFFFFFFFFFF AND DUP2 MSTORE PUSH1 0x20 ADD SWAP1 DUP2 MSTORE PUSH1 0x20 ADD PUSH1 0x0 KECCAK256 PUSH1 0x0 DUP5 DUP2 MSTORE PUSH1 0x20 ADD SWAP1 DUP2 MSTORE PUSH1 0x20 ADD PUSH1 0x0 KECCAK256 SLOAD SWAP1 POP DUP1 PUSH1 0x6 PUSH1 0x0 DUP8 PUSH20 0xFFFFFFFFFFFFFFFFFFFFFFFFFFFFFFFFFFFFFFFF AND PUSH20 0xFFFFFFFFFFFFFFFFFFFFFFFFFFFFFFFFFFFFFFFF AND DUP2 MSTORE PUSH1 0x20 ADD SWAP1 DUP2 MSTORE PUSH1 0x20 ADD PUSH1 0x0 KECCAK256 PUSH1 0x0 DUP5 DUP2 MSTORE PUSH1 0x20 ADD SWAP1 DUP2 MSTORE PUSH1 0x20 ADD PUSH1 0x0 KECCAK256 DUP2 SWAP1 SSTORE POP DUP2 PUSH1 0x7 PUSH1 0x0 DUP4 DUP2 MSTORE PUSH1 0x20 ADD SWAP1 DUP2 MSTORE PUSH1 0x20 ADD PUSH1 0x0 KECCAK256 DUP2 SWAP1 SSTORE POP POP JUMPDEST PUSH1 0x7 PUSH1 0x0 DUP5 DUP2 MSTORE PUSH1 0x20 ADD SWAP1 DUP2 MSTORE PUSH1 0x20 ADD PUSH1 0x0 KECCAK256 PUSH1 0x0 SWAP1 SSTORE PUSH1 0x6 PUSH1 0x0 DUP6 PUSH20 0xFFFFFFFFFFFFFFFFFFFFFFFFFFFFFFFFFFFFFFFF AND PUSH20 0xFFFFFFFFFFFFFFFFFFFFFFFFFFFFFFFFFFFFFFFF AND DUP2 MSTORE PUSH1 0x20 ADD SWAP1 DUP2 MSTORE PUSH1 0x20 ADD PUSH1 0x0 KECCAK256 PUSH1 0x0 DUP4 DUP2 MSTORE PUSH1 0x20 ADD SWAP1 DUP2 MSTORE PUSH1 0x20 ADD PUSH1 0x0 KECCAK256 PUSH1 0x0 SWAP1 SSTORE POP POP POP POP JUMP JUMPDEST PUSH1 0x0 PUSH1 0x1 PUSH1 0x8 DUP1 SLOAD SWAP1 POP PUSH2 0x2C65 SWAP2 SWAP1 PUSH2 0x3C43 JUMP JUMPDEST SWAP1 POP PUSH1 0x0 PUSH1 0x9 PUSH1 0x0 DUP5 DUP2 MSTORE PUSH1 0x20 ADD SWAP1 DUP2 MSTORE PUSH1 0x20 ADD PUSH1 0x0 KECCAK256 SLOAD SWAP1 POP PUSH1 0x0 PUSH1 0x8 DUP4 DUP2 SLOAD DUP2 LT PUSH2 0x2C95 JUMPI PUSH2 0x2C94 PUSH2 0x3A7B JUMP JUMPDEST JUMPDEST SWAP1 PUSH1 0x0 MSTORE PUSH1 0x20 PUSH1 0x0 KECCAK256 ADD SLOAD SWAP1 POP DUP1 PUSH1 0x8 DUP4 DUP2 SLOAD DUP2 LT PUSH2 0x2CB7 JUMPI PUSH2 0x2CB6 PUSH2 0x3A7B JUMP JUMPDEST JUMPDEST SWAP1 PUSH1 0x0 MSTORE PUSH1 0x20 PUSH1 0x0 KECCAK256 ADD DUP2 SWAP1 SSTORE POP DUP2 PUSH1 0x9 PUSH1 0x0 DUP4 DUP2 MSTORE PUSH1 0x20 ADD SWAP1 DUP2 MSTORE PUSH1 0x20 ADD PUSH1 0x0 KECCAK256 DUP2 SWAP1 SSTORE POP PUSH1 0x9 PUSH1 0x0 DUP6 DUP2 MSTORE PUSH1 0x20 ADD SWAP1 DUP2 MSTORE PUSH1 0x20 ADD PUSH1 0x0 KECCAK256 PUSH1 0x0 SWAP1 SSTORE PUSH1 0x8 DUP1 SLOAD DUP1 PUSH2 0x2D06 JUMPI PUSH2 0x2D05 PUSH2 0x45F9 JUMP JUMPDEST JUMPDEST PUSH1 0x1 SWAP1 SUB DUP2 DUP2 SWAP1 PUSH1 0x0 MSTORE PUSH1 0x20 PUSH1 0x0 KECCAK256 ADD PUSH1 0x0 SWAP1 SSTORE SWAP1 SSTORE POP POP POP POP JUMP JUMPDEST PUSH1 0x0 PUSH2 0x2D2D DUP4 PUSH2 0xA56 JUMP JUMPDEST SWAP1 POP DUP2 PUSH1 0x6 PUSH1 0x0 DUP6 PUSH20 0xFFFFFFFFFFFFFFFFFFFFFFFFFFFFFFFFFFFFFFFF AND PUSH20 0xFFFFFFFFFFFFFFFFFFFFFFFFFFFFFFFFFFFFFFFF AND DUP2 MSTORE PUSH1 0x20 ADD SWAP1 DUP2 MSTORE PUSH1 0x20 ADD PUSH1 0x0 KECCAK256 PUSH1 0x0 DUP4 DUP2 MSTORE PUSH1 0x20 ADD SWAP1 DUP2 MSTORE PUSH1 0x20 ADD PUSH1 0x0 KECCAK256 DUP2 SWAP1 SSTORE POP DUP1 PUSH1 0x7 PUSH1 0x0 DUP5 DUP2 MSTORE PUSH1 0x20 ADD SWAP1 DUP2 MSTORE PUSH1 0x20 ADD PUSH1 0x0 KECCAK256 DUP2 SWAP1 SSTORE POP POP POP POP JUMP JUMPDEST PUSH1 0x60 PUSH2 0x2DB0 DUP5 DUP5 PUSH1 0x0 DUP6 PUSH2 0x2DDC JUMP JUMPDEST SWAP1 POP SWAP4 SWAP3 POP POP POP JUMP JUMPDEST PUSH1 0x0 DUP1 DUP3 PUSH20 0xFFFFFFFFFFFFFFFFFFFFFFFFFFFFFFFFFFFFFFFF AND EXTCODESIZE GT SWAP1 POP SWAP2 SWAP1 POP JUMP JUMPDEST PUSH1 0x60 DUP3 SELFBALANCE LT ISZERO PUSH2 0x2E21 JUMPI PUSH1 0x40 MLOAD PUSH32 0x8C379A000000000000000000000000000000000000000000000000000000000 DUP2 MSTORE PUSH1 0x4 ADD PUSH2 0x2E18 SWAP1 PUSH2 0x469A JUMP JUMPDEST PUSH1 0x40 MLOAD DUP1 SWAP2 SUB SWAP1 REVERT JUMPDEST PUSH1 0x0 DUP1 DUP7 PUSH20 0xFFFFFFFFFFFFFFFFFFFFFFFFFFFFFFFFFFFFFFFF AND DUP6 DUP8 PUSH1 0x40 MLOAD PUSH2 0x2E4A SWAP2 SWAP1 PUSH2 0x46F6 JUMP JUMPDEST PUSH1 0x0 PUSH1 0x40 MLOAD DUP1 DUP4 SUB DUP2 DUP6 DUP8 GAS CALL SWAP3 POP POP POP RETURNDATASIZE DUP1 PUSH1 0x0 DUP2 EQ PUSH2 0x2E87 JUMPI PUSH1 0x40 MLOAD SWAP2 POP PUSH1 0x1F NOT PUSH1 0x3F RETURNDATASIZE ADD AND DUP3 ADD PUSH1 0x40 MSTORE RETURNDATASIZE DUP3 MSTORE RETURNDATASIZE PUSH1 0x0 PUSH1 0x20 DUP5 ADD RETURNDATACOPY PUSH2 0x2E8C JUMP JUMPDEST PUSH1 0x60 SWAP2 POP JUMPDEST POP SWAP2 POP SWAP2 POP PUSH2 0x2E9D DUP8 DUP4 DUP4 DUP8 PUSH2 0x2EA9 JUMP JUMPDEST SWAP3 POP POP POP SWAP5 SWAP4 POP POP POP POP JUMP JUMPDEST PUSH1 0x60 DUP4 ISZERO PUSH2 0x2F0B JUMPI PUSH1 0x0 DUP4 MLOAD SUB PUSH2 0x2F03 JUMPI PUSH2 0x2EC3 DUP6 PUSH2 0x2DB9 JUMP JUMPDEST PUSH2 0x2F02 JUMPI PUSH1 0x40 MLOAD PUSH32 0x8C379A000000000000000000000000000000000000000000000000000000000 DUP2 MSTORE PUSH1 0x4 ADD PUSH2 0x2EF9 SWAP1 PUSH2 0x4759 JUMP JUMPDEST PUSH1 0x40 MLOAD DUP1 SWAP2 SUB SWAP1 REVERT JUMPDEST JUMPDEST DUP3 SWAP1 POP PUSH2 0x2F16 JUMP JUMPDEST PUSH2 0x2F15 DUP4 DUP4 PUSH2 0x2F1E JUMP JUMPDEST JUMPDEST SWAP5 SWAP4 POP POP POP POP JUMP JUMPDEST PUSH1 0x0 DUP3 MLOAD GT ISZERO PUSH2 0x2F31 JUMPI DUP2 MLOAD DUP1 DUP4 PUSH1 0x20 ADD REVERT JUMPDEST DUP1 PUSH1 0x40 MLOAD PUSH32 0x8C379A000000000000000000000000000000000000000000000000000000000 DUP2 MSTORE PUSH1 0x4 ADD PUSH2 0x2F65 SWAP2 SWAP1 PUSH2 0x3120 JUMP JUMPDEST PUSH1 0x40 MLOAD DUP1 SWAP2 SUB SWAP1 REVERT JUMPDEST PUSH1 0x40 MLOAD DUP1 PUSH1 0xE0 ADD PUSH1 0x40 MSTORE DUP1 PUSH1 0x0 DUP2 MSTORE PUSH1 0x20 ADD PUSH1 0x0 DUP2 MSTORE PUSH1 0x20 ADD PUSH1 0x0 DUP2 MSTORE PUSH1 0x20 ADD PUSH1 0x0 DUP2 MSTORE PUSH1 0x20 ADD PUSH1 0x0 DUP2 MSTORE PUSH1 0x20 ADD PUSH1 0x0 DUP2 MSTORE PUSH1 0x20 ADD PUSH1 0x0 PUSH20 0xFFFFFFFFFFFFFFFFFFFFFFFFFFFFFFFFFFFFFFFF AND DUP2 MSTORE POP SWAP1 JUMP JUMPDEST PUSH1 0x0 PUSH1 0x40 MLOAD SWAP1 POP SWAP1 JUMP JUMPDEST PUSH1 0x0 DUP1 REVERT JUMPDEST PUSH1 0x0 DUP1 REVERT JUMPDEST PUSH1 0x0 PUSH32 0xFFFFFFFF00000000000000000000000000000000000000000000000000000000 DUP3 AND SWAP1 POP SWAP2 SWAP1 POP JUMP JUMPDEST PUSH2 0x300A DUP2 PUSH2 0x2FD5 JUMP JUMPDEST DUP2 EQ PUSH2 0x3015 JUMPI PUSH1 0x0 DUP1 REVERT JUMPDEST POP JUMP JUMPDEST PUSH1 0x0 DUP2 CALLDATALOAD SWAP1 POP PUSH2 0x3027 DUP2 PUSH2 0x3001 JUMP JUMPDEST SWAP3 SWAP2 POP POP JUMP JUMPDEST PUSH1 0x0 PUSH1 0x20 DUP3 DUP5 SUB SLT ISZERO PUSH2 0x3043 JUMPI PUSH2 0x3042 PUSH2 0x2FCB JUMP JUMPDEST JUMPDEST PUSH1 0x0 PUSH2 0x3051 DUP5 DUP3 DUP6 ADD PUSH2 0x3018 JUMP JUMPDEST SWAP2 POP POP SWAP3 SWAP2 POP POP JUMP JUMPDEST PUSH1 0x0 DUP2 ISZERO ISZERO SWAP1 POP SWAP2 SWAP1 POP JUMP JUMPDEST PUSH2 0x306F DUP2 PUSH2 0x305A JUMP JUMPDEST DUP3 MSTORE POP POP JUMP JUMPDEST PUSH1 0x0 PUSH1 0x20 DUP3 ADD SWAP1 POP PUSH2 0x308A PUSH1 0x0 DUP4 ADD DUP5 PUSH2 0x3066 JUMP JUMPDEST SWAP3 SWAP2 POP POP JUMP JUMPDEST PUSH1 0x0 DUP2 MLOAD SWAP1 POP SWAP2 SWAP1 POP JUMP JUMPDEST PUSH1 0x0 DUP3 DUP3 MSTORE PUSH1 0x20 DUP3 ADD SWAP1 POP SWAP3 SWAP2 POP POP JUMP JUMPDEST PUSH1 0x0 JUMPDEST DUP4 DUP2 LT ISZERO PUSH2 0x30CA JUMPI DUP1 DUP3 ADD MLOAD DUP2 DUP5 ADD MSTORE PUSH1 0x20 DUP2 ADD SWAP1 POP PUSH2 0x30AF JUMP JUMPDEST PUSH1 0x0 DUP5 DUP5 ADD MSTORE POP POP POP POP JUMP JUMPDEST PUSH1 0x0 PUSH1 0x1F NOT PUSH1 0x1F DUP4 ADD AND SWAP1 POP SWAP2 SWAP1 POP JUMP JUMPDEST PUSH1 0x0 PUSH2 0x30F2 DUP3 PUSH2 0x3090 JUMP JUMPDEST PUSH2 0x30FC DUP2 DUP6 PUSH2 0x309B JUMP JUMPDEST SWAP4 POP PUSH2 0x310C DUP2 DUP6 PUSH1 0x20 DUP7 ADD PUSH2 0x30AC JUMP JUMPDEST PUSH2 0x3115 DUP2 PUSH2 0x30D6 JUMP JUMPDEST DUP5 ADD SWAP2 POP POP SWAP3 SWAP2 POP POP JUMP JUMPDEST PUSH1 0x0 PUSH1 0x20 DUP3 ADD SWAP1 POP DUP2 DUP2 SUB PUSH1 0x0 DUP4 ADD MSTORE PUSH2 0x313A DUP2 DUP5 PUSH2 0x30E7 JUMP JUMPDEST SWAP1 POP SWAP3 SWAP2 POP POP JUMP JUMPDEST PUSH1 0x0 DUP2 SWAP1 POP SWAP2 SWAP1 POP JUMP JUMPDEST PUSH2 0x3155 DUP2 PUSH2 0x3142 JUMP JUMPDEST DUP2 EQ PUSH2 0x3160 JUMPI PUSH1 0x0 DUP1 REVERT JUMPDEST POP JUMP JUMPDEST PUSH1 0x0 DUP2 CALLDATALOAD SWAP1 POP PUSH2 0x3172 DUP2 PUSH2 0x314C JUMP JUMPDEST SWAP3 SWAP2 POP POP JUMP JUMPDEST PUSH1 0x0 PUSH1 0x20 DUP3 DUP5 SUB SLT ISZERO PUSH2 0x318E JUMPI PUSH2 0x318D PUSH2 0x2FCB JUMP JUMPDEST JUMPDEST PUSH1 0x0 PUSH2 0x319C DUP5 DUP3 DUP6 ADD PUSH2 0x3163 JUMP JUMPDEST SWAP2 POP POP SWAP3 SWAP2 POP POP JUMP JUMPDEST PUSH1 0x0 PUSH20 0xFFFFFFFFFFFFFFFFFFFFFFFFFFFFFFFFFFFFFFFF DUP3 AND SWAP1 POP SWAP2 SWAP1 POP JUMP JUMPDEST PUSH1 0x0 PUSH2 0x31D0 DUP3 PUSH2 0x31A5 JUMP JUMPDEST SWAP1 POP SWAP2 SWAP1 POP JUMP JUMPDEST PUSH2 0x31E0 DUP2 PUSH2 0x31C5 JUMP JUMPDEST DUP3 MSTORE POP POP JUMP JUMPDEST PUSH1 0x0 PUSH1 0x20 DUP3 ADD SWAP1 POP PUSH2 0x31FB PUSH1 0x0 DUP4 ADD DUP5 PUSH2 0x31D7 JUMP JUMPDEST SWAP3 SWAP2 POP POP JUMP JUMPDEST PUSH2 0x320A DUP2 PUSH2 0x3142 JUMP JUMPDEST DUP3 MSTORE POP POP JUMP JUMPDEST PUSH1 0x0 PUSH1 0x40 DUP3 ADD SWAP1 POP PUSH2 0x3225 PUSH1 0x0 DUP4 ADD DUP6 PUSH2 0x3201 JUMP JUMPDEST PUSH2 0x3232 PUSH1 0x20 DUP4 ADD DUP5 PUSH2 0x3201 JUMP JUMPDEST SWAP4 SWAP3 POP POP POP JUMP JUMPDEST PUSH2 0x3242 DUP2 PUSH2 0x31C5 JUMP JUMPDEST DUP2 EQ PUSH2 0x324D JUMPI PUSH1 0x0 DUP1 REVERT JUMPDEST POP JUMP JUMPDEST PUSH1 0x0 DUP2 CALLDATALOAD SWAP1 POP PUSH2 0x325F DUP2 PUSH2 0x3239 JUMP JUMPDEST SWAP3 SWAP2 POP POP JUMP JUMPDEST PUSH1 0x0 DUP1 PUSH1 0x40 DUP4 DUP6 SUB SLT ISZERO PUSH2 0x327C JUMPI PUSH2 0x327B PUSH2 0x2FCB JUMP JUMPDEST JUMPDEST PUSH1 0x0 PUSH2 0x328A DUP6 DUP3 DUP7 ADD PUSH2 0x3250 JUMP JUMPDEST SWAP3 POP POP PUSH1 0x20 PUSH2 0x329B DUP6 DUP3 DUP7 ADD PUSH2 0x3163 JUMP JUMPDEST SWAP2 POP POP SWAP3 POP SWAP3 SWAP1 POP JUMP JUMPDEST PUSH1 0x0 PUSH1 0x20 DUP3 ADD SWAP1 POP PUSH2 0x32BA PUSH1 0x0 DUP4 ADD DUP5 PUSH2 0x3201 JUMP JUMPDEST SWAP3 SWAP2 POP POP JUMP JUMPDEST PUSH1 0x0 DUP1 PUSH1 0x0 PUSH1 0x60 DUP5 DUP7 SUB SLT ISZERO PUSH2 0x32D9 JUMPI PUSH2 0x32D8 PUSH2 0x2FCB JUMP JUMPDEST JUMPDEST PUSH1 0x0 PUSH2 0x32E7 DUP7 DUP3 DUP8 ADD PUSH2 0x3250 JUMP JUMPDEST SWAP4 POP POP PUSH1 0x20 PUSH2 0x32F8 DUP7 DUP3 DUP8 ADD PUSH2 0x3250 JUMP JUMPDEST SWAP3 POP POP PUSH1 0x40 PUSH2 0x3309 DUP7 DUP3 DUP8 ADD PUSH2 0x3163 JUMP JUMPDEST SWAP2 POP POP SWAP3 POP SWAP3 POP SWAP3 JUMP JUMPDEST PUSH1 0x0 PUSH1 0x20 DUP3 DUP5 SUB SLT ISZERO PUSH2 0x3329 JUMPI PUSH2 0x3328 PUSH2 0x2FCB JUMP JUMPDEST JUMPDEST PUSH1 0x0 PUSH2 0x3337 DUP5 DUP3 DUP6 ADD PUSH2 0x3250 JUMP JUMPDEST SWAP2 POP POP SWAP3 SWAP2 POP POP JUMP JUMPDEST PUSH1 0x0 PUSH1 0xE0 DUP3 ADD SWAP1 POP PUSH2 0x3355 PUSH1 0x0 DUP4 ADD DUP11 PUSH2 0x3201 JUMP JUMPDEST PUSH2 0x3362 PUSH1 0x20 DUP4 ADD DUP10 PUSH2 0x3201 JUMP JUMPDEST PUSH2 0x336F PUSH1 0x40 DUP4 ADD DUP9 PUSH2 0x3201 JUMP JUMPDEST PUSH2 0x337C PUSH1 0x60 DUP4 ADD DUP8 PUSH2 0x3201 JUMP JUMPDEST PUSH2 0x3389 PUSH1 0x80 DUP4 ADD DUP7 PUSH2 0x3201 JUMP JUMPDEST PUSH2 0x3396 PUSH1 0xA0 DUP4 ADD DUP6 PUSH2 0x3201 JUMP JUMPDEST PUSH2 0x33A3 PUSH1 0xC0 DUP4 ADD DUP5 PUSH2 0x31D7 JUMP JUMPDEST SWAP9 SWAP8 POP POP POP POP POP POP POP POP JUMP JUMPDEST PUSH2 0x33B8 DUP2 PUSH2 0x305A JUMP JUMPDEST DUP2 EQ PUSH2 0x33C3 JUMPI PUSH1 0x0 DUP1 REVERT JUMPDEST POP JUMP JUMPDEST PUSH1 0x0 DUP2 CALLDATALOAD SWAP1 POP PUSH2 0x33D5 DUP2 PUSH2 0x33AF JUMP JUMPDEST SWAP3 SWAP2 POP POP JUMP JUMPDEST PUSH1 0x0 DUP1 PUSH1 0x40 DUP4 DUP6 SUB SLT ISZERO PUSH2 0x33F2 JUMPI PUSH2 0x33F1 PUSH2 0x2FCB JUMP JUMPDEST JUMPDEST PUSH1 0x0 PUSH2 0x3400 DUP6 DUP3 DUP7 ADD PUSH2 0x3250 JUMP JUMPDEST SWAP3 POP POP PUSH1 0x20 PUSH2 0x3411 DUP6 DUP3 DUP7 ADD PUSH2 0x33C6 JUMP JUMPDEST SWAP2 POP POP SWAP3 POP SWAP3 SWAP1 POP JUMP JUMPDEST PUSH1 0x0 DUP1 PUSH1 0x0 DUP1 PUSH1 0x80 DUP6 DUP8 SUB SLT ISZERO PUSH2 0x3435 JUMPI PUSH2 0x3434 PUSH2 0x2FCB JUMP JUMPDEST JUMPDEST PUSH1 0x0 PUSH2 0x3443 DUP8 DUP3 DUP9 ADD PUSH2 0x3163 JUMP JUMPDEST SWAP5 POP POP PUSH1 0x20 PUSH2 0x3454 DUP8 DUP3 DUP9 ADD PUSH2 0x3163 JUMP JUMPDEST SWAP4 POP POP PUSH1 0x40 PUSH2 0x3465 DUP8 DUP3 DUP9 ADD PUSH2 0x3163 JUMP JUMPDEST SWAP3 POP POP PUSH1 0x60 PUSH2 0x3476 DUP8 DUP3 DUP9 ADD PUSH2 0x3163 JUMP JUMPDEST SWAP2 POP POP SWAP3 SWAP6 SWAP2 SWAP5 POP SWAP3 POP JUMP JUMPDEST PUSH1 0x0 DUP1 REVERT JUMPDEST PUSH1 0x0 DUP1 REVERT JUMPDEST PUSH32 0x4E487B7100000000000000000000000000000000000000000000000000000000 PUSH1 0x0 MSTORE PUSH1 0x41 PUSH1 0x4 MSTORE PUSH1 0x24 PUSH1 0x0 REVERT JUMPDEST PUSH2 0x34C4 DUP3 PUSH2 0x30D6 JUMP JUMPDEST DUP2 ADD DUP2 DUP2 LT PUSH8 0xFFFFFFFFFFFFFFFF DUP3 GT OR ISZERO PUSH2 0x34E3 JUMPI PUSH2 0x34E2 PUSH2 0x348C JUMP JUMPDEST JUMPDEST DUP1 PUSH1 0x40 MSTORE POP POP POP JUMP JUMPDEST PUSH1 0x0 PUSH2 0x34F6 PUSH2 0x2FC1 JUMP JUMPDEST SWAP1 POP PUSH2 0x3502 DUP3 DUP3 PUSH2 0x34BB JUMP JUMPDEST SWAP2 SWAP1 POP JUMP JUMPDEST PUSH1 0x0 PUSH8 0xFFFFFFFFFFFFFFFF DUP3 GT ISZERO PUSH2 0x3522 JUMPI PUSH2 0x3521 PUSH2 0x348C JUMP JUMPDEST JUMPDEST PUSH2 0x352B DUP3 PUSH2 0x30D6 JUMP JUMPDEST SWAP1 POP PUSH1 0x20 DUP2 ADD SWAP1 POP SWAP2 SWAP1 POP JUMP JUMPDEST DUP3 DUP2 DUP4 CALLDATACOPY PUSH1 0x0 DUP4 DUP4 ADD MSTORE POP POP POP JUMP JUMPDEST PUSH1 0x0 PUSH2 0x355A PUSH2 0x3555 DUP5 PUSH2 0x3507 JUMP JUMPDEST PUSH2 0x34EC JUMP JUMPDEST SWAP1 POP DUP3 DUP2 MSTORE PUSH1 0x20 DUP2 ADD DUP5 DUP5 DUP5 ADD GT ISZERO PUSH2 0x3576 JUMPI PUSH2 0x3575 PUSH2 0x3487 JUMP JUMPDEST JUMPDEST PUSH2 0x3581 DUP5 DUP3 DUP6 PUSH2 0x3538 JUMP JUMPDEST POP SWAP4 SWAP3 POP POP POP JUMP JUMPDEST PUSH1 0x0 DUP3 PUSH1 0x1F DUP4 ADD SLT PUSH2 0x359E JUMPI PUSH2 0x359D PUSH2 0x3482 JUMP JUMPDEST JUMPDEST DUP2 CALLDATALOAD PUSH2 0x35AE DUP5 DUP3 PUSH1 0x20 DUP7 ADD PUSH2 0x3547 JUMP JUMPDEST SWAP2 POP POP SWAP3 SWAP2 POP POP JUMP JUMPDEST PUSH1 0x0 DUP1 PUSH1 0x0 DUP1 PUSH1 0x80 DUP6 DUP8 SUB SLT ISZERO PUSH2 0x35D1 JUMPI PUSH2 0x35D0 PUSH2 0x2FCB JUMP JUMPDEST JUMPDEST PUSH1 0x0 PUSH2 0x35DF DUP8 DUP3 DUP9 ADD PUSH2 0x3250 JUMP JUMPDEST SWAP5 POP POP PUSH1 0x20 PUSH2 0x35F0 DUP8 DUP3 DUP9 ADD PUSH2 0x3250 JUMP JUMPDEST SWAP4 POP POP PUSH1 0x40 PUSH2 0x3601 DUP8 DUP3 DUP9 ADD PUSH2 0x3163 JUMP JUMPDEST SWAP3 POP POP PUSH1 0x60 DUP6 ADD CALLDATALOAD PUSH8 0xFFFFFFFFFFFFFFFF DUP2 GT ISZERO PUSH2 0x3622 JUMPI PUSH2 0x3621 PUSH2 0x2FD0 JUMP JUMPDEST JUMPDEST PUSH2 0x362E DUP8 DUP3 DUP9 ADD PUSH2 0x3589 JUMP JUMPDEST SWAP2 POP POP SWAP3 SWAP6 SWAP2 SWAP5 POP SWAP3 POP JUMP JUMPDEST PUSH1 0x0 DUP1 PUSH1 0x40 DUP4 DUP6 SUB SLT ISZERO PUSH2 0x3651 JUMPI PUSH2 0x3650 PUSH2 0x2FCB JUMP JUMPDEST JUMPDEST PUSH1 0x0 PUSH2 0x365F DUP6 DUP3 DUP7 ADD PUSH2 0x3250 JUMP JUMPDEST SWAP3 POP POP PUSH1 0x20 PUSH2 0x3670 DUP6 DUP3 DUP7 ADD PUSH2 0x3250 JUMP JUMPDEST SWAP2 POP POP SWAP3 POP SWAP3 SWAP1 POP JUMP JUMPDEST PUSH2 0x3683 DUP2 PUSH2 0x3142 JUMP JUMPDEST DUP3 MSTORE POP POP JUMP JUMPDEST PUSH2 0x3692 DUP2 PUSH2 0x31C5 JUMP JUMPDEST DUP3 MSTORE POP POP JUMP JUMPDEST PUSH1 0xE0 DUP3 ADD PUSH1 0x0 DUP3 ADD MLOAD PUSH2 0x36AE PUSH1 0x0 DUP6 ADD DUP3 PUSH2 0x367A JUMP JUMPDEST POP PUSH1 0x20 DUP3 ADD MLOAD PUSH2 0x36C1 PUSH1 0x20 DUP6 ADD DUP3 PUSH2 0x367A JUMP JUMPDEST POP PUSH1 0x40 DUP3 ADD MLOAD PUSH2 0x36D4 PUSH1 0x40 DUP6 ADD DUP3 PUSH2 0x367A JUMP JUMPDEST POP PUSH1 0x60 DUP3 ADD MLOAD PUSH2 0x36E7 PUSH1 0x60 DUP6 ADD DUP3 PUSH2 0x367A JUMP JUMPDEST POP PUSH1 0x80 DUP3 ADD MLOAD PUSH2 0x36FA PUSH1 0x80 DUP6 ADD DUP3 PUSH2 0x367A JUMP JUMPDEST POP PUSH1 0xA0 DUP3 ADD MLOAD PUSH2 0x370D PUSH1 0xA0 DUP6 ADD DUP3 PUSH2 0x367A JUMP JUMPDEST POP PUSH1 0xC0 DUP3 ADD MLOAD PUSH2 0x3720 PUSH1 0xC0 DUP6 ADD DUP3 PUSH2 0x3689 JUMP JUMPDEST POP POP POP POP JUMP JUMPDEST PUSH1 0x0 PUSH1 0xE0 DUP3 ADD SWAP1 POP PUSH2 0x373B PUSH1 0x0 DUP4 ADD DUP5 PUSH2 0x3698 JUMP JUMPDEST SWAP3 SWAP2 POP POP JUMP JUMPDEST PUSH32 0x4E487B7100000000000000000000000000000000000000000000000000000000 PUSH1 0x0 MSTORE PUSH1 0x22 PUSH1 0x4 MSTORE PUSH1 0x24 PUSH1 0x0 REVERT JUMPDEST PUSH1 0x0 PUSH1 0x2 DUP3 DIV SWAP1 POP PUSH1 0x1 DUP3 AND DUP1 PUSH2 0x3788 JUMPI PUSH1 0x7F DUP3 AND SWAP2 POP JUMPDEST PUSH1 0x20 DUP3 LT DUP2 SUB PUSH2 0x379B JUMPI PUSH2 0x379A PUSH2 0x3741 JUMP JUMPDEST JUMPDEST POP SWAP2 SWAP1 POP JUMP JUMPDEST PUSH32 0x4552433732313A20617070726F76616C20746F2063757272656E74206F776E65 PUSH1 0x0 DUP3 ADD MSTORE PUSH32 0x7200000000000000000000000000000000000000000000000000000000000000 PUSH1 0x20 DUP3 ADD MSTORE POP JUMP JUMPDEST PUSH1 0x0 PUSH2 0x37FD PUSH1 0x21 DUP4 PUSH2 0x309B JUMP JUMPDEST SWAP2 POP PUSH2 0x3808 DUP3 PUSH2 0x37A1 JUMP JUMPDEST PUSH1 0x40 DUP3 ADD SWAP1 POP SWAP2 SWAP1 POP JUMP JUMPDEST PUSH1 0x0 PUSH1 0x20 DUP3 ADD SWAP1 POP DUP2 DUP2 SUB PUSH1 0x0 DUP4 ADD MSTORE PUSH2 0x382C DUP2 PUSH2 0x37F0 JUMP JUMPDEST SWAP1 POP SWAP2 SWAP1 POP JUMP JUMPDEST PUSH32 0x4552433732313A20617070726F76652063616C6C6572206973206E6F7420746F PUSH1 0x0 DUP3 ADD MSTORE PUSH32 0x6B656E206F776E6572206F7220617070726F76656420666F7220616C6C000000 PUSH1 0x20 DUP3 ADD MSTORE POP JUMP JUMPDEST PUSH1 0x0 PUSH2 0x388F PUSH1 0x3D DUP4 PUSH2 0x309B JUMP JUMPDEST SWAP2 POP PUSH2 0x389A DUP3 PUSH2 0x3833 JUMP JUMPDEST PUSH1 0x40 DUP3 ADD SWAP1 POP SWAP2 SWAP1 POP JUMP JUMPDEST PUSH1 0x0 PUSH1 0x20 DUP3 ADD SWAP1 POP DUP2 DUP2 SUB PUSH1 0x0 DUP4 ADD MSTORE PUSH2 0x38BE DUP2 PUSH2 0x3882 JUMP JUMPDEST SWAP1 POP SWAP2 SWAP1 POP JUMP JUMPDEST PUSH32 0x4552433732313A2063616C6C6572206973206E6F7420746F6B656E206F776E65 PUSH1 0x0 DUP3 ADD MSTORE PUSH32 0x72206F7220617070726F76656400000000000000000000000000000000000000 PUSH1 0x20 DUP3 ADD MSTORE POP JUMP JUMPDEST PUSH1 0x0 PUSH2 0x3921 PUSH1 0x2D DUP4 PUSH2 0x309B JUMP JUMPDEST SWAP2 POP PUSH2 0x392C DUP3 PUSH2 0x38C5 JUMP JUMPDEST PUSH1 0x40 DUP3 ADD SWAP1 POP SWAP2 SWAP1 POP JUMP JUMPDEST PUSH1 0x0 PUSH1 0x20 DUP3 ADD SWAP1 POP DUP2 DUP2 SUB PUSH1 0x0 DUP4 ADD MSTORE PUSH2 0x3950 DUP2 PUSH2 0x3914 JUMP JUMPDEST SWAP1 POP SWAP2 SWAP1 POP JUMP JUMPDEST PUSH32 0x455243373231456E756D657261626C653A206F776E657220696E646578206F75 PUSH1 0x0 DUP3 ADD MSTORE PUSH32 0x74206F6620626F756E6473000000000000000000000000000000000000000000 PUSH1 0x20 DUP3 ADD MSTORE POP JUMP JUMPDEST PUSH1 0x0 PUSH2 0x39B3 PUSH1 0x2B DUP4 PUSH2 0x309B JUMP JUMPDEST SWAP2 POP PUSH2 0x39BE DUP3 PUSH2 0x3957 JUMP JUMPDEST PUSH1 0x40 DUP3 ADD SWAP1 POP SWAP2 SWAP1 POP JUMP JUMPDEST PUSH1 0x0 PUSH1 0x20 DUP3 ADD SWAP1 POP DUP2 DUP2 SUB PUSH1 0x0 DUP4 ADD MSTORE PUSH2 0x39E2 DUP2 PUSH2 0x39A6 JUMP JUMPDEST SWAP1 POP SWAP2 SWAP1 POP JUMP JUMPDEST PUSH32 0x455243373231456E756D657261626C653A20676C6F62616C20696E646578206F PUSH1 0x0 DUP3 ADD MSTORE PUSH32 0x7574206F6620626F756E64730000000000000000000000000000000000000000 PUSH1 0x20 DUP3 ADD MSTORE POP JUMP JUMPDEST PUSH1 0x0 PUSH2 0x3A45 PUSH1 0x2C DUP4 PUSH2 0x309B JUMP JUMPDEST SWAP2 POP PUSH2 0x3A50 DUP3 PUSH2 0x39E9 JUMP JUMPDEST PUSH1 0x40 DUP3 ADD SWAP1 POP SWAP2 SWAP1 POP JUMP JUMPDEST PUSH1 0x0 PUSH1 0x20 DUP3 ADD SWAP1 POP DUP2 DUP2 SUB PUSH1 0x0 DUP4 ADD MSTORE PUSH2 0x3A74 DUP2 PUSH2 0x3A38 JUMP JUMPDEST SWAP1 POP SWAP2 SWAP1 POP JUMP JUMPDEST PUSH32 0x4E487B7100000000000000000000000000000000000000000000000000000000 PUSH1 0x0 MSTORE PUSH1 0x32 PUSH1 0x4 MSTORE PUSH1 0x24 PUSH1 0x0 REVERT JUMPDEST PUSH32 0x4552433732313A20696E76616C696420746F6B656E2049440000000000000000 PUSH1 0x0 DUP3 ADD MSTORE POP JUMP JUMPDEST PUSH1 0x0 PUSH2 0x3AE0 PUSH1 0x18 DUP4 PUSH2 0x309B JUMP JUMPDEST SWAP2 POP PUSH2 0x3AEB DUP3 PUSH2 0x3AAA JUMP JUMPDEST PUSH1 0x20 DUP3 ADD SWAP1 POP SWAP2 SWAP1 POP JUMP JUMPDEST PUSH1 0x0 PUSH1 0x20 DUP3 ADD SWAP1 POP DUP2 DUP2 SUB PUSH1 0x0 DUP4 ADD MSTORE PUSH2 0x3B0F DUP2 PUSH2 0x3AD3 JUMP JUMPDEST SWAP1 POP SWAP2 SWAP1 POP JUMP JUMPDEST PUSH32 0x4552433732313A2061646472657373207A65726F206973206E6F742061207661 PUSH1 0x0 DUP3 ADD MSTORE PUSH32 0x6C6964206F776E65720000000000000000000000000000000000000000000000 PUSH1 0x20 DUP3 ADD MSTORE POP JUMP JUMPDEST PUSH1 0x0 PUSH2 0x3B72 PUSH1 0x29 DUP4 PUSH2 0x309B JUMP JUMPDEST SWAP2 POP PUSH2 0x3B7D DUP3 PUSH2 0x3B16 JUMP JUMPDEST PUSH1 0x40 DUP3 ADD SWAP1 POP SWAP2 SWAP1 POP JUMP JUMPDEST PUSH1 0x0 PUSH1 0x20 DUP3 ADD SWAP1 POP DUP2 DUP2 SUB PUSH1 0x0 DUP4 ADD MSTORE PUSH2 0x3BA1 DUP2 PUSH2 0x3B65 JUMP JUMPDEST SWAP1 POP SWAP2 SWAP1 POP JUMP JUMPDEST PUSH32 0x4F6E6C79206F776E65722063616E2072656D6F7665206C697175696469747900 PUSH1 0x0 DUP3 ADD MSTORE POP JUMP JUMPDEST PUSH1 0x0 PUSH2 0x3BDE PUSH1 0x1F DUP4 PUSH2 0x309B JUMP JUMPDEST SWAP2 POP PUSH2 0x3BE9 DUP3 PUSH2 0x3BA8 JUMP JUMPDEST PUSH1 0x20 DUP3 ADD SWAP1 POP SWAP2 SWAP1 POP JUMP JUMPDEST PUSH1 0x0 PUSH1 0x20 DUP3 ADD SWAP1 POP DUP2 DUP2 SUB PUSH1 0x0 DUP4 ADD MSTORE PUSH2 0x3C0D DUP2 PUSH2 0x3BD1 JUMP JUMPDEST SWAP1 POP SWAP2 SWAP1 POP JUMP JUMPDEST PUSH32 0x4E487B7100000000000000000000000000000000000000000000000000000000 PUSH1 0x0 MSTORE PUSH1 0x11 PUSH1 0x4 MSTORE PUSH1 0x24 PUSH1 0x0 REVERT JUMPDEST PUSH1 0x0 PUSH2 0x3C4E DUP3 PUSH2 0x3142 JUMP JUMPDEST SWAP2 POP PUSH2 0x3C59 DUP4 PUSH2 0x3142 JUMP JUMPDEST SWAP3 POP DUP3 DUP3 SUB SWAP1 POP DUP2 DUP2 GT ISZERO PUSH2 0x3C71 JUMPI PUSH2 0x3C70 PUSH2 0x3C14 JUMP JUMPDEST JUMPDEST SWAP3 SWAP2 POP POP JUMP JUMPDEST PUSH1 0x0 PUSH2 0x3C82 DUP3 PUSH2 0x3142 JUMP JUMPDEST SWAP2 POP PUSH2 0x3C8D DUP4 PUSH2 0x3142 JUMP JUMPDEST SWAP3 POP DUP3 DUP3 ADD SWAP1 POP DUP1 DUP3 GT ISZERO PUSH2 0x3CA5 JUMPI PUSH2 0x3CA4 PUSH2 0x3C14 JUMP JUMPDEST JUMPDEST SWAP3 SWAP2 POP POP JUMP JUMPDEST PUSH32 0x416D6F756E7473206D757374206265203E203000000000000000000000000000 PUSH1 0x0 DUP3 ADD MSTORE POP JUMP JUMPDEST PUSH1 0x0 PUSH2 0x3CE1 PUSH1 0x13 DUP4 PUSH2 0x309B JUMP JUMPDEST SWAP2 POP PUSH2 0x3CEC DUP3 PUSH2 0x3CAB JUMP JUMPDEST PUSH1 0x20 DUP3 ADD SWAP1 POP SWAP2 SWAP1 POP JUMP JUMPDEST PUSH1 0x0 PUSH1 0x20 DUP3 ADD SWAP1 POP DUP2 DUP2 SUB PUSH1 0x0 DUP4 ADD MSTORE PUSH2 0x3D10 DUP2 PUSH2 0x3CD4 JUMP JUMPDEST SWAP1 POP SWAP2 SWAP1 POP JUMP JUMPDEST PUSH32 0x496E76616C69642070726963652072616E676500000000000000000000000000 PUSH1 0x0 DUP3 ADD MSTORE POP JUMP JUMPDEST PUSH1 0x0 PUSH2 0x3D4D PUSH1 0x13 DUP4 PUSH2 0x309B JUMP JUMPDEST SWAP2 POP PUSH2 0x3D58 DUP3 PUSH2 0x3D17 JUMP JUMPDEST PUSH1 0x20 DUP3 ADD SWAP1 POP SWAP2 SWAP1 POP JUMP JUMPDEST PUSH1 0x0 PUSH1 0x20 DUP3 ADD SWAP1 POP DUP2 DUP2 SUB PUSH1 0x0 DUP4 ADD MSTORE PUSH2 0x3D7C DUP2 PUSH2 0x3D40 JUMP JUMPDEST SWAP1 POP SWAP2 SWAP1 POP JUMP JUMPDEST PUSH1 0x0 PUSH2 0x3D8E DUP3 PUSH2 0x3142 JUMP JUMPDEST SWAP2 POP PUSH32 0xFFFFFFFFFFFFFFFFFFFFFFFFFFFFFFFFFFFFFFFFFFFFFFFFFFFFFFFFFFFFFFFF DUP3 SUB PUSH2 0x3DC0 JUMPI PUSH2 0x3DBF PUSH2 0x3C14 JUMP JUMPDEST JUMPDEST PUSH1 0x1 DUP3 ADD SWAP1 POP SWAP2 SWAP1 POP JUMP JUMPDEST PUSH1 0x0 DUP2 SWAP1 POP SWAP3 SWAP2 POP POP JUMP JUMPDEST PUSH1 0x0 PUSH2 0x3DE1 DUP3 PUSH2 0x3090 JUMP JUMPDEST PUSH2 0x3DEB DUP2 DUP6 PUSH2 0x3DCB JUMP JUMPDEST SWAP4 POP PUSH2 0x3DFB DUP2 DUP6 PUSH1 0x20 DUP7 ADD PUSH2 0x30AC JUMP JUMPDEST DUP1 DUP5 ADD SWAP2 POP POP SWAP3 SWAP2 POP POP JUMP JUMPDEST PUSH1 0x0 PUSH2 0x3E13 DUP3 DUP6 PUSH2 0x3DD6 JUMP JUMPDEST SWAP2 POP PUSH2 0x3E1F DUP3 DUP5 PUSH2 0x3DD6 JUMP JUMPDEST SWAP2 POP DUP2 SWAP1 POP SWAP4 SWAP3 POP POP POP JUMP JUMPDEST PUSH32 0x496E76616C696420746F6B656E00000000000000000000000000000000000000 PUSH1 0x0 DUP3 ADD MSTORE POP JUMP JUMPDEST PUSH1 0x0 PUSH2 0x3E61 PUSH1 0xD DUP4 PUSH2 0x309B JUMP JUMPDEST SWAP2 POP PUSH2 0x3E6C DUP3 PUSH2 0x3E2B JUMP JUMPDEST PUSH1 0x20 DUP3 ADD SWAP1 POP SWAP2 SWAP1 POP JUMP JUMPDEST PUSH1 0x0 PUSH1 0x20 DUP3 ADD SWAP1 POP DUP2 DUP2 SUB PUSH1 0x0 DUP4 ADD MSTORE PUSH2 0x3E90 DUP2 PUSH2 0x3E54 JUMP JUMPDEST SWAP1 POP SWAP2 SWAP1 POP JUMP JUMPDEST PUSH32 0x416D6F756E74206D757374206265203E20300000000000000000000000000000 PUSH1 0x0 DUP3 ADD MSTORE POP JUMP JUMPDEST PUSH1 0x0 PUSH2 0x3ECD PUSH1 0x12 DUP4 PUSH2 0x309B JUMP JUMPDEST SWAP2 POP PUSH2 0x3ED8 DUP3 PUSH2 0x3E97 JUMP JUMPDEST PUSH1 0x20 DUP3 ADD SWAP1 POP SWAP2 SWAP1 POP JUMP JUMPDEST PUSH1 0x0 PUSH1 0x20 DUP3 ADD SWAP1 POP DUP2 DUP2 SUB PUSH1 0x0 DUP4 ADD MSTORE PUSH2 0x3EFC DUP2 PUSH2 0x3EC0 JUMP JUMPDEST SWAP1 POP SWAP2 SWAP1 POP JUMP JUMPDEST PUSH1 0x0 PUSH2 0x3F0E DUP3 PUSH2 0x3142 JUMP JUMPDEST SWAP2 POP PUSH2 0x3F19 DUP4 PUSH2 0x3142 JUMP JUMPDEST SWAP3 POP DUP3 DUP3 MUL PUSH2 0x3F27 DUP2 PUSH2 0x3142 JUMP JUMPDEST SWAP2 POP DUP3 DUP3 DIV DUP5 EQ DUP4 ISZERO OR PUSH2 0x3F3E JUMPI PUSH2 0x3F3D PUSH2 0x3C14 JUMP JUMPDEST JUMPDEST POP SWAP3 SWAP2 POP POP JUMP JUMPDEST PUSH32 0x4E487B7100000000000000000000000000000000000000000000000000000000 PUSH1 0x0 MSTORE PUSH1 0x12 PUSH1 0x4 MSTORE PUSH1 0x24 PUSH1 0x0 REVERT JUMPDEST PUSH1 0x0 PUSH2 0x3F7F DUP3 PUSH2 0x3142 JUMP JUMPDEST SWAP2 POP PUSH2 0x3F8A DUP4 PUSH2 0x3142 JUMP JUMPDEST SWAP3 POP DUP3 PUSH2 0x3F9A JUMPI PUSH2 0x3F99 PUSH2 0x3F45 JUMP JUMPDEST JUMPDEST DUP3 DUP3 DIV SWAP1 POP SWAP3 SWAP2 POP POP JUMP JUMPDEST PUSH32 0x496E73756666696369656E74206C697175696469747900000000000000000000 PUSH1 0x0 DUP3 ADD MSTORE POP JUMP JUMPDEST PUSH1 0x0 PUSH2 0x3FDB PUSH1 0x16 DUP4 PUSH2 0x309B JUMP JUMPDEST SWAP2 POP PUSH2 0x3FE6 DUP3 PUSH2 0x3FA5 JUMP JUMPDEST PUSH1 0x20 DUP3 ADD SWAP1 POP SWAP2 SWAP1 POP JUMP JUMPDEST PUSH1 0x0 PUSH1 0x20 DUP3 ADD SWAP1 POP DUP2 DUP2 SUB PUSH1 0x0 DUP4 ADD MSTORE PUSH2 0x400A DUP2 PUSH2 0x3FCE JUMP JUMPDEST SWAP1 POP SWAP2 SWAP1 POP JUMP JUMPDEST PUSH1 0x0 PUSH1 0x80 DUP3 ADD SWAP1 POP PUSH2 0x4026 PUSH1 0x0 DUP4 ADD DUP8 PUSH2 0x31D7 JUMP JUMPDEST PUSH2 0x4033 PUSH1 0x20 DUP4 ADD DUP7 PUSH2 0x31D7 JUMP JUMPDEST PUSH2 0x4040 PUSH1 0x40 DUP4 ADD DUP6 PUSH2 0x3201 JUMP JUMPDEST PUSH2 0x404D PUSH1 0x60 DUP4 ADD DUP5 PUSH2 0x3201 JUMP JUMPDEST SWAP6 SWAP5 POP POP POP POP POP JUMP JUMPDEST PUSH32 0x4552433732313A207472616E736665722066726F6D20696E636F727265637420 PUSH1 0x0 DUP3 ADD MSTORE PUSH32 0x6F776E6572000000000000000000000000000000000000000000000000000000 PUSH1 0x20 DUP3 ADD MSTORE POP JUMP JUMPDEST PUSH1 0x0 PUSH2 0x40B2 PUSH1 0x25 DUP4 PUSH2 0x309B JUMP JUMPDEST SWAP2 POP PUSH2 0x40BD DUP3 PUSH2 0x4056 JUMP JUMPDEST PUSH1 0x40 DUP3 ADD SWAP1 POP SWAP2 SWAP1 POP JUMP JUMPDEST PUSH1 0x0 PUSH1 0x20 DUP3 ADD SWAP1 POP DUP2 DUP2 SUB PUSH1 0x0 DUP4 ADD MSTORE PUSH2 0x40E1 DUP2 PUSH2 0x40A5 JUMP JUMPDEST SWAP1 POP SWAP2 SWAP1 POP JUMP JUMPDEST PUSH32 0x4552433732313A207472616E7366657220746F20746865207A65726F20616464 PUSH1 0x0 DUP3 ADD MSTORE PUSH32 0x7265737300000000000000000000000000000000000000000000000000000000 PUSH1 0x20 DUP3 ADD MSTORE POP JUMP JUMPDEST PUSH1 0x0 PUSH2 0x4144 PUSH1 0x24 DUP4 PUSH2 0x309B JUMP JUMPDEST SWAP2 POP PUSH2 0x414F DUP3 PUSH2 0x40E8 JUMP JUMPDEST PUSH1 0x40 DUP3 ADD SWAP1 POP SWAP2 SWAP1 POP JUMP JUMPDEST PUSH1 0x0 PUSH1 0x20 DUP3 ADD SWAP1 POP DUP2 DUP2 SUB PUSH1 0x0 DUP4 ADD MSTORE PUSH2 0x4173 DUP2 PUSH2 0x4137 JUMP JUMPDEST SWAP1 POP SWAP2 SWAP1 POP JUMP JUMPDEST PUSH1 0x0 PUSH1 0x40 DUP3 ADD SWAP1 POP PUSH2 0x418F PUSH1 0x0 DUP4 ADD DUP6 PUSH2 0x31D7 JUMP JUMPDEST PUSH2 0x419C PUSH1 0x20 DUP4 ADD DUP5 PUSH2 0x3201 JUMP JUMPDEST SWAP4 SWAP3 POP POP POP JUMP JUMPDEST PUSH32 0x4552433732313A20617070726F766520746F2063616C6C657200000000000000 PUSH1 0x0 DUP3 ADD MSTORE POP JUMP JUMPDEST PUSH1 0x0 PUSH2 0x41D9 PUSH1 0x19 DUP4 PUSH2 0x309B JUMP JUMPDEST SWAP2 POP PUSH2 0x41E4 DUP3 PUSH2 0x41A3 JUMP JUMPDEST PUSH1 0x20 DUP3 ADD SWAP1 POP SWAP2 SWAP1 POP JUMP JUMPDEST PUSH1 0x0 PUSH1 0x20 DUP3 ADD SWAP1 POP DUP2 DUP2 SUB PUSH1 0x0 DUP4 ADD MSTORE PUSH2 0x4208 DUP2 PUSH2 0x41CC JUMP JUMPDEST SWAP1 POP SWAP2 SWAP1 POP JUMP JUMPDEST PUSH1 0x0 PUSH1 0x60 DUP3 ADD SWAP1 POP PUSH2 0x4224 PUSH1 0x0 DUP4 ADD DUP7 PUSH2 0x31D7 JUMP JUMPDEST PUSH2 0x4231 PUSH1 0x20 DUP4 ADD DUP6 PUSH2 0x31D7 JUMP JUMPDEST PUSH2 0x423E PUSH1 0x40 DUP4 ADD DUP5 PUSH2 0x3201 JUMP JUMPDEST SWAP5 SWAP4 POP POP POP POP JUMP JUMPDEST PUSH32 0x4552433732313A206D696E7420746F20746865207A65726F2061646472657373 PUSH1 0x0 DUP3 ADD MSTORE POP JUMP JUMPDEST PUSH1 0x0 PUSH2 0x427C PUSH1 0x20 DUP4 PUSH2 0x309B JUMP JUMPDEST SWAP2 POP PUSH2 0x4287 DUP3 PUSH2 0x4246 JUMP JUMPDEST PUSH1 0x20 DUP3 ADD SWAP1 POP SWAP2 SWAP1 POP JUMP JUMPDEST PUSH1 0x0 PUSH1 0x20 DUP3 ADD SWAP1 POP DUP2 DUP2 SUB PUSH1 0x0 DUP4 ADD MSTORE PUSH2 0x42AB DUP2 PUSH2 0x426F JUMP JUMPDEST SWAP1 POP SWAP2 SWAP1 POP JUMP JUMPDEST PUSH32 0x4552433732313A20746F6B656E20616C7265616479206D696E74656400000000 PUSH1 0x0 DUP3 ADD MSTORE POP JUMP JUMPDEST PUSH1 0x0 PUSH2 0x42E8 PUSH1 0x1C DUP4 PUSH2 0x309B JUMP JUMPDEST SWAP2 POP PUSH2 0x42F3 DUP3 PUSH2 0x42B2 JUMP JUMPDEST PUSH1 0x20 DUP3 ADD SWAP1 POP SWAP2 SWAP1 POP JUMP JUMPDEST PUSH1 0x0 PUSH1 0x20 DUP3 ADD SWAP1 POP DUP2 DUP2 SUB PUSH1 0x0 DUP4 ADD MSTORE PUSH2 0x4317 DUP2 PUSH2 0x42DB JUMP JUMPDEST SWAP1 POP SWAP2 SWAP1 POP JUMP JUMPDEST PUSH32 0x4552433732313A207472616E7366657220746F206E6F6E204552433732315265 PUSH1 0x0 DUP3 ADD MSTORE PUSH32 0x63656976657220696D706C656D656E7465720000000000000000000000000000 PUSH1 0x20 DUP3 ADD MSTORE POP JUMP JUMPDEST PUSH1 0x0 PUSH2 0x437A PUSH1 0x32 DUP4 PUSH2 0x309B JUMP JUMPDEST SWAP2 POP PUSH2 0x4385 DUP3 PUSH2 0x431E JUMP JUMPDEST PUSH1 0x40 DUP3 ADD SWAP1 POP SWAP2 SWAP1 POP JUMP JUMPDEST PUSH1 0x0 PUSH1 0x20 DUP3 ADD SWAP1 POP DUP2 DUP2 SUB PUSH1 0x0 DUP4 ADD MSTORE PUSH2 0x43A9 DUP2 PUSH2 0x436D JUMP JUMPDEST SWAP1 POP SWAP2 SWAP1 POP JUMP JUMPDEST PUSH32 0x455243373231456E756D657261626C653A20636F6E7365637574697665207472 PUSH1 0x0 DUP3 ADD MSTORE PUSH32 0x616E7366657273206E6F7420737570706F727465640000000000000000000000 PUSH1 0x20 DUP3 ADD MSTORE POP JUMP JUMPDEST PUSH1 0x0 PUSH2 0x440C PUSH1 0x35 DUP4 PUSH2 0x309B JUMP JUMPDEST SWAP2 POP PUSH2 0x4417 DUP3 PUSH2 0x43B0 JUMP JUMPDEST PUSH1 0x40 DUP3 ADD SWAP1 POP SWAP2 SWAP1 POP JUMP JUMPDEST PUSH1 0x0 PUSH1 0x20 DUP3 ADD SWAP1 POP DUP2 DUP2 SUB PUSH1 0x0 DUP4 ADD MSTORE PUSH2 0x443B DUP2 PUSH2 0x43FF JUMP JUMPDEST SWAP1 POP SWAP2 SWAP1 POP JUMP JUMPDEST PUSH1 0x0 DUP2 MLOAD SWAP1 POP PUSH2 0x4451 DUP2 PUSH2 0x33AF JUMP JUMPDEST SWAP3 SWAP2 POP POP JUMP JUMPDEST PUSH1 0x0 PUSH1 0x20 DUP3 DUP5 SUB SLT ISZERO PUSH2 0x446D JUMPI PUSH2 0x446C PUSH2 0x2FCB JUMP JUMPDEST JUMPDEST PUSH1 0x0 PUSH2 0x447B DUP5 DUP3 DUP6 ADD PUSH2 0x4442 JUMP JUMPDEST SWAP2 POP POP SWAP3 SWAP2 POP POP JUMP JUMPDEST PUSH32 0x5361666545524332303A204552433230206F7065726174696F6E20646964206E PUSH1 0x0 DUP3 ADD MSTORE PUSH32 0x6F74207375636365656400000000000000000000000000000000000000000000 PUSH1 0x20 DUP3 ADD MSTORE POP JUMP JUMPDEST PUSH1 0x0 PUSH2 0x44E0 PUSH1 0x2A DUP4 PUSH2 0x309B JUMP JUMPDEST SWAP2 POP PUSH2 0x44EB DUP3 PUSH2 0x4484 JUMP JUMPDEST PUSH1 0x40 DUP3 ADD SWAP1 POP SWAP2 SWAP1 POP JUMP JUMPDEST PUSH1 0x0 PUSH1 0x20 DUP3 ADD SWAP1 POP DUP2 DUP2 SUB PUSH1 0x0 DUP4 ADD MSTORE PUSH2 0x450F DUP2 PUSH2 0x44D3 JUMP JUMPDEST SWAP1 POP SWAP2 SWAP1 POP JUMP JUMPDEST PUSH1 0x0 DUP2 MLOAD SWAP1 POP SWAP2 SWAP1 POP JUMP JUMPDEST PUSH1 0x0 DUP3 DUP3 MSTORE PUSH1 0x20 DUP3 ADD SWAP1 POP SWAP3 SWAP2 POP POP JUMP JUMPDEST PUSH1 0x0 PUSH2 0x453D DUP3 PUSH2 0x4516 JUMP JUMPDEST PUSH2 0x4547 DUP2 DUP6 PUSH2 0x4521 JUMP JUMPDEST SWAP4 POP PUSH2 0x4557 DUP2 DUP6 PUSH1 0x20 DUP7 ADD PUSH2 0x30AC JUMP JUMPDEST PUSH2 0x4560 DUP2 PUSH2 0x30D6 JUMP JUMPDEST DUP5 ADD SWAP2 POP POP SWAP3 SWAP2 POP POP JUMP JUMPDEST PUSH1 0x0 PUSH1 0x80 DUP3 ADD SWAP1 POP PUSH2 0x4580 PUSH1 0x0 DUP4 ADD DUP8 PUSH2 0x31D7 JUMP JUMPDEST PUSH2 0x458D PUSH1 0x20 DUP4 ADD DUP7 PUSH2 0x31D7 JUMP JUMPDEST PUSH2 0x459A PUSH1 0x40 DUP4 ADD DUP6 PUSH2 0x3201 JUMP JUMPDEST DUP2 DUP2 SUB PUSH1 0x60 DUP4 ADD MSTORE PUSH2 0x45AC DUP2 DUP5 PUSH2 0x4532 JUMP JUMPDEST SWAP1 POP SWAP6 SWAP5 POP POP POP POP POP JUMP JUMPDEST PUSH1 0x0 DUP2 MLOAD SWAP1 POP PUSH2 0x45C6 DUP2 PUSH2 0x3001 JUMP JUMPDEST SWAP3 SWAP2 POP POP JUMP JUMPDEST PUSH1 0x0 PUSH1 0x20 DUP3 DUP5 SUB SLT ISZERO PUSH2 0x45E2 JUMPI PUSH2 0x45E1 PUSH2 0x2FCB JUMP JUMPDEST JUMPDEST PUSH1 0x0 PUSH2 0x45F0 DUP5 DUP3 DUP6 ADD PUSH2 0x45B7 JUMP JUMPDEST SWAP2 POP POP SWAP3 SWAP2 POP POP JUMP JUMPDEST PUSH32 0x4E487B7100000000000000000000000000000000000000000000000000000000 PUSH1 0x0 MSTORE PUSH1 0x31 PUSH1 0x4 MSTORE PUSH1 0x24 PUSH1 0x0 REVERT JUMPDEST PUSH32 0x416464726573733A20696E73756666696369656E742062616C616E636520666F PUSH1 0x0 DUP3 ADD MSTORE PUSH32 0x722063616C6C0000000000000000000000000000000000000000000000000000 PUSH1 0x20 DUP3 ADD MSTORE POP JUMP JUMPDEST PUSH1 0x0 PUSH2 0x4684 PUSH1 0x26 DUP4 PUSH2 0x309B JUMP JUMPDEST SWAP2 POP PUSH2 0x468F DUP3 PUSH2 0x4628 JUMP JUMPDEST PUSH1 0x40 DUP3 ADD SWAP1 POP SWAP2 SWAP1 POP JUMP JUMPDEST PUSH1 0x0 PUSH1 0x20 DUP3 ADD SWAP1 POP DUP2 DUP2 SUB PUSH1 0x0 DUP4 ADD MSTORE PUSH2 0x46B3 DUP2 PUSH2 0x4677 JUMP JUMPDEST SWAP1 POP SWAP2 SWAP1 POP JUMP JUMPDEST PUSH1 0x0 DUP2 SWAP1 POP SWAP3 SWAP2 POP POP JUMP JUMPDEST PUSH1 0x0 PUSH2 0x46D0 DUP3 PUSH2 0x4516 JUMP JUMPDEST PUSH2 0x46DA DUP2 DUP6 PUSH2 0x46BA JUMP JUMPDEST SWAP4 POP PUSH2 0x46EA DUP2 DUP6 PUSH1 0x20 DUP7 ADD PUSH2 0x30AC JUMP JUMPDEST DUP1 DUP5 ADD SWAP2 POP POP SWAP3 SWAP2 POP POP JUMP JUMPDEST PUSH1 0x0 PUSH2 0x4702 DUP3 DUP5 PUSH2 0x46C5 JUMP JUMPDEST SWAP2 POP DUP2 SWAP1 POP SWAP3 SWAP2 POP POP JUMP JUMPDEST PUSH32 0x416464726573733A2063616C6C20746F206E6F6E2D636F6E7472616374000000 PUSH1 0x0 DUP3 ADD MSTORE POP JUMP JUMPDEST PUSH1 0x0 PUSH2 0x4743 PUSH1 0x1D DUP4 PUSH2 0x309B JUMP JUMPDEST SWAP2 POP PUSH2 0x474E DUP3 PUSH2 0x470D JUMP JUMPDEST PUSH1 0x20 DUP3 ADD SWAP1 POP SWAP2 SWAP1 POP JUMP JUMPDEST PUSH1 0x0 PUSH1 0x20 DUP3 ADD SWAP1 POP DUP2 DUP2 SUB PUSH1 0x0 DUP4 ADD MSTORE PUSH2 0x4772 DUP2 PUSH2 0x4736 JUMP JUMPDEST SWAP1 POP SWAP2 SWAP1 POP JUMP INVALID LOG2 PUSH5 0x6970667358 0x22 SLT KECCAK256 SWAP2 MSIZE SHL 0x4A SHR EXP 0xC8 0xCB 0x2A BASEFEE 0xD1 0xE6 DUP9 0xB4 0xCF DUP1 GASPRICE PUSH20 0x31B9A1DAA6873733248816EAFA0364736F6C6343 STOP ADDMOD GT STOP CALLER "},"methodIdentifiers":{"addLiquidity(uint256,uint256,uint256,uint256)":"aebf3e41","approve(address,uint256)":"095ea7b3","balanceOf(address)":"70a08231","feeRate()":"978bbdb9","getApproved(uint256)":"081812fc","getPosition(uint256)":"eb02c301","getReserves()":"0902f1ac","isApprovedForAll(address,address)":"e985e9c5","name()":"06fdde03","ownerOf(uint256)":"6352211e","positions(uint256)":"99fbab88","removeLiquidity(uint256)":"9c8f9f23","reserve0()":"443cb4bc","reserve1()":"5a76f25e","safeTransferFrom(address,address,uint256)":"42842e0e","safeTransferFrom(address,address,uint256,bytes)":"b88d4fde","setApprovalForAll(address,bool)":"a22cb465","supportsInterface(bytes4)":"01ffc9a7","swap(address,uint256)":"d004f0f7","symbol()":"95d89b41","token0()":"0dfe1681","token1()":"d21220a7","tokenByIndex(uint256)":"4f6ccce7","tokenOfOwnerByIndex(address,uint256)":"2f745c59","tokenURI(uint256)":"c87b56dd","totalSupply()":"18160ddd","transferFrom(address,address,uint256)":"23b872dd"}}}}}