{
  "_format": "hh-sol-artifact-1",
  "contractName": "PoolFactory",
  "sourceName": "contracts/PoolFactory.sol",
  "abi": [
    {
      "inputs": [],
      "stateMutability": "nonpayable",
      "type": "constructor"
    },
    {
      "anonymous": false,
      "inputs": [
        {
          "indexed": true,
          "internalType": "address",
          "name": "token0",
          "type": "address"
        },
        {
          "indexed": true,
          "internalType": "address",
          "name": "token1",
          "type": "address"
        },
        {
          "indexed": false,
          "internalType": "address",
          "name": "pool",
          "type": "address"
        }
      ],
      "name": "PoolCreated",
      "type": "event"
    },
    {
      "inputs": [
        {
          "internalType": "uint256",
          "name": "",
          "type": "uint256"
        }
      ],
      "name": "allPools",
      "outputs": [
        {
          "internalType": "address",
          "name": "",
          "type": "address"
        }
      ],
      "stateMutability": "view",
      "type": "function"
    },
    {
      "inputs": [
        {
          "internalType": "address",
          "name": "token0",
          "type": "address"
        },
        {
          "internalType": "address",
          "name": "token1",
          "type": "address"
        },
        {
          "internalType": "uint256",
          "name": "feeRate",
          "type": "uint256"
        }
      ],
      "name": "createPool",
      "outputs": [
        {
          "internalType": "address",
          "name": "",
          "type": "address"
        }
      ],
      "stateMutability": "nonpayable",
      "type": "function"
    },
    {
      "inputs": [],
      "name": "getPools",
      "outputs": [
        {
          "internalType": "address[]",
          "name": "",
          "type": "address[]"
        }
      ],
      "stateMutability": "view",
      "type": "function"
    },
    {
      "inputs": [],
      "name": "owner",
      "outputs": [
        {
          "internalType": "address",
          "name": "",
          "type": "address"
        }
      ],
      "stateMutability": "view",
      "type": "function"
    }
  ],
  "bytecode": "0x608060405234801561001057600080fd5b50336000806101000a81548173ffffffffffffffffffffffffffffffffffffffff021916908373ffffffffffffffffffffffffffffffffffffffff1602179055506154e1806100606000396000f3fe60806040523480156200001157600080fd5b5060043610620000525760003560e01c806341d1de97146200005757806351810fb5146200008d578063673a2a1f14620000c35780638da5cb5b14620000e5575b600080fd5b6200007560048036038101906200006f9190620003f3565b62000107565b6040516200008491906200046a565b60405180910390f35b620000ab6004803603810190620000a59190620004b8565b62000147565b604051620000ba91906200046a565b60405180910390f35b620000cd620002f1565b604051620000dc9190620005e2565b60405180910390f35b620000ef62000381565b604051620000fe91906200046a565b60405180910390f35b600181815481106200011857600080fd5b906000526020600020016000915054906101000a900473ffffffffffffffffffffffffffffffffffffffff1681565b60008060009054906101000a900473ffffffffffffffffffffffffffffffffffffffff1673ffffffffffffffffffffffffffffffffffffffff163373ffffffffffffffffffffffffffffffffffffffff1614620001db576040517f08c379a0000000000000000000000000000000000000000000000000000000008152600401620001d29062000667565b60405180910390fd5b6000848484604051620001ee90620003a5565b620001fc939291906200069a565b604051809103906000f08015801562000219573d6000803e3d6000fd5b5090506001819080600181540180825580915050600190039060005260206000200160009091909190916101000a81548173ffffffffffffffffffffffffffffffffffffffff021916908373ffffffffffffffffffffffffffffffffffffffff1602179055508373ffffffffffffffffffffffffffffffffffffffff168573ffffffffffffffffffffffffffffffffffffffff167f9c5d829b9b23efc461f9aeef91979ec04bb903feb3bee4f26d22114abfc7335b83604051620002de91906200046a565b60405180910390a3809150509392505050565b606060018054806020026020016040519081016040528092919081815260200182805480156200037757602002820191906000526020600020905b8160009054906101000a900473ffffffffffffffffffffffffffffffffffffffff1673ffffffffffffffffffffffffffffffffffffffff16815260200190600101908083116200032c575b5050505050905090565b60008054906101000a900473ffffffffffffffffffffffffffffffffffffffff1681565b614dd480620006d883390190565b600080fd5b6000819050919050565b620003cd81620003b8565b8114620003d957600080fd5b50565b600081359050620003ed81620003c2565b92915050565b6000602082840312156200040c576200040b620003b3565b5b60006200041c84828501620003dc565b91505092915050565b600073ffffffffffffffffffffffffffffffffffffffff82169050919050565b6000620004528262000425565b9050919050565b620004648162000445565b82525050565b600060208201905062000481600083018462000459565b92915050565b620004928162000445565b81146200049e57600080fd5b50565b600081359050620004b28162000487565b92915050565b600080600060608486031215620004d457620004d3620003b3565b5b6000620004e486828701620004a1565b9350506020620004f786828701620004a1565b92505060406200050a86828701620003dc565b9150509250925092565b600081519050919050565b600082825260208201905092915050565b6000819050602082019050919050565b6200054b8162000445565b82525050565b60006200055f838362000540565b60208301905092915050565b6000602082019050919050565b6000620005858262000514565b6200059181856200051f565b93506200059e8362000530565b8060005b83811015620005d5578151620005b9888262000551565b9750620005c6836200056b565b925050600181019050620005a2565b5085935050505092915050565b60006020820190508181036000830152620005fe818462000578565b905092915050565b600082825260208201905092915050565b7f4f6e6c79206f776e65722063616e2063726561746520706f6f6c730000000000600082015250565b60006200064f601b8362000606565b91506200065c8262000617565b602082019050919050565b60006020820190508181036000830152620006828162000640565b9050919050565b6200069481620003b8565b82525050565b6000606082019050620006b1600083018662000459565b620006c0602083018562000459565b620006cf604083018462000689565b94935050505056fe60e06040523480156200001157600080fd5b5060405162004dd438038062004dd48339818101604052810190620000379190620001e7565b6040518060400160405280600781526020017f4c50546f6b656e000000000000000000000000000000000000000000000000008152506040518060400160405280600681526020017f4c502d4e465400000000000000000000000000000000000000000000000000008152508160009081620000b49190620004b3565b508060019081620000c69190620004b3565b5050508273ffffffffffffffffffffffffffffffffffffffff1660808173ffffffffffffffffffffffffffffffffffffffff16815250508173ffffffffffffffffffffffffffffffffffffffff1660a08173ffffffffffffffffffffffffffffffffffffffff16815250508060c081815250505050506200059a565b600080fd5b600073ffffffffffffffffffffffffffffffffffffffff82169050919050565b6000620001748262000147565b9050919050565b620001868162000167565b81146200019257600080fd5b50565b600081519050620001a6816200017b565b92915050565b6000819050919050565b620001c181620001ac565b8114620001cd57600080fd5b50565b600081519050620001e181620001b6565b92915050565b60008060006060848603121562000203576200020262000142565b5b6000620002138682870162000195565b9350506020620002268682870162000195565b92505060406200023986828701620001d0565b9150509250925092565b600081519050919050565b7f4e487b7100000000000000000000000000000000000000000000000000000000600052604160045260246000fd5b7f4e487b7100000000000000000000000000000000000000000000000000000000600052602260045260246000fd5b60006002820490506001821680620002c557607f821691505b602082108103620002db57620002da6200027d565b5b50919050565b60008190508160005260206000209050919050565b60006020601f8301049050919050565b600082821b905092915050565b600060088302620003457fffffffffffffffffffffffffffffffffffffffffffffffffffffffffffffffff8262000306565b62000351868362000306565b95508019841693508086168417925050509392505050565b6000819050919050565b6000620003946200038e6200038884620001ac565b62000369565b620001ac565b9050919050565b6000819050919050565b620003b08362000373565b620003c8620003bf826200039b565b84845462000313565b825550505050565b600090565b620003df620003d0565b620003ec818484620003a5565b505050565b5b81811015620004145762000408600082620003d5565b600181019050620003f2565b5050565b601f82111562000463576200042d81620002e1565b6200043884620002f6565b8101602085101562000448578190505b620004606200045785620002f6565b830182620003f1565b50505b505050565b600082821c905092915050565b6000620004886000198460080262000468565b1980831691505092915050565b6000620004a3838362000475565b9150826002028217905092915050565b620004be8262000243565b67ffffffffffffffff811115620004da57620004d96200024e565b5b620004e68254620002ac565b620004f382828562000418565b600060209050601f8311600181146200052b576000841562000516578287015190505b62000522858262000495565b86555062000592565b601f1984166200053b86620002e1565b60005b8281101562000565578489015182556001820191506020850194506020810190506200053e565b8683101562000585578489015162000581601f89168262000475565b8355505b6001600288020188555050505b505050505050565b60805160a05160c0516147af620006256000396000610ba1015260008181610d8301528181610f120152818161120b015281816113c6015281816114970152818161161e01526116800152600081816107ff01528181610d2501528181610ec5015281816111b6015281816112dd015281816114760152818161156e015261163f01526147af6000f3fe608060405234801561001057600080fd5b50600436106101a95760003560e01c80636352211e116100f9578063aebf3e4111610097578063d004f0f711610071578063d004f0f7146104e9578063d21220a714610505578063e985e9c514610523578063eb02c30114610553576101a9565b8063aebf3e4114610481578063b88d4fde1461049d578063c87b56dd146104b9576101a9565b8063978bbdb9116100d3578063978bbdb9146103f557806399fbab88146104135780639c8f9f2314610449578063a22cb46514610465576101a9565b80636352211e1461037757806370a08231146103a757806395d89b41146103d7576101a9565b806318160ddd1161016657806342842e0e1161014057806342842e0e146102ef578063443cb4bc1461030b5780634f6ccce7146103295780635a76f25e14610359576101a9565b806318160ddd1461028557806323b872dd146102a35780632f745c59146102bf576101a9565b806301ffc9a7146101ae57806306fdde03146101de578063081812fc146101fc5780630902f1ac1461022c578063095ea7b31461024b5780630dfe168114610267575b600080fd5b6101c860048036038101906101c3919061302d565b610583565b6040516101d59190613075565b60405180910390f35b6101e66105fd565b6040516101f39190613120565b60405180910390f35b61021660048036038101906102119190613178565b61068f565b60405161022391906131e6565b60405180910390f35b6102346106d5565b604051610242929190613210565b60405180910390f35b61026560048036038101906102609190613265565b6106e6565b005b61026f6107fd565b60405161027c91906131e6565b60405180910390f35b61028d610821565b60405161029a91906132a5565b60405180910390f35b6102bd60048036038101906102b891906132c0565b61082e565b005b6102d960048036038101906102d49190613265565b61088e565b6040516102e691906132a5565b60405180910390f35b610309600480360381019061030491906132c0565b610933565b005b610313610953565b60405161032091906132a5565b60405180910390f35b610343600480360381019061033e9190613178565b610959565b60405161035091906132a5565b60405180910390f35b6103616109ca565b60405161036e91906132a5565b60405180910390f35b610391600480360381019061038c9190613178565b6109d0565b60405161039e91906131e6565b60405180910390f35b6103c160048036038101906103bc9190613313565b610a56565b6040516103ce91906132a5565b60405180910390f35b6103df610b0d565b6040516103ec9190613120565b60405180910390f35b6103fd610b9f565b60405161040a91906132a5565b60405180910390f35b61042d60048036038101906104289190613178565b610bc3565b6040516104409796959493929190613340565b60405180910390f35b610463600480360381019061045e9190613178565b610c35565b005b61047f600480360381019061047a91906133db565b610e16565b005b61049b6004803603810190610496919061341b565b610e2c565b005b6104b760048036038101906104b291906135b7565b6110ea565b005b6104d360048036038101906104ce9190613178565b61114c565b6040516104e09190613120565b60405180910390f35b61050360048036038101906104fe9190613265565b6111b4565b005b61050d61167e565b60405161051a91906131e6565b60405180910390f35b61053d6004803603810190610538919061363a565b6116a2565b60405161054a9190613075565b60405180910390f35b61056d60048036038101906105689190613178565b611736565b60405161057a9190613726565b60405180910390f35b60007f780e9d63000000000000000000000000000000000000000000000000000000007bffffffffffffffffffffffffffffffffffffffffffffffffffffffff1916827bffffffffffffffffffffffffffffffffffffffffffffffffffffffff191614806105f657506105f582611804565b5b9050919050565b60606000805461060c90613770565b80601f016020809104026020016040519081016040528092919081815260200182805461063890613770565b80156106855780601f1061065a57610100808354040283529160200191610685565b820191906000526020600020905b81548152906001019060200180831161066857829003601f168201915b5050505050905090565b600061069a826118e6565b6004600083815260200190815260200160002060009054906101000a900473ffffffffffffffffffffffffffffffffffffffff169050919050565b600080600a54600b54915091509091565b60006106f1826109d0565b90508073ffffffffffffffffffffffffffffffffffffffff168373ffffffffffffffffffffffffffffffffffffffff1603610761576040517f08c379a000000000000000000000000000000000000000000000000000000000815260040161075890613813565b60405180910390fd5b8073ffffffffffffffffffffffffffffffffffffffff16610780611931565b73ffffffffffffffffffffffffffffffffffffffff1614806107af57506107ae816107a9611931565b6116a2565b5b6107ee576040517f08c379a00000000000000000000000000000000000000000000000000000000081526004016107e5906138a5565b60405180910390fd5b6107f88383611939565b505050565b7f000000000000000000000000000000000000000000000000000000000000000081565b6000600880549050905090565b61083f610839611931565b826119f2565b61087e576040517f08c379a000000000000000000000000000000000000000000000000000000000815260040161087590613937565b60405180910390fd5b610889838383611a87565b505050565b600061089983610a56565b82106108da576040517f08c379a00000000000000000000000000000000000000000000000000000000081526004016108d1906139c9565b60405180910390fd5b600660008473ffffffffffffffffffffffffffffffffffffffff1673ffffffffffffffffffffffffffffffffffffffff168152602001908152602001600020600083815260200190815260200160002054905092915050565b61094e838383604051806020016040528060008152506110ea565b505050565b600a5481565b6000610963610821565b82106109a4576040517f08c379a000000000000000000000000000000000000000000000000000000000815260040161099b90613a5b565b60405180910390fd5b600882815481106109b8576109b7613a7b565b5b90600052602060002001549050919050565b600b5481565b6000806109dc83611d80565b9050600073ffffffffffffffffffffffffffffffffffffffff168173ffffffffffffffffffffffffffffffffffffffff1603610a4d576040517f08c379a0000000000000000000000000000000000000000000000000000000008152600401610a4490613af6565b60405180910390fd5b80915050919050565b60008073ffffffffffffffffffffffffffffffffffffffff168273ffffffffffffffffffffffffffffffffffffffff1603610ac6576040517f08c379a0000000000000000000000000000000000000000000000000000000008152600401610abd90613b88565b60405180910390fd5b600360008373ffffffffffffffffffffffffffffffffffffffff1673ffffffffffffffffffffffffffffffffffffffff168152602001908152602001600020549050919050565b606060018054610b1c90613770565b80601f0160208091040260200160405190810160405280929190818152602001828054610b4890613770565b8015610b955780601f10610b6a57610100808354040283529160200191610b95565b820191906000526020600020905b815481529060010190602001808311610b7857829003601f168201915b5050505050905090565b7f000000000000000000000000000000000000000000000000000000000000000081565b600c8181548110610bd357600080fd5b90600052602060002090600702016000915090508060000154908060010154908060020154908060030154908060040154908060050154908060060160009054906101000a900473ffffffffffffffffffffffffffffffffffffffff16905087565b3373ffffffffffffffffffffffffffffffffffffffff16610c55826109d0565b73ffffffffffffffffffffffffffffffffffffffff1614610cab576040517f08c379a0000000000000000000000000000000000000000000000000000000008152600401610ca290613bf4565b60405180910390fd5b6000600c8281548110610cc157610cc0613a7b565b5b906000526020600020906007020190508060020154600a6000828254610ce79190613c43565b925050819055508060030154600b6000828254610d049190613c43565b92505081905550610d693382600401548360020154610d239190613c77565b7f000000000000000000000000000000000000000000000000000000000000000073ffffffffffffffffffffffffffffffffffffffff16611dbd9092919063ffffffff16565b610dc73382600501548360030154610d819190613c77565b7f000000000000000000000000000000000000000000000000000000000000000073ffffffffffffffffffffffffffffffffffffffff16611dbd9092919063ffffffff16565b610dd082611e43565b817f0bb89aa54ed6940a7e7167bd262b2400d63945045ceff1a52a05f2601ed215f182600201548360030154604051610e0a929190613210565b60405180910390a25050565b610e28610e21611931565b8383611f91565b5050565b600084118015610e3c5750600083115b610e7b576040517f08c379a0000000000000000000000000000000000000000000000000000000008152600401610e7290613cf7565b60405180910390fd5b808210610ebd576040517f08c379a0000000000000000000000000000000000000000000000000000000008152600401610eb490613d63565b60405180910390fd5b610f0a3330867f000000000000000000000000000000000000000000000000000000000000000073ffffffffffffffffffffffffffffffffffffffff166120fd909392919063ffffffff16565b610f573330857f000000000000000000000000000000000000000000000000000000000000000073ffffffffffffffffffffffffffffffffffffffff166120fd909392919063ffffffff16565b83600a6000828254610f699190613c77565b9250508190555082600b6000828254610f829190613c77565b925050819055506000600d6000815480929190610f9e90613d83565b919050559050600c6040518060e0016040528085815260200184815260200187815260200186815260200160008152602001600081526020013373ffffffffffffffffffffffffffffffffffffffff168152509080600181540180825580915050600190039060005260206000209060070201600090919091909150600082015181600001556020820151816001015560408201518160020155606082015181600301556080820151816004015560a0820151816005015560c08201518160060160006101000a81548173ffffffffffffffffffffffffffffffffffffffff021916908373ffffffffffffffffffffffffffffffffffffffff16021790555050506110a93382612186565b807fd7f28048575eead8851d024ead087913957dfb4fd1a02b4d1573f5352a5a2be386866040516110db929190613210565b60405180910390a25050505050565b6110fb6110f5611931565b836119f2565b61113a576040517f08c379a000000000000000000000000000000000000000000000000000000000815260040161113190613937565b60405180910390fd5b611146848484846123a3565b50505050565b6060611157826118e6565b60006111616123ff565b9050600081511161118157604051806020016040528060008152506111ac565b8061118b84612416565b60405160200161119c929190613e07565b6040516020818303038152906040525b915050919050565b7f000000000000000000000000000000000000000000000000000000000000000073ffffffffffffffffffffffffffffffffffffffff168273ffffffffffffffffffffffffffffffffffffffff16148061125957507f000000000000000000000000000000000000000000000000000000000000000073ffffffffffffffffffffffffffffffffffffffff168273ffffffffffffffffffffffffffffffffffffffff16145b611298576040517f08c379a000000000000000000000000000000000000000000000000000000000815260040161128f90613e77565b60405180910390fd5b600081116112db576040517f08c379a00000000000000000000000000000000000000000000000000000000081526004016112d290613ee3565b60405180910390fd5b7f000000000000000000000000000000000000000000000000000000000000000073ffffffffffffffffffffffffffffffffffffffff168273ffffffffffffffffffffffffffffffffffffffff16036114d6576000600a54600b54836113419190613f03565b61134b9190613f74565b905080600b541015611392576040517f08c379a000000000000000000000000000000000000000000000000000000000815260040161138990613ff1565b60405180910390fd5b6113bf3330848673ffffffffffffffffffffffffffffffffffffffff166120fd909392919063ffffffff16565b61140a33827f000000000000000000000000000000000000000000000000000000000000000073ffffffffffffffffffffffffffffffffffffffff16611dbd9092919063ffffffff16565b81600a600082825461141c9190613c77565b9250508190555080600b60008282546114359190613c43565b925050819055503373ffffffffffffffffffffffffffffffffffffffff167fcd3829a3813dc3cdd188fd3d01dcf3268c16be2fdd2dd21d0665418816e460627f00000000000000000000000000000000000000000000000000000000000000007f000000000000000000000000000000000000000000000000000000000000000085856040516114c89493929190614011565b60405180910390a25061167a565b6000600b54600a54836114e99190613f03565b6114f39190613f74565b905080600a54101561153a576040517f08c379a000000000000000000000000000000000000000000000000000000000815260040161153190613ff1565b60405180910390fd5b6115673330848673ffffffffffffffffffffffffffffffffffffffff166120fd909392919063ffffffff16565b6115b233827f000000000000000000000000000000000000000000000000000000000000000073ffffffffffffffffffffffffffffffffffffffff16611dbd9092919063ffffffff16565b81600b60008282546115c49190613c77565b9250508190555080600a60008282546115dd9190613c43565b925050819055503373ffffffffffffffffffffffffffffffffffffffff167fcd3829a3813dc3cdd188fd3d01dcf3268c16be2fdd2dd21d0665418816e460627f00000000000000000000000000000000000000000000000000000000000000007f000000000000000000000000000000000000000000000000000000000000000085856040516116709493929190614011565b60405180910390a2505b5050565b7f000000000000000000000000000000000000000000000000000000000000000081565b6000600560008473ffffffffffffffffffffffffffffffffffffffff1673ffffffffffffffffffffffffffffffffffffffff16815260200190815260200160002060008373ffffffffffffffffffffffffffffffffffffffff1673ffffffffffffffffffffffffffffffffffffffff16815260200190815260200160002060009054906101000a900460ff16905092915050565b61173e612f6e565b600c828154811061175257611751613a7b565b5b90600052602060002090600702016040518060e00160405290816000820154815260200160018201548152602001600282015481526020016003820154815260200160048201548152602001600582015481526020016006820160009054906101000a900473ffffffffffffffffffffffffffffffffffffffff1673ffffffffffffffffffffffffffffffffffffffff1673ffffffffffffffffffffffffffffffffffffffff16815250509050919050565b60007f80ac58cd000000000000000000000000000000000000000000000000000000007bffffffffffffffffffffffffffffffffffffffffffffffffffffffff1916827bffffffffffffffffffffffffffffffffffffffffffffffffffffffff191614806118cf57507f5b5e139f000000000000000000000000000000000000000000000000000000007bffffffffffffffffffffffffffffffffffffffffffffffffffffffff1916827bffffffffffffffffffffffffffffffffffffffffffffffffffffffff1916145b806118df57506118de826124e4565b5b9050919050565b6118ef8161254e565b61192e576040517f08c379a000000000000000000000000000000000000000000000000000000000815260040161192590613af6565b60405180910390fd5b50565b600033905090565b816004600083815260200190815260200160002060006101000a81548173ffffffffffffffffffffffffffffffffffffffff021916908373ffffffffffffffffffffffffffffffffffffffff160217905550808273ffffffffffffffffffffffffffffffffffffffff166119ac836109d0565b73ffffffffffffffffffffffffffffffffffffffff167f8c5be1e5ebec7d5bd14f71427d1e84f3dd0314c0f7b2291e5b200ac8c7c3b92560405160405180910390a45050565b6000806119fe836109d0565b90508073ffffffffffffffffffffffffffffffffffffffff168473ffffffffffffffffffffffffffffffffffffffff161480611a405750611a3f81856116a2565b5b80611a7e57508373ffffffffffffffffffffffffffffffffffffffff16611a668461068f565b73ffffffffffffffffffffffffffffffffffffffff16145b91505092915050565b8273ffffffffffffffffffffffffffffffffffffffff16611aa7826109d0565b73ffffffffffffffffffffffffffffffffffffffff1614611afd576040517f08c379a0000000000000000000000000000000000000000000000000000000008152600401611af4906140c8565b60405180910390fd5b600073ffffffffffffffffffffffffffffffffffffffff168273ffffffffffffffffffffffffffffffffffffffff1603611b6c576040517f08c379a0000000000000000000000000000000000000000000000000000000008152600401611b639061415a565b60405180910390fd5b611b79838383600161258f565b8273ffffffffffffffffffffffffffffffffffffffff16611b99826109d0565b73ffffffffffffffffffffffffffffffffffffffff1614611bef576040517f08c379a0000000000000000000000000000000000000000000000000000000008152600401611be6906140c8565b60405180910390fd5b6004600082815260200190815260200160002060006101000a81549073ffffffffffffffffffffffffffffffffffffffff02191690556001600360008573ffffffffffffffffffffffffffffffffffffffff1673ffffffffffffffffffffffffffffffffffffffff168152602001908152602001600020600082825403925050819055506001600360008473ffffffffffffffffffffffffffffffffffffffff1673ffffffffffffffffffffffffffffffffffffffff16815260200190815260200160002060008282540192505081905550816002600083815260200190815260200160002060006101000a81548173ffffffffffffffffffffffffffffffffffffffff021916908373ffffffffffffffffffffffffffffffffffffffff160217905550808273ffffffffffffffffffffffffffffffffffffffff168473ffffffffffffffffffffffffffffffffffffffff167fddf252ad1be2c89b69c2b068fc378daa952ba7f163c4a11628f55a4df523b3ef60405160405180910390a4611d7b83838360016126ed565b505050565b60006002600083815260200190815260200160002060009054906101000a900473ffffffffffffffffffffffffffffffffffffffff169050919050565b611e3e8363a9059cbb60e01b8484604051602401611ddc92919061417a565b604051602081830303815290604052907bffffffffffffffffffffffffffffffffffffffffffffffffffffffff19166020820180517bffffffffffffffffffffffffffffffffffffffffffffffffffffffff83818316178352505050506126f3565b505050565b6000611e4e826109d0565b9050611e5e81600084600161258f565b611e67826109d0565b90506004600083815260200190815260200160002060006101000a81549073ffffffffffffffffffffffffffffffffffffffff02191690556001600360008373ffffffffffffffffffffffffffffffffffffffff1673ffffffffffffffffffffffffffffffffffffffff168152602001908152602001600020600082825403925050819055506002600083815260200190815260200160002060006101000a81549073ffffffffffffffffffffffffffffffffffffffff021916905581600073ffffffffffffffffffffffffffffffffffffffff168273ffffffffffffffffffffffffffffffffffffffff167fddf252ad1be2c89b69c2b068fc378daa952ba7f163c4a11628f55a4df523b3ef60405160405180910390a4611f8d8160008460016126ed565b5050565b8173ffffffffffffffffffffffffffffffffffffffff168373ffffffffffffffffffffffffffffffffffffffff1603611fff576040517f08c379a0000000000000000000000000000000000000000000000000000000008152600401611ff6906141ef565b60405180910390fd5b80600560008573ffffffffffffffffffffffffffffffffffffffff1673ffffffffffffffffffffffffffffffffffffffff16815260200190815260200160002060008473ffffffffffffffffffffffffffffffffffffffff1673ffffffffffffffffffffffffffffffffffffffff16815260200190815260200160002060006101000a81548160ff0219169083151502179055508173ffffffffffffffffffffffffffffffffffffffff168373ffffffffffffffffffffffffffffffffffffffff167f17307eab39ab6107e8899845ad3d59bd9653f200f220920489ca2b5937696c31836040516120f09190613075565b60405180910390a3505050565b612180846323b872dd60e01b85858560405160240161211e9392919061420f565b604051602081830303815290604052907bffffffffffffffffffffffffffffffffffffffffffffffffffffffff19166020820180517bffffffffffffffffffffffffffffffffffffffffffffffffffffffff83818316178352505050506126f3565b50505050565b600073ffffffffffffffffffffffffffffffffffffffff168273ffffffffffffffffffffffffffffffffffffffff16036121f5576040517f08c379a00000000000000000000000000000000000000000000000000000000081526004016121ec90614292565b60405180910390fd5b6121fe8161254e565b1561223e576040517f08c379a0000000000000000000000000000000000000000000000000000000008152600401612235906142fe565b60405180910390fd5b61224c60008383600161258f565b6122558161254e565b15612295576040517f08c379a000000000000000000000000000000000000000000000000000000000815260040161228c906142fe565b60405180910390fd5b6001600360008473ffffffffffffffffffffffffffffffffffffffff1673ffffffffffffffffffffffffffffffffffffffff16815260200190815260200160002060008282540192505081905550816002600083815260200190815260200160002060006101000a81548173ffffffffffffffffffffffffffffffffffffffff021916908373ffffffffffffffffffffffffffffffffffffffff160217905550808273ffffffffffffffffffffffffffffffffffffffff16600073ffffffffffffffffffffffffffffffffffffffff167fddf252ad1be2c89b69c2b068fc378daa952ba7f163c4a11628f55a4df523b3ef60405160405180910390a461239f6000838360016126ed565b5050565b6123ae848484611a87565b6123ba848484846127bb565b6123f9576040517f08c379a00000000000000000000000000000000000000000000000000000000081526004016123f090614390565b60405180910390fd5b50505050565b606060405180602001604052806000815250905090565b60606000600161242584612942565b01905060008167ffffffffffffffff8111156124445761244361348c565b5b6040519080825280601f01601f1916602001820160405280156124765781602001600182028036833780820191505090505b509050600082602001820190505b6001156124d9578080600190039150507f3031323334353637383961626364656600000000000000000000000000000000600a86061a8153600a85816124cd576124cc613f45565b5b04945060008503612484575b819350505050919050565b60007f01ffc9a7000000000000000000000000000000000000000000000000000000007bffffffffffffffffffffffffffffffffffffffffffffffffffffffff1916827bffffffffffffffffffffffffffffffffffffffffffffffffffffffff1916149050919050565b60008073ffffffffffffffffffffffffffffffffffffffff1661257083611d80565b73ffffffffffffffffffffffffffffffffffffffff1614159050919050565b61259b84848484612a95565b60018111156125df576040517f08c379a00000000000000000000000000000000000000000000000000000000081526004016125d690614422565b60405180910390fd5b6000829050600073ffffffffffffffffffffffffffffffffffffffff168573ffffffffffffffffffffffffffffffffffffffff16036126265761262181612a9b565b612665565b8373ffffffffffffffffffffffffffffffffffffffff168573ffffffffffffffffffffffffffffffffffffffff1614612664576126638582612ae4565b5b5b600073ffffffffffffffffffffffffffffffffffffffff168473ffffffffffffffffffffffffffffffffffffffff16036126a7576126a281612c51565b6126e6565b8473ffffffffffffffffffffffffffffffffffffffff168473ffffffffffffffffffffffffffffffffffffffff16146126e5576126e48482612d22565b5b5b5050505050565b50505050565b6000612755826040518060400160405280602081526020017f5361666545524332303a206c6f772d6c6576656c2063616c6c206661696c65648152508573ffffffffffffffffffffffffffffffffffffffff16612da19092919063ffffffff16565b90506000815114806127775750808060200190518101906127769190614457565b5b6127b6576040517f08c379a00000000000000000000000000000000000000000000000000000000081526004016127ad906144f6565b60405180910390fd5b505050565b60006127dc8473ffffffffffffffffffffffffffffffffffffffff16612db9565b15612935578373ffffffffffffffffffffffffffffffffffffffff1663150b7a02612805611931565b8786866040518563ffffffff1660e01b8152600401612827949392919061456b565b6020604051808303816000875af192505050801561286357506040513d601f19601f8201168201806040525081019061286091906145cc565b60015b6128e5573d8060008114612893576040519150601f19603f3d011682016040523d82523d6000602084013e612898565b606091505b5060008151036128dd576040517f08c379a00000000000000000000000000000000000000000000000000000000081526004016128d490614390565b60405180910390fd5b805181602001fd5b63150b7a0260e01b7bffffffffffffffffffffffffffffffffffffffffffffffffffffffff1916817bffffffffffffffffffffffffffffffffffffffffffffffffffffffff19161491505061293a565b600190505b949350505050565b600080600090507a184f03e93ff9f4daa797ed6e38ed64bf6a1f01000000000000000083106129a0577a184f03e93ff9f4daa797ed6e38ed64bf6a1f010000000000000000838161299657612995613f45565b5b0492506040810190505b6d04ee2d6d415b85acef810000000083106129dd576d04ee2d6d415b85acef810000000083816129d3576129d2613f45565b5b0492506020810190505b662386f26fc100008310612a0c57662386f26fc100008381612a0257612a01613f45565b5b0492506010810190505b6305f5e1008310612a35576305f5e1008381612a2b57612a2a613f45565b5b0492506008810190505b6127108310612a5a576127108381612a5057612a4f613f45565b5b0492506004810190505b60648310612a7d5760648381612a7357612a72613f45565b5b0492506002810190505b600a8310612a8c576001810190505b80915050919050565b50505050565b6008805490506009600083815260200190815260200160002081905550600881908060018154018082558091505060019003906000526020600020016000909190919091505550565b60006001612af184610a56565b612afb9190613c43565b9050600060076000848152602001908152602001600020549050818114612be0576000600660008673ffffffffffffffffffffffffffffffffffffffff1673ffffffffffffffffffffffffffffffffffffffff168152602001908152602001600020600084815260200190815260200160002054905080600660008773ffffffffffffffffffffffffffffffffffffffff1673ffffffffffffffffffffffffffffffffffffffff168152602001908152602001600020600084815260200190815260200160002081905550816007600083815260200190815260200160002081905550505b6007600084815260200190815260200160002060009055600660008573ffffffffffffffffffffffffffffffffffffffff1673ffffffffffffffffffffffffffffffffffffffff16815260200190815260200160002060008381526020019081526020016000206000905550505050565b60006001600880549050612c659190613c43565b9050600060096000848152602001908152602001600020549050600060088381548110612c9557612c94613a7b565b5b906000526020600020015490508060088381548110612cb757612cb6613a7b565b5b906000526020600020018190555081600960008381526020019081526020016000208190555060096000858152602001908152602001600020600090556008805480612d0657612d056145f9565b5b6001900381819060005260206000200160009055905550505050565b6000612d2d83610a56565b905081600660008573ffffffffffffffffffffffffffffffffffffffff1673ffffffffffffffffffffffffffffffffffffffff168152602001908152602001600020600083815260200190815260200160002081905550806007600084815260200190815260200160002081905550505050565b6060612db08484600085612ddc565b90509392505050565b6000808273ffffffffffffffffffffffffffffffffffffffff163b119050919050565b606082471015612e21576040517f08c379a0000000000000000000000000000000000000000000000000000000008152600401612e189061469a565b60405180910390fd5b6000808673ffffffffffffffffffffffffffffffffffffffff168587604051612e4a91906146f6565b60006040518083038185875af1925050503d8060008114612e87576040519150601f19603f3d011682016040523d82523d6000602084013e612e8c565b606091505b5091509150612e9d87838387612ea9565b92505050949350505050565b60608315612f0b576000835103612f0357612ec385612db9565b612f02576040517f08c379a0000000000000000000000000000000000000000000000000000000008152600401612ef990614759565b60405180910390fd5b5b829050612f16565b612f158383612f1e565b5b949350505050565b600082511115612f315781518083602001fd5b806040517f08c379a0000000000000000000000000000000000000000000000000000000008152600401612f659190613120565b60405180910390fd5b6040518060e00160405280600081526020016000815260200160008152602001600081526020016000815260200160008152602001600073ffffffffffffffffffffffffffffffffffffffff1681525090565b6000604051905090565b600080fd5b600080fd5b60007fffffffff0000000000000000000000000000000000000000000000000000000082169050919050565b61300a81612fd5565b811461301557600080fd5b50565b60008135905061302781613001565b92915050565b60006020828403121561304357613042612fcb565b5b600061305184828501613018565b91505092915050565b60008115159050919050565b61306f8161305a565b82525050565b600060208201905061308a6000830184613066565b92915050565b600081519050919050565b600082825260208201905092915050565b60005b838110156130ca5780820151818401526020810190506130af565b60008484015250505050565b6000601f19601f8301169050919050565b60006130f282613090565b6130fc818561309b565b935061310c8185602086016130ac565b613115816130d6565b840191505092915050565b6000602082019050818103600083015261313a81846130e7565b905092915050565b6000819050919050565b61315581613142565b811461316057600080fd5b50565b6000813590506131728161314c565b92915050565b60006020828403121561318e5761318d612fcb565b5b600061319c84828501613163565b91505092915050565b600073ffffffffffffffffffffffffffffffffffffffff82169050919050565b60006131d0826131a5565b9050919050565b6131e0816131c5565b82525050565b60006020820190506131fb60008301846131d7565b92915050565b61320a81613142565b82525050565b60006040820190506132256000830185613201565b6132326020830184613201565b9392505050565b613242816131c5565b811461324d57600080fd5b50565b60008135905061325f81613239565b92915050565b6000806040838503121561327c5761327b612fcb565b5b600061328a85828601613250565b925050602061329b85828601613163565b9150509250929050565b60006020820190506132ba6000830184613201565b92915050565b6000806000606084860312156132d9576132d8612fcb565b5b60006132e786828701613250565b93505060206132f886828701613250565b925050604061330986828701613163565b9150509250925092565b60006020828403121561332957613328612fcb565b5b600061333784828501613250565b91505092915050565b600060e082019050613355600083018a613201565b6133626020830189613201565b61336f6040830188613201565b61337c6060830187613201565b6133896080830186613201565b61339660a0830185613201565b6133a360c08301846131d7565b98975050505050505050565b6133b88161305a565b81146133c357600080fd5b50565b6000813590506133d5816133af565b92915050565b600080604083850312156133f2576133f1612fcb565b5b600061340085828601613250565b9250506020613411858286016133c6565b9150509250929050565b6000806000806080858703121561343557613434612fcb565b5b600061344387828801613163565b945050602061345487828801613163565b935050604061346587828801613163565b925050606061347687828801613163565b91505092959194509250565b600080fd5b600080fd5b7f4e487b7100000000000000000000000000000000000000000000000000000000600052604160045260246000fd5b6134c4826130d6565b810181811067ffffffffffffffff821117156134e3576134e261348c565b5b80604052505050565b60006134f6612fc1565b905061350282826134bb565b919050565b600067ffffffffffffffff8211156135225761352161348c565b5b61352b826130d6565b9050602081019050919050565b82818337600083830152505050565b600061355a61355584613507565b6134ec565b90508281526020810184848401111561357657613575613487565b5b613581848285613538565b509392505050565b600082601f83011261359e5761359d613482565b5b81356135ae848260208601613547565b91505092915050565b600080600080608085870312156135d1576135d0612fcb565b5b60006135df87828801613250565b94505060206135f087828801613250565b935050604061360187828801613163565b925050606085013567ffffffffffffffff81111561362257613621612fd0565b5b61362e87828801613589565b91505092959194509250565b6000806040838503121561365157613650612fcb565b5b600061365f85828601613250565b925050602061367085828601613250565b9150509250929050565b61368381613142565b82525050565b613692816131c5565b82525050565b60e0820160008201516136ae600085018261367a565b5060208201516136c1602085018261367a565b5060408201516136d4604085018261367a565b5060608201516136e7606085018261367a565b5060808201516136fa608085018261367a565b5060a082015161370d60a085018261367a565b5060c082015161372060c0850182613689565b50505050565b600060e08201905061373b6000830184613698565b92915050565b7f4e487b7100000000000000000000000000000000000000000000000000000000600052602260045260246000fd5b6000600282049050600182168061378857607f821691505b60208210810361379b5761379a613741565b5b50919050565b7f4552433732313a20617070726f76616c20746f2063757272656e74206f776e6560008201527f7200000000000000000000000000000000000000000000000000000000000000602082015250565b60006137fd60218361309b565b9150613808826137a1565b604082019050919050565b6000602082019050818103600083015261382c816137f0565b9050919050565b7f4552433732313a20617070726f76652063616c6c6572206973206e6f7420746f60008201527f6b656e206f776e6572206f7220617070726f76656420666f7220616c6c000000602082015250565b600061388f603d8361309b565b915061389a82613833565b604082019050919050565b600060208201905081810360008301526138be81613882565b9050919050565b7f4552433732313a2063616c6c6572206973206e6f7420746f6b656e206f776e6560008201527f72206f7220617070726f76656400000000000000000000000000000000000000602082015250565b6000613921602d8361309b565b915061392c826138c5565b604082019050919050565b6000602082019050818103600083015261395081613914565b9050919050565b7f455243373231456e756d657261626c653a206f776e657220696e646578206f7560008201527f74206f6620626f756e6473000000000000000000000000000000000000000000602082015250565b60006139b3602b8361309b565b91506139be82613957565b604082019050919050565b600060208201905081810360008301526139e2816139a6565b9050919050565b7f455243373231456e756d657261626c653a20676c6f62616c20696e646578206f60008201527f7574206f6620626f756e64730000000000000000000000000000000000000000602082015250565b6000613a45602c8361309b565b9150613a50826139e9565b604082019050919050565b60006020820190508181036000830152613a7481613a38565b9050919050565b7f4e487b7100000000000000000000000000000000000000000000000000000000600052603260045260246000fd5b7f4552433732313a20696e76616c696420746f6b656e2049440000000000000000600082015250565b6000613ae060188361309b565b9150613aeb82613aaa565b602082019050919050565b60006020820190508181036000830152613b0f81613ad3565b9050919050565b7f4552433732313a2061646472657373207a65726f206973206e6f74206120766160008201527f6c6964206f776e65720000000000000000000000000000000000000000000000602082015250565b6000613b7260298361309b565b9150613b7d82613b16565b604082019050919050565b60006020820190508181036000830152613ba181613b65565b9050919050565b7f4f6e6c79206f776e65722063616e2072656d6f7665206c697175696469747900600082015250565b6000613bde601f8361309b565b9150613be982613ba8565b602082019050919050565b60006020820190508181036000830152613c0d81613bd1565b9050919050565b7f4e487b7100000000000000000000000000000000000000000000000000000000600052601160045260246000fd5b6000613c4e82613142565b9150613c5983613142565b9250828203905081811115613c7157613c70613c14565b5b92915050565b6000613c8282613142565b9150613c8d83613142565b9250828201905080821115613ca557613ca4613c14565b5b92915050565b7f416d6f756e7473206d757374206265203e203000000000000000000000000000600082015250565b6000613ce160138361309b565b9150613cec82613cab565b602082019050919050565b60006020820190508181036000830152613d1081613cd4565b9050919050565b7f496e76616c69642070726963652072616e676500000000000000000000000000600082015250565b6000613d4d60138361309b565b9150613d5882613d17565b602082019050919050565b60006020820190508181036000830152613d7c81613d40565b9050919050565b6000613d8e82613142565b91507fffffffffffffffffffffffffffffffffffffffffffffffffffffffffffffffff8203613dc057613dbf613c14565b5b600182019050919050565b600081905092915050565b6000613de182613090565b613deb8185613dcb565b9350613dfb8185602086016130ac565b80840191505092915050565b6000613e138285613dd6565b9150613e1f8284613dd6565b91508190509392505050565b7f496e76616c696420746f6b656e00000000000000000000000000000000000000600082015250565b6000613e61600d8361309b565b9150613e6c82613e2b565b602082019050919050565b60006020820190508181036000830152613e9081613e54565b9050919050565b7f416d6f756e74206d757374206265203e20300000000000000000000000000000600082015250565b6000613ecd60128361309b565b9150613ed882613e97565b602082019050919050565b60006020820190508181036000830152613efc81613ec0565b9050919050565b6000613f0e82613142565b9150613f1983613142565b9250828202613f2781613142565b91508282048414831517613f3e57613f3d613c14565b5b5092915050565b7f4e487b7100000000000000000000000000000000000000000000000000000000600052601260045260246000fd5b6000613f7f82613142565b9150613f8a83613142565b925082613f9a57613f99613f45565b5b828204905092915050565b7f496e73756666696369656e74206c697175696469747900000000000000000000600082015250565b6000613fdb60168361309b565b9150613fe682613fa5565b602082019050919050565b6000602082019050818103600083015261400a81613fce565b9050919050565b600060808201905061402660008301876131d7565b61403360208301866131d7565b6140406040830185613201565b61404d6060830184613201565b95945050505050565b7f4552433732313a207472616e736665722066726f6d20696e636f72726563742060008201527f6f776e6572000000000000000000000000000000000000000000000000000000602082015250565b60006140b260258361309b565b91506140bd82614056565b604082019050919050565b600060208201905081810360008301526140e1816140a5565b9050919050565b7f4552433732313a207472616e7366657220746f20746865207a65726f2061646460008201527f7265737300000000000000000000000000000000000000000000000000000000602082015250565b600061414460248361309b565b915061414f826140e8565b604082019050919050565b6000602082019050818103600083015261417381614137565b9050919050565b600060408201905061418f60008301856131d7565b61419c6020830184613201565b9392505050565b7f4552433732313a20617070726f766520746f2063616c6c657200000000000000600082015250565b60006141d960198361309b565b91506141e4826141a3565b602082019050919050565b60006020820190508181036000830152614208816141cc565b9050919050565b600060608201905061422460008301866131d7565b61423160208301856131d7565b61423e6040830184613201565b949350505050565b7f4552433732313a206d696e7420746f20746865207a65726f2061646472657373600082015250565b600061427c60208361309b565b915061428782614246565b602082019050919050565b600060208201905081810360008301526142ab8161426f565b9050919050565b7f4552433732313a20746f6b656e20616c7265616479206d696e74656400000000600082015250565b60006142e8601c8361309b565b91506142f3826142b2565b602082019050919050565b60006020820190508181036000830152614317816142db565b9050919050565b7f4552433732313a207472616e7366657220746f206e6f6e20455243373231526560008201527f63656976657220696d706c656d656e7465720000000000000000000000000000602082015250565b600061437a60328361309b565b91506143858261431e565b604082019050919050565b600060208201905081810360008301526143a98161436d565b9050919050565b7f455243373231456e756d657261626c653a20636f6e736563757469766520747260008201527f616e7366657273206e6f7420737570706f727465640000000000000000000000602082015250565b600061440c60358361309b565b9150614417826143b0565b604082019050919050565b6000602082019050818103600083015261443b816143ff565b9050919050565b600081519050614451816133af565b92915050565b60006020828403121561446d5761446c612fcb565b5b600061447b84828501614442565b91505092915050565b7f5361666545524332303a204552433230206f7065726174696f6e20646964206e60008201527f6f74207375636365656400000000000000000000000000000000000000000000602082015250565b60006144e0602a8361309b565b91506144eb82614484565b604082019050919050565b6000602082019050818103600083015261450f816144d3565b9050919050565b600081519050919050565b600082825260208201905092915050565b600061453d82614516565b6145478185614521565b93506145578185602086016130ac565b614560816130d6565b840191505092915050565b600060808201905061458060008301876131d7565b61458d60208301866131d7565b61459a6040830185613201565b81810360608301526145ac8184614532565b905095945050505050565b6000815190506145c681613001565b92915050565b6000602082840312156145e2576145e1612fcb565b5b60006145f0848285016145b7565b91505092915050565b7f4e487b7100000000000000000000000000000000000000000000000000000000600052603160045260246000fd5b7f416464726573733a20696e73756666696369656e742062616c616e636520666f60008201527f722063616c6c0000000000000000000000000000000000000000000000000000602082015250565b600061468460268361309b565b915061468f82614628565b604082019050919050565b600060208201905081810360008301526146b381614677565b9050919050565b600081905092915050565b60006146d082614516565b6146da81856146ba565b93506146ea8185602086016130ac565b80840191505092915050565b600061470282846146c5565b915081905092915050565b7f416464726573733a2063616c6c20746f206e6f6e2d636f6e7472616374000000600082015250565b6000614743601d8361309b565b915061474e8261470d565b602082019050919050565b6000602082019050818103600083015261477281614736565b905091905056fea264697066735822122091591b4a1c0ac8cb2a48d1e688b4cf803a7331b9a1daa6873733248816eafa0364736f6c63430008110033a2646970667358221220fa0c4cee73ec99b8251fe1c7cc9dff4781c7a5b4d6fbd7939af2d024880bf53b64736f6c63430008110033",
  "linkReferences": {},
  "deployedLinkReferences": {}
}