{
  "_format": "hh-sol-artifact-1",
  "contractName": "TokenVault",
  "sourceName": "contracts/TokenVault.sol",
  "abi": [
    {
      "anonymous": false,
      "inputs": [
        {
          "indexed": true,
          "internalType": "address",
          "name": "token",
          "type": "address"
        },
        {
          "indexed": true,
          "internalType": "address",
          "name": "depositor",
          "type": "address"
        },
        {
          "indexed": false,
          "internalType": "uint256",
          "name": "amount",
          "type": "uint256"
        },
        {
          "indexed": false,
          "internalType": "uint256",
          "name": "depositId",
          "type": "uint256"
        }
      ],
      "name": "TokensDeposited",
      "type": "event"
    },
    {
      "anonymous": false,
      "inputs": [
        {
          "indexed": true,
          "internalType": "address",
          "name": "token",
          "type": "address"
        },
        {
          "indexed": true,
          "internalType": "address",
          "name": "depositor",
          "type": "address"
        },
        {
          "indexed": false,
          "internalType": "uint256",
          "name": "amount",
          "type": "uint256"
        },
        {
          "indexed": false,
          "internalType": "uint256",
          "name": "depositId",
          "type": "uint256"
        }
      ],
      "name": "TokensWithdrawn",
      "type": "event"
    },
    {
      "inputs": [
        {
          "internalType": "address",
          "name": "tokenAddress",
          "type": "address"
        },
        {
          "internalType": "uint256",
          "name": "amount",
          "type": "uint256"
        }
      ],
      "name": "deposit",
      "outputs": [],
      "stateMutability": "nonpayable",
      "type": "function"
    },
    {
      "inputs": [
        {
          "internalType": "uint256",
          "name": "",
          "type": "uint256"
        }
      ],
      "name": "deposits",
      "outputs": [
        {
          "internalType": "address",
          "name": "tokenAddress",
          "type": "address"
        },
        {
          "internalType": "uint256",
          "name": "amount",
          "type": "uint256"
        },
        {
          "internalType": "address",
          "name": "depositor",
          "type": "address"
        }
      ],
      "stateMutability": "view",
      "type": "function"
    },
    {
      "inputs": [
        {
          "internalType": "uint256",
          "name": "depositId",
          "type": "uint256"
        }
      ],
      "name": "getDeposit",
      "outputs": [
        {
          "components": [
            {
              "internalType": "address",
              "name": "tokenAddress",
              "type": "address"
            },
            {
              "internalType": "uint256",
              "name": "amount",
              "type": "uint256"
            },
            {
              "internalType": "address",
              "name": "depositor",
              "type": "address"
            }
          ],
          "internalType": "struct TokenVault.Deposit",
          "name": "",
          "type": "tuple"
        }
      ],
      "stateMutability": "view",
      "type": "function"
    },
    {
      "inputs": [
        {
          "internalType": "address",
          "name": "user",
          "type": "address"
        }
      ],
      "name": "getDepositsByUser",
      "outputs": [
        {
          "components": [
            {
              "internalType": "address",
              "name": "tokenAddress",
              "type": "address"
            },
            {
              "internalType": "uint256",
              "name": "amount",
              "type": "uint256"
            },
            {
              "internalType": "address",
              "name": "depositor",
              "type": "address"
            }
          ],
          "internalType": "struct TokenVault.Deposit[]",
          "name": "",
          "type": "tuple[]"
        }
      ],
      "stateMutability": "view",
      "type": "function"
    },
    {
      "inputs": [
        {
          "internalType": "uint256",
          "name": "depositId",
          "type": "uint256"
        }
      ],
      "name": "withdraw",
      "outputs": [],
      "stateMutability": "nonpayable",
      "type": "function"
    }
  ],
  "bytecode": "0x608060405234801561001057600080fd5b5060016000819055506111b3806100286000396000f3fe608060405234801561001057600080fd5b50600436106100575760003560e01c80632e1a7d4d1461005c57806347e7ef241461007857806387e696c1146100945780639f9fb968146100c4578063b02c43d0146100f4575b600080fd5b61007660048036038101906100719190610ab2565b610126565b005b610092600480360381019061008d9190610b3d565b61037f565b005b6100ae60048036038101906100a99190610b7d565b610679565b6040516100bb9190610cb9565b60405180910390f35b6100de60048036038101906100d99190610ab2565b610865565b6040516100eb9190610d1d565b60405180910390f35b61010e60048036038101906101099190610ab2565b610957565b60405161011d93929190610d56565b60405180910390f35b61012e6109d1565b60006001828154811061014457610143610d8d565b5b906000526020600020906003020190503373ffffffffffffffffffffffffffffffffffffffff168160020160009054906101000a900473ffffffffffffffffffffffffffffffffffffffff1673ffffffffffffffffffffffffffffffffffffffff16146101e6576040517f08c379a00000000000000000000000000000000000000000000000000000000081526004016101dd90610e19565b60405180910390fd5b600081600101541161022d576040517f08c379a000000000000000000000000000000000000000000000000000000000815260040161022490610e85565b60405180910390fd5b8060000160009054906101000a900473ffffffffffffffffffffffffffffffffffffffff1673ffffffffffffffffffffffffffffffffffffffff1663a9059cbb3383600101546040518363ffffffff1660e01b8152600401610290929190610ea5565b6020604051808303816000875af11580156102af573d6000803e3d6000fd5b505050506040513d601f19601f820116820180604052508101906102d39190610f06565b50600081600101549050600082600101819055503373ffffffffffffffffffffffffffffffffffffffff168260000160009054906101000a900473ffffffffffffffffffffffffffffffffffffffff1673ffffffffffffffffffffffffffffffffffffffff167f6b83b455c317523498e4e86849438d4356ad79ba6b355a5e6d5bc05eca6c780f838660405161036a929190610f33565b60405180910390a3505061037c610a20565b50565b6103876109d1565b600081116103ca576040517f08c379a00000000000000000000000000000000000000000000000000000000081526004016103c190610fa8565b60405180910390fd5b8173ffffffffffffffffffffffffffffffffffffffff166323b872dd3330846040518463ffffffff1660e01b815260040161040793929190610fc8565b6020604051808303816000875af1158015610426573d6000803e3d6000fd5b505050506040513d601f19601f8201168201806040525081019061044a9190610f06565b610489576040517f08c379a00000000000000000000000000000000000000000000000000000000081526004016104809061104b565b60405180910390fd5b60006001805490509050600160405180606001604052808573ffffffffffffffffffffffffffffffffffffffff1681526020018481526020013373ffffffffffffffffffffffffffffffffffffffff16815250908060018154018082558091505060019003906000526020600020906003020160009091909190915060008201518160000160006101000a81548173ffffffffffffffffffffffffffffffffffffffff021916908373ffffffffffffffffffffffffffffffffffffffff1602179055506020820151816001015560408201518160020160006101000a81548173ffffffffffffffffffffffffffffffffffffffff021916908373ffffffffffffffffffffffffffffffffffffffff1602179055505050600260003373ffffffffffffffffffffffffffffffffffffffff1673ffffffffffffffffffffffffffffffffffffffff1681526020019081526020016000208190806001815401808255809150506001900390600052602060002001600090919091909150553373ffffffffffffffffffffffffffffffffffffffff168373ffffffffffffffffffffffffffffffffffffffff167f9d572f819ae4f4b4839dda54bcb4cc8d7c2f0a67807db864716b20eafb5153598484604051610664929190610f33565b60405180910390a350610675610a20565b5050565b60606000600260008473ffffffffffffffffffffffffffffffffffffffff1673ffffffffffffffffffffffffffffffffffffffff16815260200190815260200160002090506000818054905067ffffffffffffffff8111156106de576106dd61106b565b5b60405190808252806020026020018201604052801561071757816020015b610704610a2a565b8152602001906001900390816106fc5790505b50905060005b828054905081101561085a57600183828154811061073e5761073d610d8d565b5b90600052602060002001548154811061075a57610759610d8d565b5b90600052602060002090600302016040518060600160405290816000820160009054906101000a900473ffffffffffffffffffffffffffffffffffffffff1673ffffffffffffffffffffffffffffffffffffffff1673ffffffffffffffffffffffffffffffffffffffff168152602001600182015481526020016002820160009054906101000a900473ffffffffffffffffffffffffffffffffffffffff1673ffffffffffffffffffffffffffffffffffffffff1673ffffffffffffffffffffffffffffffffffffffff168152505082828151811061083c5761083b610d8d565b5b60200260200101819052508080610852906110c9565b91505061071d565b508092505050919050565b61086d610a2a565b6001828154811061088157610880610d8d565b5b90600052602060002090600302016040518060600160405290816000820160009054906101000a900473ffffffffffffffffffffffffffffffffffffffff1673ffffffffffffffffffffffffffffffffffffffff1673ffffffffffffffffffffffffffffffffffffffff168152602001600182015481526020016002820160009054906101000a900473ffffffffffffffffffffffffffffffffffffffff1673ffffffffffffffffffffffffffffffffffffffff1673ffffffffffffffffffffffffffffffffffffffff16815250509050919050565b6001818154811061096757600080fd5b90600052602060002090600302016000915090508060000160009054906101000a900473ffffffffffffffffffffffffffffffffffffffff16908060010154908060020160009054906101000a900473ffffffffffffffffffffffffffffffffffffffff16905083565b600260005403610a16576040517f08c379a0000000000000000000000000000000000000000000000000000000008152600401610a0d9061115d565b60405180910390fd5b6002600081905550565b6001600081905550565b6040518060600160405280600073ffffffffffffffffffffffffffffffffffffffff16815260200160008152602001600073ffffffffffffffffffffffffffffffffffffffff1681525090565b600080fd5b6000819050919050565b610a8f81610a7c565b8114610a9a57600080fd5b50565b600081359050610aac81610a86565b92915050565b600060208284031215610ac857610ac7610a77565b5b6000610ad684828501610a9d565b91505092915050565b600073ffffffffffffffffffffffffffffffffffffffff82169050919050565b6000610b0a82610adf565b9050919050565b610b1a81610aff565b8114610b2557600080fd5b50565b600081359050610b3781610b11565b92915050565b60008060408385031215610b5457610b53610a77565b5b6000610b6285828601610b28565b9250506020610b7385828601610a9d565b9150509250929050565b600060208284031215610b9357610b92610a77565b5b6000610ba184828501610b28565b91505092915050565b600081519050919050565b600082825260208201905092915050565b6000819050602082019050919050565b610bdf81610aff565b82525050565b610bee81610a7c565b82525050565b606082016000820151610c0a6000850182610bd6565b506020820151610c1d6020850182610be5565b506040820151610c306040850182610bd6565b50505050565b6000610c428383610bf4565b60608301905092915050565b6000602082019050919050565b6000610c6682610baa565b610c708185610bb5565b9350610c7b83610bc6565b8060005b83811015610cac578151610c938882610c36565b9750610c9e83610c4e565b925050600181019050610c7f565b5085935050505092915050565b60006020820190508181036000830152610cd38184610c5b565b905092915050565b606082016000820151610cf16000850182610bd6565b506020820151610d046020850182610be5565b506040820151610d176040850182610bd6565b50505050565b6000606082019050610d326000830184610cdb565b92915050565b610d4181610aff565b82525050565b610d5081610a7c565b82525050565b6000606082019050610d6b6000830186610d38565b610d786020830185610d47565b610d856040830184610d38565b949350505050565b7f4e487b7100000000000000000000000000000000000000000000000000000000600052603260045260246000fd5b600082825260208201905092915050565b7f4f6e6c79206465706f7369746f722063616e2077697468647261770000000000600082015250565b6000610e03601b83610dbc565b9150610e0e82610dcd565b602082019050919050565b60006020820190508181036000830152610e3281610df6565b9050919050565b7f416c72656164792077697468647261776e000000000000000000000000000000600082015250565b6000610e6f601183610dbc565b9150610e7a82610e39565b602082019050919050565b60006020820190508181036000830152610e9e81610e62565b9050919050565b6000604082019050610eba6000830185610d38565b610ec76020830184610d47565b9392505050565b60008115159050919050565b610ee381610ece565b8114610eee57600080fd5b50565b600081519050610f0081610eda565b92915050565b600060208284031215610f1c57610f1b610a77565b5b6000610f2a84828501610ef1565b91505092915050565b6000604082019050610f486000830185610d47565b610f556020830184610d47565b9392505050565b7f416d6f756e74206d757374206265203e20300000000000000000000000000000600082015250565b6000610f92601283610dbc565b9150610f9d82610f5c565b602082019050919050565b60006020820190508181036000830152610fc181610f85565b9050919050565b6000606082019050610fdd6000830186610d38565b610fea6020830185610d38565b610ff76040830184610d47565b949350505050565b7f5472616e73666572206661696c65640000000000000000000000000000000000600082015250565b6000611035600f83610dbc565b915061104082610fff565b602082019050919050565b6000602082019050818103600083015261106481611028565b9050919050565b7f4e487b7100000000000000000000000000000000000000000000000000000000600052604160045260246000fd5b7f4e487b7100000000000000000000000000000000000000000000000000000000600052601160045260246000fd5b60006110d482610a7c565b91507fffffffffffffffffffffffffffffffffffffffffffffffffffffffffffffffff82036111065761110561109a565b5b600182019050919050565b7f5265656e7472616e637947756172643a207265656e7472616e742063616c6c00600082015250565b6000611147601f83610dbc565b915061115282611111565b602082019050919050565b600060208201905081810360008301526111768161113a565b905091905056fea26469706673582212202368da0135bfbb3fe0c9af5b925c05e7633bd88bc0e466bce56ebbc230f71d0d64736f6c63430008110033",
  "linkReferences": {},
  "deployedLinkReferences": {}
}